:100000000C948D030C94D4030C94D4030C94D4035B
:100010000C94D4030C94D4030C94D4030C94D40304
:100020000C94D4030C94D4030C9419230C94EB2358
:100030000C94D81D0C94D4030C94D4030C94D403C6
:100040000C94D4030C94D4030C94D4030C94D403D4
:100050000C94D4030C94401E0C94D4030C94D4033D
:100060000C94D4030C94D4030C94D4030C94D403B4
:100070000C94D4030C94D4030C94D4030C94D403A4
:100080000C94D4030C94D4030C94D4030C94D40394
:100090000C94D4030C94D4030C94D4030C94D40384
:1000A0000C94D4030C94D4030C94D403E304E5041B
:1000B000F004E704E904EB04ED04EF04F204F404B3
:1000C000F6040105F804FA04FC04FE040005030527
:1000D000CB13CB13FD13FD133B147D157D157D153F
:1000E0005B147D15FC14FC146D157D157D157615BE
:1000F0000915091509150915091509150915091510
:1001000009150915091509150915091509150915FF
:100110001A1528152F1536154015081608161A1623
:100120001A1611161A161A161A1608160816161680
:100130001A161A16161658247F2471257F24712545
:10014000CB24EE2471254425532501E00119021921
:1001500002E00001E00106020602E0005300540044
:10016000550056005F006000610057005C005D00B4
:100170005E00003059005A005B00013062002A0026
:10018000634158000100C55CC65CCA5C0100A9005F
:10019000C25CC95CAC00A800AB000100DE5CAA0038
:1001A00001000100005C005C0100C35C0100010073
:1001B0000100010001000100010001000100010037
:1001C0000100010001000100010001000100010027
:1001D0000100010001000100010001000100010017
:1001E0000100010001000100010001000100010007
:1003D00001000100010001000100010000047F3F55
:1003E0001F643214643214783C1E1E140A05222342
:1003F000252628292A2C2D2F3032333536383A3B02
:100400003D3E4042434547494A4C4E505153555753
:10041000595A5C5E6062646668696B6D6F71737572
:1004200077797B7D7F81838587898A8C8E90929472
:1004300096989A9C9E9FA1A3A5A7A8AAACAEAFB17F
:10044000B3B4B6B8B9BBBCBEBFC1C2C3C5C6C7C9C9
:10045000CACBCCCDCED0D1D2D2D3D4D5D6D7D7D883
:10046000D9D9DADADBDBDBDCDCDCDCDCDDDDDDDDD5
:10047000DCDCDCDCDCDBDBDBDADAD9D9D8D7D7D6DD
:10048000D5D4D3D2D2D1D0CECDCCCBCAC9C7C6C594
:10049000C3C2C1BFBEBCBBB9B8B6B4B3B1AFAEACDA
:1004A000AAA8A7A5A3A19F9E9C9A98969492908E85
:1004B0008C8A89878583817F7D7B79777573716F5E
:1004C0006D6B6968666462605E5C5A59575553513A
:1004D000504E4C4A4947454342403E3D3B3A3836F0
:1004E000353332302F2D2C2A292826252322FFAA06
:1004F0007F554000000000000000000000010101E5
:1005000001010101010102020202020202020303CF
:100510000303030303040404040405050505050699
:100520000606060607070707080808080909090A52
:100530000A0A0B0B0B0C0C0C0D0D0D0E0E0E0F0FF3
:10054000101010111112121313141415151616177A
:1005500017181819191A1A1B1C1C1D1D1E1F1F20E5
:10056000212122232324252526272828292A2B2C2C
:100570002C2D2E2F30313132333435363738393A4D
:100580003B3C3D3E3F404142434445464748494B42
:100590004C4D4E4F50525354555758595A5C5D5E0E
:1005A000606163646567686A6B6C6E6F71727476A4
:1005B00077797A7C7D7F8182848687898B8D8E9006
:1005C00092949597999B9D9FA1A2A4A6A8AAACAE30
:1005D000B0B2B4B6B9BBBDBFC1C3C5C8CACCCED01A
:1005E000D3D5D7DADCDEE1E3E6E8EAEDEFF2F4F7C3
:1005F000F9FCFF0403300000000C03540045004EDA
:10060000004B00490000000E0364007A007400658E
:10061000006300680000000403090409023B0002B3
:100620000100A0FA090400000103010100092111E1
:100630000100012240000705810308000A090401A6
:1006400000010300000009211101000122710007CF
:1006500005820320000A1201100100000008EDFECF
:10066000606001000102030105010980A101850309
:100670001601002603001A81002A830075109501D7
:100680008100C0050C0901A1018504160100269C0A
:10069000021A01002A9C02751095018100C0050113
:1006A0000906A1018505050719E029E715002501BF
:1006B000950875018102050819012905950575013F
:1006C00091029501750391010507190029EF1500A5
:1006D000250195F075018102C005010906A10105FA
:1006E0000719E029E7150025019508750181029594
:1006F0000175088101050819012905950575019104
:10070000029501750391010507190029FF150026BF
:10071000FF00950675088100C00011241FBECFEFB1
:10072000DAE0DEBFCDBF04B603FE27C080913402FD
:1007300090913502A0913602B09137028730904BEC
:10074000A740B04BD1F410923402109235021092AF
:1007500036021092370214BE84B7877F84BF0FB66B
:10076000F894A89580916000886180936000109251
:1007700060000FBEE0E0F8E3099511E0A0E0B1E011
:10078000E4E5FCE402C005900D92AC34B107D9F762
:1007900022E0ACE4B1E001C01D92A433B207E1F75E
:1007A0000E943B200C9428260C9400000C94F0032B
:1007B0000C94F103662319F0613041F00EC0FC0186
:1007C0008281882351F083E591E00895FC018281C4
:1007D000882319F08AE491E0089580E090E008957C
:1007E0000895089581E00895089581E008950C9496
:1007F000F2031F93CF93DF9300D000D01F92CDB7A9
:10080000DEB749835A832091770189819A8121112A
:1008100012C0662349F00E942B1B182F682F898174
:100820009A810E94D21A03C00E94001B182F69816E
:100830007A81812F04C00E942B1B69817A810F90DD
:100840000F900F900F900F90DF91CF911F910C940C
:100850007106FC01408151816281738184810C9415
:10086000F9030E9434098FE39CE90197F1F700C076
:1008700000000E94340980E00E94E40880FF04C068
:100880000E945B1C0C94661E08950E9431040E9415
:10089000611C811102C00E94DB1C0C94D6030C94D5
:1008A000D8030C94F4030C94510408950E94F81595
:1008B0000E9455042FEF84E39CE02150804090403B
:1008C000E1F700C000000C94661E0F931F93CF93B6
:1008D000DF938C010E942904EC01B8010E94F70308
:1008E000882309F4F7C1B801CE010E946C10882357
:1008F00009F4F0C1CA3CFCE5DF0741F4F80182814C
:10090000882309F4E7C10E94AA0CE4C1CB3C8CE522
:10091000D80708F012C1C33C9CE5D90761F4F8017F
:100920008281882309F4D6C10E94AB1B8272E1F058
:100930000E94D50ECFC1C43CECE5DE07C0F0C63C3A
:100940009CE5D90709F4CAC008F0DCC0C43CFCE54A
:10095000DF0709F0CBC0F8018281882309F4BAC10E
:100960000E94AB1B827221F30E94C80EB3C1C53135
:10097000FCE5DF0708F07BC0C2308CE5D80708F43F
:1009800052C0F8018281882309F454C00E94611C7E
:10099000811102C00E94DB1C0E94741C90E09093A5
:1009A000260280932502FE01E350FC45E231F10569
:1009B00030F4EA5AFF4F809125020C94CD258091A6
:1009C0002502816027C0826025C0846023C08061C9
:1009D00021C080621FC080641DC080681BC084600D
:1009E000886018C08E7F16C08D7F14C08B7F12C0A8
:1009F0008F7E10C08F7D0EC08F7B0CC08F770AC09A
:100A00008B7F877F07C087FB222720F991E0922701
:100A100090FB87F980932502809125020E94781C23
:100A20000E94F81557C1C1159CE5D90751F0C13096
:100A3000DC4579F0C801DF91CF911F910F910C94A3
:100A4000F503F8018281882309F444C10E94560409
:100A500041C1F8018281882309F43CC18091EC01F5
:100A6000982F909590FB80F98093EC0133C1C631AB
:100A7000FCE5DF0739F50E94AB1B282FF8018281C6
:100A80004091100150911101882379F02A7A91E068
:100A900009F490E090934C01911102C069E201C009
:100AA00065E3CA010E94421D0AC080914C01811178
:100AB00002C069E201C065E3CA010E944D1D0E94A7
:100AC000F71B08C1C23CDC4509F0B4CFF8018281B4
:100AD000882309F4FFC00E94E30EFCC0F801828164
:100AE000882309F4F7C00E946E0CF4C0C53CDC45B5
:100AF00009F0A0CFF8018281882309F4EBC00E949D
:100B0000610CE8C0F8018281C83CFCE5DF0731F4E4
:100B1000882309F4DFC00E948C0CDCC0C93CDC4592
:100B200030F4882309F4D6C00E947D0CD3C08823FA
:100B300009F4D0C00E949B0CCDC0C13DECE5DE079E
:100B400091F4F8018281882309F4C4C00E94DC0A70
:100B50008F3028F00E94DC0A843108F405CF8FE042
:100B60000E94D80EB7C0C23DFCE5DF0708F05AC0AE
:100B7000CD3C8CE5D80739F4F8018281882309F44B
:100B8000A9C081E0EDCFCE3C9CE5D907C0F4CB3CB9
:100B9000ECE5DE0741F4F8018281882309F49AC06C
:100BA0000E94E40A97C0CC3CDC4509F043CFF80131
:100BB0008281882309F48EC00E94F50A8BC0F80157
:100BC0008281CF3CFCE5DF0771F4882309F482C001
:100BD0000E94DC0A863028F00E94DC0A883008F483
:100BE000C3CE86E0BDCFC03DDC4570F4882309F458
:100BF00071C00E94DC0A823028F00E94DC0A853035
:100C000008F4B2CE82E0ACCF882309F463C00E941E
:100C1000DC0A893028F00E94DC0A8E3008F4A4CE69
:100C200089E09ECFC53DECE5DE0739F4F80182810D
:100C3000882309F44FC083E293CFC63DFCE5DF076C
:100C400040F5F8018281C33DFCE5DF0729F48823E4
:100C500009F440C088E184CFC43DDC4568F48823B2
:100C6000C9F10E94DC0A853128F00E94DC0A873134
:100C700008F47ACE85E174CF882361F10E94DC0A02
:100C8000893128F00E94DC0A823208F46DCE89E1B5
:100C900067CFCD3DECE5DE0741F4F8018281882382
:100CA000C9F082E00E94DC2015C0CE3DFCE5DF07E4
:100CB00039F4F8018281882369F00E94DB1C0AC0A4
:100CC000CC3DDC4509F0B6CEF8018281882311F0D5
:100CD00080E0E8CF80E0DF91CF911F910F910895E0
:100CE0000895E72FF0E095E0899FE00DF11D1124B4
:100CF000EE0FFF1FEE0FFF1FE60FF11DEE0FFF1FA0
:100D0000E45AFE4F859194910895880F991FFC0134
:100D1000E452FC4F859194910895CF93DF930E9404
:100D200071060E944408EC01811520E59207F0F558
:100D3000811530E4930708F024C1883E910500F541
:100D4000803E910508F09CC1883A910570F4853A7F
:100D5000910508F09FC08130910509F491C108F414
:100D600042C1049708F08CC13EC18F3B910508F445
:100D70009CC0803C910508F436C1805C9109F4C0A8
:100D8000811540E2940758F4C11581E0D80708F0B6
:100D900077C1C03FD10508F426C1D06571C1811566
:100DA00020E3920708F0E4C09F70DEC0811535E5AE
:100DB000930708F044C0811544E5940708F0F8C093
:100DC000C11582E5D80708F5C11521E5D20708F05D
:100DD000DBC08C2F837021E030E002C0220F331F74
:100DE0008A95E2F73C68CE0174E0969587957A95EE
:100DF000E1F78370382BCF70C695C69580E2C89F07
:100E0000E0011124C22BD32B3BC12C2F2695269514
:100E1000CE0183709927C115D34508F0BAC040E2CE
:100E2000249F90011124C1E0D0E002C0CC0FDD1F4F
:100E30008A95E2F72C2B3D2BE901DC6821C1811555
:100E400049E59407A0F4C11588E5D80708F0B5C0B6
:100E5000C11526E5D20708F0C6C08C2F0E94C10834
:100E60008F71C82FD0E0DC2FCC27D06209C181154B
:100E70003AE5930708F4A6C090568115904208F011
:100E8000B2C08D2F8F710E94C108DD27D0628F7193
:100E9000D82BF6C0853A910509F4A8C0863A910589
:100EA00009F0A7C0C2E8D0E4EBC0883A910509F484
:100EB000A3C0893A910509F4A2C08A3A910509F4C0
:100EC000A1C08B3A910509F4A0C08C3A910509F4B0
:100ED0009FC08B3B910509F49EC08C3B910509F4A2
:100EE0009DC08D3A910509F49CC0803B910509F4A1
:100EF0009BC08E3A910509F49AC08F3A910509F486
:100F000099C0813B910509F498C0823B910509F491
:100F100097C0833B910509F496C0843B910509F481
:100F200095C0853B910509F494C0863B910509F471
:100F300093C0873B910509F492C0883B910509F461
:100F400091C0893B910509F490C08D3B910509F44E
:100F50008FC08E3B910509F48EC08A3B910509F440
:100F60008DC0C0E0D4E48CC00E948506EC0188C02E
:100F70009927D3FF03C0EC01D86C82C0EC01D06C80
:100F80007FC0DF70D06A7CC0DC2FCC27C16FD06AF5
:100F900077C040E2249F90011124C1E0D0E002C05C
:100FA000CC0FDD1F8A95E2F7C22BD32BDA6868C01D
:100FB000D82FCC27C46FD06A63C0DC2FCC27C06F7A
:100FC000D06A5EC08F700E94C10894E0D695C79524
:100FD0009A95E1F7CF70D0E0DC2FCC27D06A8F70E4
:100FE000806EC82B4DC0C0E0D0E04AC0C1E8D0E45C
:100FF00047C0C3E8D0E444C0C2EED4E441C0C9EE67
:10100000D4E43EC0CAEED4E43BC0C5EBD4E438C05F
:10101000C6EBD4E435C0C3EBD4E432C0C4EBD4E4B3
:101020002FC0C7EBD4E42CC0CCECD4E429C0CDEC69
:10103000D4E426C0C3E8D5E423C0CAE8D5E420C080
:10104000C2E9D5E41DC0C4E9D5E41AC0C1E2D6E4C2
:1010500017C0C3E2D6E414C0C4E2D6E411C0C5E2AE
:10106000D6E40EC0C6E2D6E40BC0C7E2D6E408C0A0
:10107000CFE6D4E405C0C0E7D4E402C0CAE2D6E4B7
:10108000CE01DF91CF9108958238910549F1B0F4F6
:101090008133910509F458C048F48932910509F467
:1010A0004EC08A32910509F454C0089585339105E4
:1010B00009F440C08933910599F00895833E910564
:1010C00029F138F4803E910591F0823E9105A1F01E
:1010D0000895863E9105F9F0873E910531F1089516
:1010E0002091250220FD3AC021FD38C0089580914D
:1010F000250280FD35C032C08091250282FF32C0BA
:101100008091250284FD30C083EE39C08091250294
:1011100082FD28C0F5CF8091250283FF27C08091F2
:10112000250284FD21C087EE2AC08091250283FD1F
:101130001DC0F5CF8091250285FD1AC01BC080918E
:10114000250285FD17C014C08091250286FD14C0BC
:1011500015C08091250286FD11C00EC080EE0FC023
:1011600089E30DC082EE0BC080E009C086EE07C0A7
:1011700089E205C085E303C08AE201C081E390E013
:1011800008959091250292FF0DC0282F28712830D4
:1011900019F4877F846006C0282F2471243011F44D
:1011A0008B7F886093FF0DC0282F2871283119F498
:1011B000877E846106C0282F2471243111F48B7E30
:1011C000886194FD877E0895E82FF0E0E35BFE4F91
:1011D000808108950895A1E2B1E041E050E025E06A
:1011E0002A0F8D91E82FE295EF70F0E031A18F701A
:1011F000BA0102C0660F771F8A95E2F7CB01962FDE
:101200009095932391A392A1892B82A32A13E9CFCE
:10121000ADE1B1E041E050E024E02A0F8D91E82FEC
:10122000E295EF70F0E031A18F70BA0102C0660F55
:10123000771F8A95E2F7CB01962F9095932391A380
:1012400092A1892B82A32A13E9CFADE4B1E0E2E5B4
:10125000F1E085E08E0F11921D928E13FCCF85E098
:101260000E94BB090C9445046F927F928F929F92CB
:10127000AF92BF92CF92DF92EF92FF920F931F93A4
:10128000CF93DF9361E271E0A2E5B1E0712C01E060
:1012900010E0D5E06D2E6A0E7D019C901C92EB0152
:1012A0008991BE01E82FE295EF70F0E091A18F7077
:1012B000A80101C0440F8A95EAF7892F842B81A3E6
:1012C00092A1842F8095982392A3D0EADA95F1F722
:1012D000CDE1CC2EC1E0DC2E20E030E0E60199919A
:1012E0006E01A92EA2945FE0A522B12CE501A8A071
:1012F0008C90B12C9F7002C0B594A7949A95E2F798
:10130000A0FC07C0902F022E01C0990F0A94EAF7A3
:1013100001C090E098299C932F5F3F4F2430310506
:10132000E9F691A1892381A382A1482B42A31196BA
:1013300081E0F7019081991201C080E0782A6A1259
:10134000ABCF272D45E06DE471E082E591E00E948E
:10135000BC090E944F04872DDF91CF911F910F91FF
:10136000FF90EF90DF90CF90BF90AF909F908F90C5
:101370007F906F9008950895FF920F931F93CF93DE
:10138000DF938C01F62ED72FC42F222349F081E062
:10139000809359010E940A1E90935801809357012F
:1013A000809159018823C1F0809157019091580193
:1013B0000E94161E069780F0EF2DFD2FD8014C2FAE
:1013C00050E0CD01801B910B841795071CF48D9183
:1013D0008193F7CF10925901DF91CF911F910F9117
:1013E000FF900895CF92DF92EF92FF920F931F9399
:1013F000CF93DF937B01282F382FE82FF0E0F110F7
:1014000006C0ED50FB4F6491762F862F7BC00F2DC9
:1014100010E046E0649FC0011124CFEFD0E0BE0190
:101420000E94A525AB016BEA6403C001659F900D86
:1014300011248E0D911D8E0D911D982F990F890FDE
:10144000BE01601B710B6E9FD0016F9FB00D7E9F20
:10145000B00D11249B2F8F9DB0011124672F77278A
:101460007E01E61AF70AEE9EB001EF9E700DFE9E19
:10147000700D11246E01C81AD108C09E7001C19E62
:10148000F00CD09EF00C11240F2D1127C01BD10B96
:10149000CE9F8001CF9F100DDE9F100D1124812F54
:1014A0004230510591F04CF441155105E1F04130C5
:1014B0005105B9F4822F272F16C04430510569F029
:1014C00044F04630510579F00CC0822F2B2F912F1C
:1014D0000AC02B2F932F872F06C08B2F922F212FDF
:1014E00002C08B2F972FE22FF0E0ED50FB4F74914D
:1014F000E82FF0E0ED50FB4F6491E92FF0E0ED5064
:10150000FB4F8491DF91CF911F910F91FF90EF904E
:10151000DF90CF9008950895CF93DF93762FE90160
:10152000682F842F0E94F209798368838A83DF9170
:10153000CF91089580911302282F269530E0211530
:10154000310519F48170826005C02532310524F01F
:101550008170886480931302089588E090E00C9471
:10156000E825CF93DF9300D000D0CDB7DEB7AB0135
:10157000BC0149835A836B837C830E949A0A498108
:101580005A816B817C8188E090E00F900F900F90E2
:101590000F90DF91CF910C940626E3E1F2E083E017
:1015A000808311828FEF82838383148260817181B3
:1015B000828193810C94B10A8091130280FF02C052
:1015C0008695089580E0089580911702833018F47D
:1015D0008F5F8093170260911302709114028091C3
:1015E0001502909116020C94B10A8091170288237B
:1015F00019F08150809317026091130270911402C8
:1016000080911502909116020C94B10A6091040128
:1016100070E08091130280FF0AC080915E0123E098
:10162000829FC0011124885E9D4F0C94FC0F809115
:101630005D0190910301891780F7E82FF0E09F0189
:10164000220F331FE20FF31FE85EFD4F118210825D
:1016500012828F5FF0CF9091130290FF16C090918D
:101660005D0120910301921770F4E92FF0E0DF0192
:10167000AA0FBB1FEA0FFB1FE85EFD4F818360834B
:1016800042839F5FF0CF0C94060B0895CF93DF93B6
:1016900000D01F92CDB7DEB79091130290FF0AC021
:1016A0009E012F5F3F4F0E948C0A4B8169818A8186
:1016B0000E942B0B0F900F900F90DF91CF91089508
:1016C000CF93DF93EC01EC81F0E0E251FC4F4491C9
:1016D000E3E1F2E0628181810E94460B8C818F5FA1
:1016E0008C83DF91CF910895CF93DF93EC01E3E1F9
:1016F000F2E0438162818C810E94460B8C818F5F76
:101700008C83DF91CF9108950F931F93CF93DF9335
:1017100000D01F92CDB7DEB78C0180915A018111A4
:101720000AC09E012F5F3F4F4FEF6FEF0E948C0A60
:101730008A8180935A01F8018481813051F028F028
:10174000823061F440915A010AC080915A0140E010
:1017500007C060915A0140E080E003C040E080E0B3
:1017600060E00E942B0BF801248130E0C901019652
:1017700063E070E00E94B92584830F900F900F9072
:10178000DF91CF911F910F910895AF92BF92CF92A9
:10179000DF92EF92FF920F931F93CF93DF9300D0CE
:1017A0001F92CDB7DEB7182FF62E042FE22E9091A0
:1017B000130290FF6EC0E92FE695AE2FB0E0AA5D50
:1017C000BE4F8C91809366019E7F923061F49E01A2
:1017D0002F5F3F4F812F0E948C0A4B8169818A8144
:1017E0000E942B0B44C0823019F4009116023FC0B6
:1017F000863019F4109114023AC08930D9F3893136
:10180000B1F5E9518E2F8170D82EE695F0E0E251C6
:10181000FB4FA590B490C12CBB2460910201C61669
:1018200020F5EC2DF0E0EA9DC001EB9D900DFA9DB6
:10183000900D112470E00E94A525812FD11002C0C7
:10184000860F01C0861B90915D01E90FF11D9F017C
:10185000220F331FE20FF31F9F01285E3D4F402FE1
:101860006F2D0E948C0AC394D8CF0E94060B109350
:101870001402F092150200931602EE2051F06091CE
:1018800013027091140280911502909116020E9429
:10189000B10A0F900F900F90DF91CF911F910F9190
:1018A000FF90EF90DF90CF90BF90AF900895E3E16D
:1018B000F2E09181282F4381628188E0890F0C94A6
:1018C000C50B81E00C94570CE3E1F2E09181282FE5
:1018D0004381628188EF890F0C94C50B81E00C94E1
:1018E000640CE3E1F2E0628128E0620F08F46FEF3C
:1018F000282F438181810C94C50B81E00C94710CDD
:10190000E3E1F2E0628128E0621B08F460E0282F46
:10191000438181810C94C50B81E00C94800CE3E140
:10192000F2E0438128E0420F08F44FEF282F628154
:1019300081810C94C50B81E00C948F0CE3E1F2E003
:10194000438128E0421B08F440E0282F6281818116
:101950000C94C50B81E00C949E0C20E00C94C50BFC
:10196000FF920F931F93CF93DF93EC01F12C0FEFB6
:1019700010E060910201F616E8F420915D0130E07C
:101980002F0D311DC901880F991F280F391F285E9F
:101990003D4F70E0C8010E94B925962F8C8140917F
:1019A000160260911502F99E800D11240E948C0A86
:1019B000F394DFCF0E94060B9A818C8190FF02C0C6
:1019C0008F5F01C081508C83DF91CF911F910F9168
:1019D000FF900895BF92CF92DF92EF92FF920F9304
:1019E0001F93CF93DF93FC01828180FF02C00FEF32
:1019F00001C001E010E0809102011817E0F5C12E4E
:101A0000D12C80915D01E601C80FD11DCE01880F58
:101A1000991FC80FD91FC85EDD4F198218821A821C
:101A200034E0E32EF12CB12C80915C018B0D87FF0B
:101A300003C090910201890F082E000C990BC81663
:101A4000D90691F4809116028E9DA0018F9D500DB4
:101A5000112455954795559547959E01609115021E
:101A6000809114020E948C0AB00EF1E0EF1AF10886
:101A7000D9F61F5FC0CF0E94060B80915C01013038
:101A800031F4811102C080910201815007C090E0C1
:101A900001966091020170E00E94B92580935C017B
:101AA000DF91CF911F910F91FF90EF90DF90CF903A
:101AB000BF900895CF9380915D01909103018917A4
:101AC00070F4E82FF0E09F01220F331FE20FF31FA5
:101AD000E85EFD4F1182108212828F5FF0CFC0E06E
:101AE00060910201C617B8F5EC2FF0E070E0CF016D
:101AF0000E94B92540915D01480F80915B01082E3D
:101B0000000C990B50E0E817F907C4F0209101018F
:101B1000022E000C330B2E173F0784F09A01220F80
:101B2000331F240F351F285E3D4F409116026091F0
:101B30001502809114020E948C0A0BC0FA01EE0F6C
:101B4000FF1F4E0F5F1FFA01E85EFD4F11821082EA
:101B50001282CF5FC5CF0E94060B209100018091B9
:101B60005B01820F80935B0190910101920F909332
:101B7000010119165CF4082E000C990B409102012A
:101B800050E041505109841795071CF0219520938E
:101B90000001CF9108950F931F93CF93DF938C0192
:101BA000FC018481958101968170992795838483B6
:101BB000C0E0D5E580910201C817F8F420915D01DD
:101BC00030E02C0F311DC901880F991F280F391FD4
:101BD000285E3D4F4C2F4695F80184819581840FF6
:101BE000911D817040911602609115028D9F802D8C
:101BF00011240E948C0ACF5FDDCFDF91CF911F911E
:101C00000F910C94060B0F931F93CF93DF93EC016E
:101C100000E010E080910201282F30E00217130746
:101C200024F590915D019801290F311DA901440F00
:101C3000551F240F351F285E3D4F869590E04C813F
:101C4000081719071CF4442331F002C0411103C0E6
:101C50004091160201C040E060911502809114028B
:101C60000E948C0A0F5F1F4FD5CF0E94060B2C815C
:101C700030E02F5F3F4F217033272C83DF91CF91CE
:101C80001F910F910895E3E1F2E080818E7F8083C0
:101C900060817181828193810E94B10A10926701F3
:101CA0002FEF80E792E0215080409040E1F700C0A4
:101CB00000000C94060BE3E1F2E080818E7F8083CC
:101CC000109267012FEF80E792E021508040904012
:101CD000E1F700C000000C94060B609113026695BA
:101CE00070E04BE050E085E091E00E94D325892B25
:101CF00019F481E0809367010E940A1E90936001AD
:101D000080935F0108959091130290FF35C0917008
:101D1000811102C0926006C0853210F0986402C042
:101D2000880F982B90931302662351F06091130251
:101D30007091140280911502909116020E94B10ACE
:101D400060911302669570E04BE050E085E091E011
:101D50000E94D325892B19F01092670102C00E94BE
:101D60006D0E81E080936201409116026091150230
:101D7000809114020C94AD0C0895682F9091130279
:101D8000969581E0890F853208F081E00C94830EEE
:101D900081E00C94BD0E682F9091130296958FEF01
:101DA000890F09F484E20C94830E81E00C94CB0E2D
:101DB00061E00C94830EE3E1F2E080818160808336
:101DC00086950C94D80E8091130280FD0C94430EDE
:101DD0000C94DB0E60E00C94830E80916501811100
:101DE00033C08091EC0181608093EC010E94611C02
:101DF000811104C00E94DB1C0E94CD0A0E94AD0A22
:101E0000609313027093140280931502909316024C
:101E10006E7F61F40E94CD0A0E94AD0A60931302A6
:101E20007093140280931502909316020E949A0AEE
:101E3000109267018091130280FF03C086950E9473
:101E4000EA0E81E0809365010895E3E1F2E080818C
:101E50008160808386950C94EA0E10926701089544
:101E60000F931F93CF93DF9380916701882309F429
:101E70008CC080916601E0911302E695E81BE09327
:101E80006101823049F4F0E0E651FC4FE491CE2F3D
:101E9000D0E000E61BE049C0863049F4F0E0E951AB
:101EA000FC4FE491CE2FD0E004E71BE03EC0893028
:101EB00051F4E695F0E0EC51FC4FE491CE2FD0E0E8
:101EC00000EB1CE032C08F3051F4E695F0E0EF51AA
:101ED000FC4FE491CE2FD0E00AEE1CE026C0853105
:101EE00049F4F0E0E252FC4FE491CE2FD0E00AE555
:101EF0001DE01BC0883181F0833239F4ECEDF3E052
:101F0000C591D49104E81BE010C0843251F4C4EFB1
:101F1000D1E003E01EE009C0C8EED3E00BEC1DE009
:101F200004C0C0EDD7E00BE81AE08091620188237D
:101F300089F0109262010E940A1E9E012095309540
:101F4000820F931F9093600180935F011092640150
:101F50001092630180915F01909160010E94161EB2
:101F60008C179D0790F0E0915F01F0916001CE0F1A
:101F7000DF1FD0936001C0935F018FE591E0F8010E
:101F8000DF91CF911F910F910994DF91CF911F9114
:101F90000F9108952BB1342F309523233BB1432B60
:101FA0003FB7F894FC01680F791FE617F70789F02F
:101FB000819198E04BB9000000C087FF2BB9880FD2
:101FC000000000C000C000C02BB900C09A9591F776
:101FD000ECCF3FBF08952AB1242B2AB99B01220FD1
:101FE000331F620F731F0E94CA0F87EC90E00197A6
:101FF000F1F700C00000089542E00C94EB0F0F933E
:102000001F93CF93DF93C62FD42F022FFC01828121
:102010008823C9F060936A010E940A1E90936901A7
:102020008093680180E28C0F883008F050C0C77040
:1020300081E001C0880FCA95EAF7DF91CF911F9127
:102040000F910C94871310916A01161330C0809180
:102050006801909169010E94161E883C910538F52F
:10206000C0E2CD0F1D17B9F080E2810F883040F437
:10207000177081E001C0880F1A95EAF70E948E134D
:10208000C83048F481E09D2F977001C0880F9A9561
:10209000EAF70E948713802F0E947413C830B8F4A7
:1020A000D77081E001C0880FDA95EAF70AC080E2B4
:1020B0008C0F883060F4C77081E001C0880FCA952A
:1020C000EAF7DF91CF911F910F910C948E13DF915E
:1020D000CF911F910F9108959C01CB01203F4CE5BA
:1020E0003407F9F078F4283DFCE53F07B9F0293DC5
:1020F0004CE5340711F1273D3C4531F526E241EE30
:1021000061EE1EC0223FFCE53F0799F070F0233FCF
:102110003C45D1F427E245EE66EE12C027E245EEDB
:102120000EC026E241EE60EE0BC027E245EE64EE03
:1021300007C026E241EE62EE03C028E241E065EE10
:102140000E94FF0F80E00895FC018281882319F02E
:1021500010926A01089581E0089590937001809330
:102160006F010895E0916F01F0917001309721F0B7
:102170000190F081E02D099480E00895E0916F01D5
:10218000F0917001309799F020911C01222359F0B1
:102190002091250227FF07C0DC012C9111962C937A
:1021A000119725E02C930280F381E02D0994089586
:1021B00020916D0130916E018217930771F0909319
:1021C0006E0180936D01E0916F01F0917001309785
:1021D00021F00680F781E02D0994089520916B018C
:1021E00030916C018217930771F090936C0180938A
:1021F0006B01E0916F01F0917001309721F0008444
:10220000F185E02D0994089585B7806885BF85B76D
:10221000806885BF0895089508950C940C11089561
:102220000C940F110E9404110E940B110C940D11BB
:1022300081E008950E94011E0E94EB080E948A1E00
:102240000E94ED0E0C941011CF92DF92EF92FF924C
:102250000F931F93CF93DF93CDB7DEB72B970FB6B6
:10226000F894DEBF0FBECDBF0E9434090E94181142
:10227000811111C08FEF89838A831B820E940A1EFD
:102280008160782F9D838C8349815A816B818D81F8
:102290000E94CA1156C082E7C82E81E0D82E00E005
:1022A00010E0E02E802F0E94E408F60141916F01BA
:1022B000F42EF82631F40F5F1F4F0530110589F712
:1022C000D9CF9091EC0191FF04C08B870E94EA085E
:1022D0008B8520E030E04F2D50E0922FBA01022E86
:1022E00002C0759567950A94E2F760FF24C02E83BB
:1022F000EF8221E030E0690102C0CC0CDD1C9A9530
:10230000E2F790E08C219D21892B09F420E02887B9
:102310000E940A1E8160782F9A8789874E815F818B
:1023200068858A850E94CA11F801EE58FE4F8081A7
:10233000C826C08206C02F5F3F4F2430310569F6A2
:10234000BACF109171010E94B2101817A1F00E942B
:10235000B210809371012B960FB6F894DEBF0FBEBA
:10236000CDBFDF91CF911F910F91FF90EF90DF9044
:10237000CF900C9453042B960FB6F894DEBF0FBE8B
:10238000CDBFDF91CF911F910F91FF90EF90DF9024
:10239000CF900895CF93DF93CDB7DEB72B970FB6CD
:1023A000F894DEBF0FBECDBF4F83588769877A8709
:1023B0008B87DE01119686E0FD0111928A95E9F77F
:1023C00085E0FE01379601900D928A95E1F74981EB
:1023D0005A816B817C818D819E810E94A2182B96EF
:1023E0000FB6F894DEBF0FBECDBFDF91CF91089539
:1023F000FC01808191810E946C1B0895882309F45F
:1024000013C1682F8238C1F40E94B21081FD0CC143
:1024100069E380911001909111010E94421D0E9478
:10242000F71B2FEF81EE94E0215080409040E1F7C0
:1024300000C0000069E319C08338F9F40E94B210AB
:1024400080FDF2C063E580911001909111010E941E
:10245000421D0E94F71B2FEF81EE94E02150804037
:102460009040E1F700C0000063E580911001909179
:1024700011010E944D1D0C94F71B8438C1F40E9479
:10248000B21082FDD1C067E48091100190911101DA
:102490000E94421D0E94F71B2FEF81EE94E0215015
:1024A00080409040E1F700C0000067E4DECF8CEF91
:1024B000860F813A38F480911001909111010E94A9
:1024C000421DD9CF80E2860F883048F4677081E0E2
:1024D00001C0880F6A95EAF70E94AE1BCCCF8BE54E
:1024E000860F833070F4653A29F0663A31F083E85C
:1024F00090E005C081E890E002C082E890E00C9492
:10250000D81088E5860F873108F08EC0683A09F444
:1025100045C0693A09F445C06A3A09F445C06B3AC6
:1025200009F445C06C3A09F445C06B3B09F445C059
:102530006C3B09F445C06D3A09F445C0603B09F4B1
:1025400045C06E3A09F445C06F3A09F445C0613B95
:1025500009F445C0623B09F445C0633B09F445C03A
:10256000643B09F445C0653B09F445C0663B09F48A
:1025700045C0673B09F445C0683B09F445C0693B69
:1025800009F445C06D3B09F445C06E3B09F445C0F4
:102590006A3B09F445C080E090E044C082EE90E0E0
:1025A00041C089EE90E03EC08AEE90E03BC085EBF2
:1025B00090E038C086EB90E035C083EB90E032C00D
:1025C00084EB90E02FC087EB90E02CC08CEC90E087
:1025D00029C08DEC90E026C083E891E023C08AE812
:1025E00091E020C082E991E01DC084E991E01AC029
:1025F00081E292E017C083E292E014C084E292E0AC
:1026000011C085E292E00EC086E292E00BC087E244
:1026100092E008C08FE690E005C080E790E002C03D
:102620008AE292E00C94EE100895882309F45BC0CE
:10263000682F823879F40E94B21081FF54C069E398
:1026400080911001909111010E94421D0E94F71B80
:1026500069E310C08338B1F40E94B21080FF43C018
:1026600063E580911001909111010E94421D0E942A
:10267000F71B63E580911001909111010E944D1D9F
:102680000C94F71B843879F40E94B21082FF2BC09F
:1026900067E480911001909111010E94421D0E94F7
:1026A000F71B67E4E7CF8CEF860F813A18F380E2DF
:1026B000860F883048F4677081E001C0880F6A9502
:1026C000EAF70E94B41BDCCF8BE5860F833020F441
:1026D00080E090E00C94D810685A673120F480E0D4
:1026E00090E00C94EE100895CF93C82F0E94FE1135
:1026F000C93349F42FEF83EC99E02150804090409A
:10270000E1F700C000008C2FCF910C9415138823A3
:1027100021F00E94AE1B0C94F71B0895882321F032
:102720000E94B41B0C94F71B08954F925F926F9216
:102730007F92BF92CF92DF92EF92FF920F931F93FF
:10274000CF93DF937C01062FC72FFC0115811295D3
:102750001F70D281D1110E94CB1B0E94A41B882321
:1027600079F0DD2369F080E2800F883048F082E064
:102770000E94421C0E94A41B91E0B82EB92601C001
:10278000B12CCC2EC2948FE0C822D12CF601E8598E
:10279000FF4F0C94CD258C2F807FCF70882311F0B4
:1027A000C295C07FDD2399F0CC2309F481C180E27A
:1027B000800F883010F0011104C08C2F0E94AE1BD6
:1027C00003C08C2F0E94BE1B0E94F71B71C1802F7B
:1027D0000E941513CC2309F490C180E2800F883049
:1027E00010F0011104C08C2F0E94B41B03C08C2F69
:1027F0000E94C41B0E94F71B80C18C2F807FCF706A
:10280000803211F0C295C07F002319F00130C9F069
:1028100022C0DD2371F0112341F0113031F40E9408
:10282000DE1B8C2B0E94E41B68C10E94DE1B8C2BDC
:10283000F8C0112319F0113009F45FC10E94ED1B9B
:1028400018C0DD2321F0163008F057C10EC0153036
:1028500008F053C10EC0DD2351F0112331F0F70110
:10286000858180FF25C18F7085838C2FDAC011117F
:1028700030C18C2FDCC08C2F86958695837090E0BC
:10288000009719F0019761F038C1DD2321F0802F06
:102890009C2F937002C080E090E00E94D8103DC150
:1028A000DD2321F0802F9C2F937002C080E090E008
:1028B0000E94EE1032C18C2F837009F04BC0D111F1
:1028C00028C1202F229526952770220F220F602FD6
:1028D0006F70862F90E0A0E0B0E02C013D01022E49
:1028E00004C0440C551C661C771C0A94D2F704FFE4
:1028F00010C08FE090E0A0E0B0E004C0880F991F06
:10290000AA1FBB1F2A95D2F780959095A095B095E8
:1029100003C080E090E0DC01C695C695C370D0E0AE
:10292000BC01CD016429752986299729C230D105BA
:1029300059F0C330D10559F0219719F00E94E719D9
:10294000E8C00E94D519E5C00E94F919E2C00E94B2
:10295000D319DFC0DD2319F08C2F817001C086955B
:10296000882309F4D6C0202F229526952770220FA0
:10297000220F602F6F70862F90E0A0E0B0E02C0156
:102980003D01022E04C0440C551C661C771C0A94A1
:10299000D2F704FF10C08FE090E0A0E0B0E004C0E8
:1029A000880F991FAA1FBB1F2A95D2F78095909573
:1029B000A095B09503C080E090E0DC01C695C69577
:1029C000C370D0E0BC01CD016429752986299729FF
:1029D000C230D10559F0C330D10559F0219719F013
:1029E0000E94AD1A96C00E949B1A93C00E94BF1A03
:1029F00090C00E940E1A8DC0802F90E0FC01E05E16
:102A0000F109E531F10508F04FC0E858FF4F0C948B
:102A1000CD250F708C2F8F71DD2331F00E94341A79
:102A2000802F0E94871369C00E94551A802F0E9430
:102A30008E1363C0DD2341F0153008F05EC08C2F8B
:102A40008F710E947A1A59C0163008F056C0F7CF1D
:102A5000DD2339F08C2F8F710E94341A4EC0DD2394
:102A6000C9F38C2F8F710E94551A47C0DD2329F0BE
:102A70008C2F8F710E941F1A40C00E941A1A3DC0ED
:102A8000DD2349F0CF718C2F0E94341A63E08C2F24
:102A90000E942D1C32C081E00E94421C123068F15D
:102AA00082E00E94421C29C0DD2331F0112391F203
:102AB000802F0E94FE1121C0112399F2093349F49D
:102AC000FFEF23EC89E0F15020408040E1F700C0A7
:102AD0000000802F0E94151310C04C2F4F70602FE4
:102AE000C7010E94DA030E94461917C04C2F4F708D
:102AF000602FC7010E94700610C098E0C916D1046B
:102B000041F05CF0FAE0CF1AD10822E0C216D104FD
:102B100020F40E94B2100E945304BB20F1F00E94E6
:102B2000A01B80FD1AC0F70112820E949A1B0E940E
:102B3000341AC7010E94BB150E949A1BDF91CF91E6
:102B40001F910F91FF90EF90DF90CF90BF907F90FB
:102B50006F905F904F900C94551ADF91CF911F9119
:102B60000F91FF90EF90DF90CF90BF907F906F908C
:102B70005F904F9008950F931F93CF93DF93EC01D5
:102B8000888199812B813C81232BB9F09F3F11F4DF
:102B90008F3F99F0CE010E946504882371F068810F
:102BA00079818A810E94771B8C010E94D11A0E9430
:102BB000D219B801CE010E949513DF91CF911F91D8
:102BC0000F9108950E94CB1B0E94DB1B0E94F71BF4
:102BD00080E090E00E94D81080E090E00C94EE102D
:102BE00080911001909111010E94581D0C94E215E2
:102BF0000E94BB1B0C94F015E92FE295EF70F0E0FA
:102C00003297EE30F105B0F4E357FF4F0C94CD2529
:102C1000803F91F018F4803E68F40EC0843F51F478
:102C20000BC0803E48F0813F29F406C093FB882703
:102C300080F9089580E0089581E008950E946C1B5A
:102C40000E94FC150895CF93DF9300D000D01F920F
:102C5000CDB7DEB70F900F900F900F900F90DF91D0
:102C6000CF910895CF93DF9300D000D000D0CDB79F
:102C7000DEB726960FB6F894DEBF0FBECDBFDF914C
:102C8000CF9108951F93CF93DF93C091780116E001
:102C900080917901C81799F0D0E01C9FF0011D9F29
:102CA000F00D1124E658FE4F4081518162817381FD
:102CB000848195810E9432162196C770E9CFDF91F9
:102CC000CF911F9108954091AA015091AB0160915D
:102CD000AC017091AD018091AE019091AF010C9467
:102CE00032168091AF0182958F7009F054C08091A7
:102CF000AC01882309F44FC080917801A09179013B
:102D00006091AA017091AB014091AD015091AE016B
:102D1000B6E08A1709F43FC090E041155105C1F1B2
:102D20007F3F11F46F3FA1F1B89FF001B99FF00D03
:102D30001124E658FE4F218172132AC020816213AC
:102D400027C02281211124C0238134812417350713
:102D500010F421503109241B350B283C3105C0F4F7
:102D60002091AF012F7020612093AF0126E0289FB2
:102D7000F001299FF00D1124E158FE4F80818F70E2
:102D8000806180838AEA91E00E94BB150C94421610
:102D900001968770BECF0895CF92DF92EF92FF9297
:102DA0000F931F93CF93DF93CDB7DEB762970FB624
:102DB000F894DEBF0FBECDBF8C0185E0F801DE01C7
:102DC0001D9601900D928A95E1F7D8014C911196CC
:102DD0005C91119712966C9112971396CD90DC909E
:102DE00014973091AA017091AB018091AD0190913F
:102DF000AE01009709F46BC17F3F19F43F3F09F41E
:102E000066C1E090AC01EE2009F4C0C02091AF0192
:102E1000C816D90628F0F601E81BF90BCF0104C04B
:102E2000809590958C0D9D1DFF24F394883C910511
:102E300078F0F12C207F09F0C6C07C2DD98AC88A91
:102E400089890E9423168AEA91E00E94BB15B1C0CD
:102E5000822F807F09F046C0751314C0341312C04E
:102E6000611110C02F7020612093AF010E94631682
:102E70008AEA91E00E94BB158091AF01D8011596B6
:102E80008C932EC0CD2819F15F3F11F44F3FF9F01C
:102E9000F62E61111CC0809178012091790136E0F5
:102EA000821709F45AC090E0389FF001399FF00D65
:102EB0001124E658FE4F7181571306C070814713E5
:102EC00003C07281711103C001968770E9CFF62E9D
:102ED000662309F427C18091AF0181608093AF011F
:102EE000F12C20C1751308C0341306C0611104C051
:102EF0008091AF01D801C3C04D875E878D859E85C7
:102F00006A8B0E941E166A898823E1F16623D1F13B
:102F10002091AF01822F82958F7090E0029774F01C
:102F20008091AA019091AB0198878F831986DB86E7
:102F3000CA862C87CE0107960E94BB1586E0F80151
:102F4000AAEAB1E001900D928A95E1F70E9471160C
:102F50000E946316FF24F394E5C04D875E878D853C
:102F60009E850E946C1B292F22952F7030E0223005
:102F700031050CF0CBC09F7009F0C5C0805E883071
:102F800008F4D0C0C8010E94BB15E4CFC816D9060A
:102F900008F453C0F601E81BF90BCF01883C9105FA
:102FA00008F450C0F12C7C2DD98AC88A89890E94E6
:102FB0002316EAEAF1E086E0DF011D928A95E9F73F
:102FC0000E946316AFC0751314C0341312C0611190
:102FD00010C08091AF01F8018583C8010E94BB1524
:102FE00086E0EAEAF1E0DF011D928A95E9F7FE2C1E
:102FF00099C04D875E878D859E856A8B0E941E16BF
:103000006A89882309F4BECF662309F4BBCF2091D7
:10301000AF01822F82958F7090E002970CF48ECFD3
:103020008091AA019091AB019A8389831B82DD82F2
:10303000CC822E83CE0101967FCF809590958C0D0A
:103040009D1DACCFF62E662309F49CCF75132EC0C0
:1030500034132CC02091AF0120FD1FC0822F829518
:103060008F70D9F0D80115962C9315978F3049F0B1
:103070008F5F982F9295907F822F8F70892B159656
:103080008C93C8010E94BB1586E0F801AAEAB1E062
:1030900001900D928A95E1F793CF86E0F801AAEAB4
:1030A000B1E001900D928A95E1F73CC04D875E87B3
:1030B0008D859E850E941E16811140CF8091AF01A3
:1030C00081608093AF01C8010E94BB152BC06623AD
:1030D00009F458CF4D875E878D859E850E941E1608
:1030E000F82E882309F44ECF86E0F801AAEAB1E071
:1030F00001900D928A95E1F78AEA91E00E94F81119
:103100000E9471165DCF811139CF0CC0243031057A
:103110000CF038CF9F7009F431CFF8019581907F82
:1031200009F02CCF8F2D62960FB6F894DEBF0FBE3C
:10313000CDBFDF91CF911F910F91FF90EF90DF9066
:10314000CF9008951F93CF93DF93CDB7DEB72C9721
:103150000FB6F894DEBF0FBECDBF4F835887698787
:103160007A878B879C87CE0107960E94CC1688238E
:1031700069F08F8198852A853B85232BF1F19F3F4C
:1031800009F063C08F3F09F060C037C086E0FE01E0
:103190003796DE01119601900D928A95E1F76F81C5
:1031A0007885EA85FB85309741F17F3F11F46F3FC9
:1031B00021F12091790130E0C901019687709927AA
:1031C0004091780150E08417950709F447C069835E
:1031D0007A83FD83EC8396E0929FD001939FB00D9C
:1031E0001124A658BE4FFE01319601900D929A957A
:1031F000E1F7809379010E94421616E080917801F0
:10320000909179018917C1F1189FC0011124865846
:103210009E4F0E94CC16882379F1E09178011E9F81
:10322000F0011124E658FE4F408151816281738183
:10323000848195810E9432168091780190E00196F8
:103240008770992780937801D9CF4F8158856985F8
:103250007A858B859C850E943216CFCF0E94F81507
:103260001092790110927801EAEAF1E086E0DF013C
:103270001D928A95E9F7C1CF2C960FB6F894DEBF60
:103280000FBECDBFDF91CF911F910895EF92FF92B6
:103290000F931F93CF93DF938C01892B09F46CC09C
:1032A000F12CEE24E394E8012196F801849184370F
:1032B00040F4843008F051C0813081F0823019F13F
:1032C0005BC0853709F444C0A8F19CE7980F90379C
:1032D00008F052C08F770E94151341C00E5F1F4F38
:1032E000FE01C49180E28C0F883048F4C7708E2DA7
:1032F00001C0880FCA95EAF70E94CE1B14C08C2F1C
:103300000E94FE112DC00E5F1F4FFE01C49180E28E
:103310008C0F883058F4C7708E2D01C0880FCA9565
:10332000EAF70E94D41B0E94F71B1AC08C2F0E9440
:10333000151316C00E5F1F4FFE01C491CC2381F000
:103340008FE99FE00197F1F700C00000C150F6CF70
:103350000E5F1F4FFE01F49003C00E94FE118E010C
:103360008F2D882309F49FCFEFE9FFE03197F1F724
:1033700000C000008150F5CFDF91CF911F910F91D8
:10338000FF90EF90089508950C94C3190E94C419FA
:103390006093C3017093C4018093C5019093C601EB
:1033A0000C94E21508950C94C6190F931F93009185
:1033B000C3011091C4012091C5013091C601602B59
:1033C000712B822B932B1F910F910C94C6190F9385
:1033D0001F930091C3011091C4012091C501309148
:1033E000C60160237123822393231F910F910C94B4
:1033F000C6190F931F930091C3011091C40120912E
:10340000C5013091C60160277127822793271F913C
:103410000F910C94C61908950C940B1A0E940C1A63
:103420006093BF017093C0018093C1019093C2016A
:103430000C94E21560E070E0CB010C940E1A0F932F
:103440001F9341E050E060E070E08A019B0104C0FE
:10345000000F111F221F331F8A95D2F7C901B8012F
:103460001F910F910C940E1A0F931F9341E050E09F
:1034700060E070E004C0440F551F661F771F8A95F7
:10348000D2F78091BF019091C001A091C101B0918C
:10349000C2018A019B01082B192B2A2B3B2BC90146
:1034A000B8011F910F910C940E1A0F931F9341E0D6
:1034B00050E060E070E004C0440F551F661F771FA6
:1034C0008A95D2F740955095609570958091BF018F
:1034D0009091C001A091C101B091C2018A019B01EC
:1034E000082319232A233B23C901B8011F910F91F7
:1034F0000C940E1A0F931F9341E050E060E070E0CF
:1035000004C0440F551F661F771F8A95D2F780911C
:10351000BF019091C001A091C101B091C2018A0187
:103520009B01082719272A273B27C901B8011F91AA
:103530000F910C940E1A0F931F930091BF011091DD
:10354000C0012091C1013091C201602B712B822BEF
:10355000932B1F910F910C940E1A0F931F930091B0
:10356000BF011091C0012091C1013091C2016023BF
:103570007123822393231F910F910C940E1A0F93A2
:103580001F930091BF011091C0012091C1013091A2
:10359000C20160277127822793271F910F910C94F6
:1035A0000E1A0895990F990F890FA82FA695A69521
:1035B000A695877051E001C0550F8A95EAF785E01E
:1035C000A89FD001112420E030E070E0F901EA0F5B
:1035D000FB1FE055FE4F4081CB01022E02C09695A5
:1035E00087950A94E2F7817099278195842785232E
:1035F000842780832F5F3F4F2530310539F70895A9
:10360000990F990F890F682F669566956695982F83
:10361000977085E0689FB001112440E050E080E0A1
:10362000FA01E60FF71FE055FE4F208130E0092E2A
:1036300002C0369527950A94E2F721703327042EAD
:1036400001C0220F0A94EAF7822B4F5F5F4F45308B
:10365000510531F70895BF92CF92DF92EF92FF921A
:103660000F931F93CF93DF938C01C090C301D09031
:10367000C401E090C501F090C6018091BF01909116
:10368000C001A091C101B091C201C82AD92AEA2A79
:10369000FB2ACFE1D0E0D701C6010C2E04C0B695BD
:1036A000A795979587950A94D2F780FF07C0BC2EFF
:1036B000B8018C2F0E948D06019719F4219758F7B5
:1036C000B12C8B2DDF91CF911F910F91FF90EF9037
:1036D000DF90CF90BF900895CF93DF93EC010E94CD
:1036E0002B1BBE010E948D06DF91CF9108951F9381
:1036F000CF93DF93EB0190917701992321F0CB01D8
:103700000E946C1B13C0882349F0CB010E942B1B25
:10371000182F682FCE010E94D21A04C0CB010E943C
:10372000001B182FBE01812F0E948D06DF91CF91C3
:103730001F9108958091C701859585958595089578
:103740008091C701877008959091C701977081E0BB
:1037500009F480E008958091EB0108959091EB01C8
:10376000892B8093EB01089580959091EB0189233B
:103770008093EB0108951092EB0108959091EA0176
:10378000892B8093EA01089580959091EA0189231D
:103790008093EA0108951092EA0108959091E90159
:1037A000892B8093E901089580959091E9018923FF
:1037B0008093E90108951092E90108958091C8016C
:1037C000089508950C94E11B9091C801981721F079
:1037D0008093C8010C94E21B08958091C80188234E
:1037E00029F01092C80180E00C94E21B0895E0914A
:1037F0001001F09111018091EB018083E0911001A3
:10380000F091110190818091EA01892B8083E091F0
:103810001001F091110190818091E901892B808341
:103820008091C801882381F0E0911001F09111018D
:103830009081892B808380911001909111010E94C9
:10384000DD1C81110E94ED1B8091100190911101EE
:103850000C94BE1008950C942A1C98E0899F900146
:103860001124262B2093C7010E94341A8091C7018E
:103870008595859585950C942B1C1092C70180E049
:103880000C942B1C2091C701809582238093C70143
:10389000982F977079F430E0482F082E000C550BC4
:1038A0002417350739F08595859585950E94551A19
:1038B0000C943D1C08956FEF7FEF80E090E00C9436
:1038C000122680E090E00E94EE2521E08D3E9E4F82
:1038D00009F020E0822F089582E090E00C94E0252A
:1038E00083E090E00C94E02584E090E00C94E025E7
:1038F000682F84E090E00C94F425AB01BC018FE0CC
:1039000090E00C940626AB01BC0183E190E00C949E
:10391000062660E070E0CB010C94831C60E070E050
:10392000CB010E947D1C0C94891C6DEE7EEF80E023
:1039300090E00E94122660E082E090E00E94F42570
:1039400060E083E090E00E94F4251092C3011092A1
:10395000C4011092C5011092C60160E084E090E0BD
:103960000E94F42560E085E090E00E94F42560E08C
:1039700086E090E00E94F4256FEF87E090E00E94DF
:10398000F42540E050E0BA0188E090E00E9406266D
:1039900060E08DE090E00E94F42540E050E0BA0144
:1039A00088E190E00E94062660E087E190E00E94B6
:1039B000F4250C948E1C0C94951CFC01329680917D
:1039C0001C01882331F08091250287FF02C09EE10F
:1039D00001C096E080E0915028F021912223D9F394
:1039E0008F5FF9CF08959C01FC0132969FEF80E034
:1039F0004191461789F09F3F19F4411101C0982F5A
:103A00008F5F8630A9F79F3F39F0F901E90FF11D6B
:103A100097FDFA95628308950895FC013296089601
:103A20002081261301C010823196E817F907C1F7EB
:103A30000895262F2695269526952E3168F4FC01AB
:103A4000E20FF11D677021E030E001C0220F6A959E
:103A5000EAF78281282B22830895262F2695269522
:103A600026952E3170F4FC01E20FF11D677021E004
:103A700030E001C0220F6A95EAF720958281282361
:103A80002283089520911C01222329F020912502F0
:103A900027FD0C94191D0C94F31C20911C0122236A
:103AA00029F02091250227FD0C942D1D0C940D1D4D
:103AB00020911C01FC013296222331F080912502D5
:103AC00087FF02C08EE101C086E0DF011D928A956A
:103AD000E9F7089508950C946A1D0E946B1D80916A
:103AE0002B02843009F439C01092ED0120E488E102
:103AF00090E00FB6F894A895809360000FBE2093D5
:103B0000600080E00E9453040E942D0F8091EE011E
:103B100081110AC081E08093EE01809113028170CF
:103B20008093EF010E945B0E0E946B1D83B7817F23
:103B3000846083BF83B7816083BF7894889583B79F
:103B40008E7F83BF0FB6F894A8958091600088613E
:103B500080936000109260000FBE0895089508954C
:103B6000CF930E94AE1D0E9434090E94AF1DC0E099
:103B70008C2F0E94E408811104C0CF5FC530C1F7CB
:103B800001C081E0CF91089508950C94C41D0E9456
:103B9000F8150E94B2100E9453041092EE01809119
:103BA000EF0181110E94250F0E946D0E0C94C51D1E
:103BB0001F920F920FB60F9211248F939F93AF9382
:103BC000BF938091ED01811113C0809121029091EA
:103BD0002202A0912302B09124024196A11DB11DA1
:103BE0008093210290932202A0932302B093240297
:103BF000BF91AF919F918F910F900FBE0F901F902B
:103C0000189582E084BD93E095BD9AEF97BD8093AF
:103C10006E0008952FB7F8948091210290912202AE
:103C2000A0912302B09124022FBF0895CF92DF927A
:103C3000EF92FF920F931F932FB7F89440912102B8
:103C40005091220260912302709124022FBF6A01D9
:103C50007B01EE24FF248C0120E030E0C016D10669
:103C6000E206F30610F4415051099A01281B390B62
:103C7000C9011F910F91FF90EF90DF90CF900895B1
:103C800078941F920F920FB60F9211248F939F93E7
:103C9000AF93BF938091210290912202A0912302C1
:103CA000B09124020196A11DB11D80932102909331
:103CB0002202A0932302B0932402BF91AF919F915F
:103CC0008F910F900FBE0F901F90189581E08093F9
:103CD000E00080E28093D8001092C9008FE19EE45A
:103CE0000197F1F700C0000087E090EBDC018093C2
:103CF000340290933502A0933602B09337029CE0D1
:103D000088E10FB6F894A895809360000FBE909359
:103D10006000FFCF0E94611C811102C00E94DB1C69
:103D20000E946C1C8093EC010E94741C90E09093A4
:103D30002602809325020E94701C682F70E080E0AC
:103D400090E00C94D31980911002089508950F9378
:103D50001F93CF93DF9300D01F92CDB7DEB78C01B6
:103D60000E94EC20823011F0843021F584E08983B8
:103D70001B830A8382E08093E9008FEF9091E80033
:103D8000815095FD06C095ED9A95F1F700008111DF
:103D9000F5CF8091E80085FF0DC040E050E063E082
:103DA00070E0CE0101960E9409218091E8008E7793
:103DB0008093E8000F900F900F90DF91CF911F91AB
:103DC0000F910895CF93DF9300D01F92CDB7DEB748
:103DD00020912B02243031F523E02983805891096A
:103DE0009B838A8382E08093E9008FEF9091E800C3
:103DF000815095FD06C095ED9A95F1F7000081116F
:103E0000F5CF8091E80085FF0DC040E050E063E011
:103E100070E0CE0101960E9409218091E8008E7722
:103E20008093E8000F900F900F90DF91CF9108954D
:103E3000CF93DF93EC010E94EC20823011F08430AC
:103E4000D9F580911C01882339F08091250287FFE4
:103E500003C060E282E002C068E081E08093E90094
:103E60008FEF9091E800815095FD06C095ED9A95F1
:103E7000F1F700008111F5CF8091E80085FF1CC0AB
:103E800080911C01811105C040E050E068E070E0C5
:103E900003C070E040E050E0CE010E940921809113
:103EA000E8008E778093E80080E2FE01A0EFB1E0A9
:103EB00001900D928A95E1F7DF91CF91089580915D
:103EC0002A02811109C00E949E220E94FB22809139
:103ED000E20084608093E200089510922A0208951F
:103EE000089508950C94C71D42E061EC81E00E94A2
:103EF000182242E261EC82E00C94182280912D029B
:103F0000833009F460C030F4813071F0823009F4FC
:103F100099C008958A3009F485C08B3009F46BC0CC
:103F2000893009F0A7C020C080912C02813A09F0A5
:103F3000A1C08091E800877F8093E80080913002E3
:103F400090913102892B21F460E280EF91E003C06F
:103F500060E080E090E070E00E9454218091E800F1
:103F60008B778093E800089580912C02813209F0CC
:103F700081C08091300290913102029708F07AC09E
:103F80008091E800877F8093E8008091E80082FDBF
:103F900005C080912B028111F8CF6CC02091F300F5
:103FA0008091F20090E0922B029729F48091F10029
:103FB0008B7F813021F48091F100809310028091F9
:103FC000E8008B7753C080912C02813A09F052C0EF
:103FD0008091300290913102892B09F04BC0809181
:103FE000E800877F8093E8008091E80080FFFCCFA5
:103FF00080911C0136C080912C028132D9F58091CC
:10400000300290913102892BA9F58091E800877FD9
:104010008093E8000E944D2280912E0280931C0123
:104020000C94F81580912C02813221F58091E800E2
:10403000877F8093E8000E944D2280912F02809319
:104040001102089580912C02813AA1F48091E80038
:10405000877F8093E8008091E80080FFFCCF80910B
:1040600011028093F1008091E8008E778093E80040
:104070000C944D22089584B7877F84BF0FB6F894BF
:10408000A895809160008861809360001092600024
:104090000FBE80E880936100109261000E941211AF
:1040A0000E949E220E94FB228091E2008460809305
:1040B000E20078940E948A250E941A1182E191E020
:1040C0000E94AD1080912B02853069F40E946D1D15
:1040D000809129028823B1F30E94B01D882391F3B7
:1040E0000E94F320EFCF0E9424110E94300FEACFEC
:1040F0000C947A20292F332723303105C9F064F43A
:104100002130310581F02230310509F04CC08BE3BC
:1041100090E02BE136E04BC02132310521F1223213
:10412000310589F140C082E190E026E536E03FC0EC
:1041300099278130910571F02CF4892BA1F5E7E1E5
:10414000F6E00DC08230910541F0039761F5E3EF91
:10415000F5E005C0E7E0F6E002C0E9EFF5E08491A4
:1041600090E09F0124C06115710541F06130710537
:10417000D1F489E090E026E436E019C089E090E0CF
:104180002DE236E014C06115710541F06130710512
:1041900051F481E790E028E636E009C080E490E041
:1041A00029ED36E004C080E090E020E030E0FA0144
:1041B0003183208308950895CF93C82F0E94DB2078
:1041C000C0931202CF91089580912B02843011F098
:1041D00081E0089582E0089580911202811102C069
:1041E0000C94E420089580E189BD82E189BD09B481
:1041F00000FEFDCF8091D8008F7D8093D800809104
:10420000E00082608093E0008091E00081FDFCCFBF
:104210000895CF92DF92EF92FF920F931F93CF9367
:10422000DF93EC018B016A010E946C22811133C083
:10423000C114D10439F0F60180819181081B190B5A
:10424000C80FD91FE12CF12C0115110519F180912E
:10425000E80085FD16C08091E8008E778093E80025
:10426000C114D10449F0F60180819181E80EF91E54
:10427000F182E08285E00FC00E946C22882321F346
:104280000AC089918093F10001501109FFEFEF1AE4
:10429000FF0ADACF80E0DF91CF911F910F91FF905D
:1042A000EF90DF90CF900895209132023091330249
:1042B0002617370748F06115710539F42091E80099
:1042C0002E772093E80001C0B90140E06115710527
:1042D000A9F120912B02222309F443C0253009F4CF
:1042E00042C02091E80023FD40C02091E80022FD5B
:1042F00032C02091E80020FFE9CF4091F3002091E7
:10430000F20030E0342BFC01CF016115710559F04A
:104310002830310540F481918093F100615071099A
:104320002F5F3F4FF1CF41E02830310509F040E0E9
:104330002091E8002E772093E800C8CF4111C9CF23
:104340000AC080912B02882361F0853061F0809152
:10435000E80083FD0AC08091E80082FFF2CF80E090
:10436000089582E0089583E0089581E00895209102
:104370003202309133022617370748F06115710574
:1043800039F42091E8002E772093E80001C0B901AC
:10439000FC0120E06115710591F180912B028823C9
:1043A00009F440C0853009F43FC08091E80083FDE6
:1043B0003DC08091E80082FD2FC08091E80080FF21
:1043C000E9CF2091F3008091F20090E0922B6115EB
:1043D000710559F08830910540F424912093F10043
:1043E0003196615071090196F2CF21E0089709F0EA
:1043F00020E08091E8008E778093E800CBCF2111F8
:10440000CCCF0AC080912B02882361F0853061F007
:104410008091E80083FD0AC08091E80082FFF2CF1E
:1044200080E0089582E0089583E0089581E0089592
:10443000982F973058F59093E900981739F07091BC
:10444000EC002091ED005091F00003C0242F762F56
:1044500050E021FF19C03091EB003E7F3093EB001C
:104460003091ED003D7F3093ED003091EB003160F5
:104470003093EB007093EC002093ED005093F0002C
:104480002091EE0027FF07C09F5FD3CF8F708093EE
:10449000E90081E0089580E0089580912C0287FF73
:1044A00011C08091E80082FD05C080912B0281112E
:1044B000F8CF11C08091E8008B770BC080912B0260
:1044C000882349F08091E80080FFF8CF8091E800D0
:1044D0008E778093E80008952091E4003091E50004
:1044E00095E64091EC00842F817040FF22C08091BE
:1044F000E80080FD1CC080912B02882391F085305C
:1045000091F08091EB0085FD10C04091E400509146
:10451000E5004217530729F39A01915011F784E0FF
:10452000089582E0089583E0089581E0089580E091
:1045300008954091E80042FFDECF08950E940C23C9
:104540000E941423E0EEF0E0808181608083E8ED3A
:10455000F0E080818F77808319BCA7EDB0E08C916B
:104560008E7F8C9380818F7E808310922A020895A3
:104570000F931F93CF93DF930E940C230E94142369
:10458000C8EDD0E088818F778883888180688883B0
:1045900088818F7D888319BC10922B02109227028C
:1045A000109229021092280200EE10E0F80180819A
:1045B0008B7F808388818160888342E060E080E037
:1045C0000E941822E1EEF0E080818E7F8083E2EE8F
:1045D000F0E0808181608083808188608083F80141
:1045E00080818E7F8083888180618883DF91CF91F5
:1045F0001F910F910895E8EDF0E080818F7E808318
:10460000E7EDF0E080818160808384E082BF81E01B
:1046100080932A020C94B822E8EDF0E080818E7F2E
:1046200080831092E20008951092DA001092E10067
:1046300008951F920F920FB60F9211242F933F935C
:104640004F935F936F937F938F939F93AF93BF939A
:10465000EF93FF938091E10082FF0BC08091E20015
:1046600082FF07C08091E1008B7F8093E1000E9470
:1046700089258091DA0080FF1FC08091D80080FFDB
:104680001BC08091DA008E7F8093DA008091D90080
:1046900080FF0DC080E189BD82E189BD09B400FEC3
:1046A000FDCF81E080932B020E945F1F05C019BCE3
:1046B00010922B020E946D1F8091E10080FF19C0B3
:1046C0008091E20080FF15C08091E2008E7F809390
:1046D000E2008091E20080618093E2008091D80046
:1046E00080628093D80019BC85E080932B020E94E1
:1046F000711F8091E10084FF30C08091E20084FF4F
:104700002CC080E189BD82E189BD09B400FEFDCFE6
:104710008091D8008F7D8093D8008091E1008F7EBA
:104720008093E1008091E2008F7E8093E20080918F
:10473000E20081608093E20080912702882311F0DB
:1047400084E007C08091E30087FD02C081E001C0E2
:1047500083E080932B020E94721F8091E10083FF0F
:1047600029C08091E20083FF25C08091E100877F0E
:104770008093E10082E080932B02109227028091C7
:10478000E1008E7F8093E1008091E2008E7F809334
:10479000E2008091E20080618093E20042E060E00C
:1047A00080E00E9418228091F00088608093F000E1
:1047B0000E94701FFF91EF91BF91AF919F918F91D8
:1047C0007F916F915F914F913F912F910F900FBE0D
:1047D0000F901F9018951F920F920FB60F921124F1
:1047E0002F933F934F935F936F937F938F939F93F9
:1047F000AF93BF93CF93DF93EF93FF93C091E90003
:10480000CF708091EC00D82FD17080FDD0E810924D
:10481000E9008091F000877F8093F00078940E94F7
:104820002F241092E9008091F00088608093F000BE
:10483000CD2BCF70C093E900FF91EF91DF91CF9125
:10484000BF91AF919F918F917F916F915F914F91A8
:104850003F912F910F900FBE0F901F9018951F93AF
:10486000CF93DF93CDB7DEB7AA970FB6F894DEBF2C
:104870000FBECDBFECE2F2E088E08E0F9091F10028
:1048800091938E13FBCF0E947E1F8091E80083FFDF
:1048900028C180912C0290912D02492F50E04A307E
:1048A000510508F01EC1FA01E556FF4F0C94CD25C5
:1048B000803821F0823809F014C108C080912802A4
:1048C00090912902992389F082600FC08091300273
:1048D0008F70873008F005C18093E9008091EB006C
:1048E00085FB882780F91092E9009091E800977F76
:1048F0009093E8008093F1001092F100D0C0282F2F
:104900002D7F09F0EEC0882319F0823061F0E9C0F4
:1049100080912E02813009F0E4C0933009F080E0EC
:10492000809329022EC080912E0281112AC080918D
:1049300030028F702FEF280F263008F0D2C08093FE
:10494000E9002091EB0020FF1CC0933021F48091FE
:10495000EB00806214C09091EB0090619093EB00AB
:1049600021E030E0A90102C0440F551F8A95E2F70B
:104970004093EA001092EA008091EB0088608093F7
:10498000EB001092E9008091E800877F8093E800B7
:104990000E944D22A6C08111A4C010912E021F7743
:1049A0008091E3008078812B8093E3008091E80080
:1049B000877F8093E8000E944D228091E80080FF6D
:1049C000FCCF8091E30080688093E300111102C066
:1049D00082E001C083E080932B0283C08058823044
:1049E00008F07FC080912E0290912F028C3D53E001
:1049F000950779F583E08A838AE289834FB7F89433
:104A0000DE01139620E03EE051E2E32FF0E0509308
:104A10005700E49120FF03C0E295EF703F5FEF7015
:104A20008E2F90E0EA3010F0C79601C0C0968D93AB
:104A30009D932F5F243149F74FBF8091E800877F16
:104A40008093E8006AE270E0CE0101960E94542152
:104A500015C06091300270913102AE014F5F5F4F1F
:104A60000E947820BC01892BE1F19091E800977FAA
:104A70009093E80089819A810E94B7218091E80093
:104A80008B778093E8002DC0803859F58091E8003D
:104A9000877F8093E800809127028093F1008091C6
:104AA000E8008E7773CF81111CC090912E02923056
:104AB000C0F48091E800877F8093E80090932702FC
:104AC0000E944D2280912702811106C08091E3004F
:104AD00087FD02C081E001C084E080932B020E9428
:104AE000741F8091E80083FF0AC08091E800877FEF
:104AF0008093E8008091EB0080628093EB00AA969F
:104B00000FB6F894DEBF0FBECDBFDF91CF911F91DE
:104B100008950895CF9380912B028823A1F0C0912E
:104B2000E900CF709091EC00892F817090FD80E8B2
:104B3000C82B1092E9008091E80083FD0E942F2489
:104B4000CF70C093E900CF910895AA1BBB1B51E120
:104B500007C0AA1FBB1FA617B70710F0A61BB70BED
:104B6000881F991F5A95A9F780959095BC01CD0192
:104B7000089597FB072E16F4009407D077FD09D00F
:104B80000E94A52507FC05D03EF4909581959F4F86
:104B90000895709561957F4F0895EE0FFF1F059062
:104BA000F491E02D0994FC014150504030F0019007
:104BB0000616D1F73197CF010895882799270895D0
:104BC000F999FECF92BD81BDF89A992780B50895D5
:104BD000A6E1B0E044E050E00C941A26A8E1B0E071
:104BE00042E050E00C941A26262FF999FECF92BD90
:104BF00081BDF89A019700B4021639F01FBA20BDA2
:104C00000FB6F894FA9AF99A0FBE08950396272FD3
:104C10000E94F5250E94F425252F0E94F525242FBA
:104C20000C94F5250196272F0E94F5250C94F42568
:104C3000DC01CB01FC01F999FECF06C0F2BDE1BD5C
:104C4000F89A319600B40D9241505040B8F708954B
:044C5000F894FFCF06
:104C5400010203030301191A1B1C1D1E1F2021221C
:104C6400C901A31E181FA61EE21EA71E01F4F59477
:104C7400903134F6363200010202020206060609B9
:104C840009090909090F0F0F0F0F0F151515181929
:0C4C9400191919191919191919232400EC
:00000001FF
