:100000000C9484030C94CB030C94CB030C94CB037F
:100010000C94CB030C94CB030C94CB030C94CB0328
:100020000C94CB030C94CB030C94FD220C94CF23A3
:100030000C94BC1D0C94CB030C94CB030C94CB03FD
:100040000C94CB030C94CB030C94CB030C94CB03F8
:100050000C94CB030C94241E0C94CB030C94CB0374
:100060000C94CB030C94CB030C94CB030C94CB03D8
:100070000C94CB030C94CB030C94CB030C94CB03C8
:100080000C94CB030C94CB030C94CB030C94CB03B8
:100090000C94CB030C94CB030C94CB030C94CB03A8
:1000A0000C94CB030C94CB030C94CB03C704C9046E
:1000B000D404CB04CD04CF04D104D304D604D80493
:1000C000DA04E504DC04DE04E004E204E404E7040A
:1000D000AF13AF13E113E1131F146115611561151F
:1000E0003F146115E014E0145115611561155A159E
:1000F000ED14ED14ED14ED14ED14ED14ED14ED14F8
:10010000ED14ED14ED14ED14ED14ED14ED14ED14E7
:10011000FE140C1513151A152415EC15EC15FE1507
:10012000FE15F515FE15FE15FE15EC15EC15FA1568
:10013000FE15FE15FA153C24632455256324552528
:10014000AF24D224552528253725530054005500C7
:1001500056005F006000610057005C005D005E00BB
:10016000570059005A005B0058006200620063416A
:1001700058000100C55CC65CCA5C0100A900C25CF5
:10018000CA5CAC00A800AB00CA5CDE5CAA0001003F
:10019000C35C005C005C0100C35C01000100010065
:1001A0000100010001000100010001000100010047
:1001B0000100010001000100010001000100010037
:1001C0000100010001000100010001000100010027
:1001D0000100010001000100010001000100010017
:1003C0000100010001000100010000047F3F1F64E3
:1003D0003214643214783C1E1E140A05222325268A
:1003E00028292A2C2D2F3032333536383A3B3D3EE2
:1003F0004042434547494A4C4E5051535557595A2C
:100400005C5E6062646668696B6D6F717375777945
:100410007B7D7F81838587898A8C8E909294969844
:100420009A9C9E9FA1A3A5A7A8AAACAEAFB1B3B456
:10043000B6B8B9BBBCBEBFC1C2C3C5C6C7C9CACBAB
:10044000CCCDCED0D1D2D2D3D4D5D6D7D7D8D9D976
:10045000DADADBDBDBDCDCDCDCDCDDDDDDDDDCDCDF
:10046000DCDCDCDBDBDBDADAD9D9D8D7D7D6D5D4FC
:10047000D3D2D2D1D0CECDCCCBCAC9C7C6C5C3C2C8
:10048000C1BFBEBCBBB9B8B6B4B3B1AFAEACAAA81D
:10049000A7A5A3A19F9E9C9A98969492908E8C8AD1
:1004A00089878583817F7D7B79777573716F6D6BAC
:1004B0006968666462605E5C5A5957555351504E84
:1004C0004C4A4947454342403E3D3B3A3836353336
:1004D00032302F2D2C2A292826252322FFAA7F55AA
:1004E00040000000000000000000000101010101C7
:1004F00001010101020202020202020203030303DC
:1005000003030304040404040505050505060606A3
:10051000060607070707080808080909090A0A0A5A
:100520000B0B0B0C0C0C0D0D0D0E0E0E0F0F1010F7
:10053000101111121213131414151516161717187B
:100540001819191A1A1B1C1C1D1D1E1F1F202121E2
:1005500022232324252526272828292A2B2C2C2D25
:100560002E2F30313132333435363738393A3B3C3F
:100570003D3E3F404142434445464748494B4C4D30
:100580004E4F50525354555758595A5C5D5E6061F6
:1005900063646567686A6B6C6E6F71727476777985
:1005A0007A7C7D7F8182848687898B8D8E909294E0
:1005B0009597999B9D9FA1A2A4A6A8AAACAEB0B204
:1005C000B4B6B9BBBDBFC1C3C5C8CACCCED0D3D5E4
:1005D000D7DADCDEE1E3E6E8EAEDEFF2F4F7F9FC86
:1005E000FF0403300000000C03540045004E004B94
:1005F00000490000000E0364007A00740065006387
:1006000000680000000403090409023B0002010025
:10061000A0FA0904000001030101000921110100F1
:10062000012240000705810308000A0904010001B6
:100630000300000009211101000122710007058259
:100640000320000A1201100100000008EDFE6060A6
:1006500001000102030105010980A10185031601C2
:10066000002603001A81002A83007510950181007D
:10067000C0050C0901A1018504160100269C021A7F
:1006800001002A9C02751095018100C00501090630
:10069000A1018505050719E029E715002501950841
:1006A0007501810205081901290595057501910259
:1006B0009501750391010507190029EF1500250122
:1006C00095F075018102C005010906A10105071910
:1006D000E029E7150025019508750181029501754E
:1006E00008810105081901290595057501910295F3
:1006F00001750391010507190029FF150026FF0068
:10070000950675088100C00011241FBECFEFDAE006
:10071000DEBFCDBF04B603FE27C0809134029091A6
:100720003502A0913602B09137028730904BA74036
:10073000B04BD1F41092340210923502109236026E
:100740001092370214BE84B7877F84BF0FB6F89427
:10075000A89580916000886180936000109260008D
:100760000FBEE0E0F8E3099511E0A0E0B1E0ECE1B4
:10077000FCE402C005900D92AC34B107D9F722E039
:10078000ACE4B1E001C01D92A433B207E1F70E94CE
:100790001F200C940C260C9400000C94D4030C9491
:1007A000D50380E090E008950895089581E00895CC
:1007B000089581E008950C94D6031F93CF93DF939F
:1007C00000D000D01F92CDB7DEB749835A83209165
:1007D000770189819A81211112C0662349F00E9414
:1007E0000F1B182F682F89819A810E94B61A03C0A7
:1007F0000E94E41A182F69817A81812F04C00E9417
:100800000F1B69817A810F900F900F900F900F90BE
:10081000DF91CF911F910C945506FC0140815181CD
:100820006281738184810C94DD030E9418098FE337
:100830009CE90197F1F700C000000E94180980E0D0
:100840000E94C80880FF04C00E943F1C0C944A1EEE
:1008500008950E9415040E94451C811102C00E9447
:10086000BF1C0C94CD030C94CF030C94D8030C94B0
:10087000350408950E94DC150E9439042FEF84E3AB
:100880009CE0215080409040E1F700C000000C94B3
:100890004A1E0F931F93CF93DF938C010E940D0488
:1008A000EC01B8010E94DB03882309F4F7C1B80109
:1008B000CE010E945010882309F4F0C1CA3CFCE527
:1008C000DF0741F4F8018281882309F4E7C10E941F
:1008D0008E0CE4C1CB3C8CE5D80708F012C1C33CB8
:1008E0009CE5D90761F4F8018281882309F4D6C117
:1008F0000E948F1B8272E1F00E94B90ECFC1C43CEE
:10090000ECE5DE07C0F0C63C9CE5D90709F4CAC097
:1009100008F0DCC0C43CFCE5DF0709F0CBC0F801FF
:100920008281882309F4BAC10E948F1B827221F34D
:100930000E94AC0EB3C1C531FCE5DF0708F07BC0F7
:10094000C2308CE5D80708F452C0F80182818823B0
:1009500009F454C00E94451C811102C00E94BF1CB2
:100960000E94581C90E09093260280932502FE017D
:10097000E350FC45E231F10530F4EA5AFF4F809133
:1009800025020C94B12580912502816027C08260E8
:1009900025C0846023C0806121C080621FC0806444
:1009A0001DC080681BC08460886018C08E7F16C020
:1009B0008D7F14C08B7F12C08F7E10C08F7D0EC0C4
:1009C0008F7B0CC08F770AC08B7F877F07C087FB28
:1009D000222720F991E0922790FB87F98093250246
:1009E000809125020E945C1C0E94DC1557C1C11534
:1009F0009CE5D90751F0C130DC4579F0C801DF91A1
:100A0000CF911F910F910C94D903F8018281882313
:100A100009F444C10E943A0441C1F801828188234B
:100A200009F43CC18091EC01982F909590FB80F9DE
:100A30008093EC0133C1C631FCE5DF0739F50E9434
:100A40008F1B282FF80182814091100150911101D4
:100A5000882379F02A7A91E009F490E090934C0190
:100A6000911102C069E201C065E3CA010E94261D1E
:100A70000AC080914C01811102C069E201C065E3A6
:100A8000CA010E94311D0E94DB1B08C1C23CDC452B
:100A900009F0B4CFF8018281882309F4FFC00E94D5
:100AA000C70EFCC0F8018281882309F4F7C00E94B8
:100AB000520CF4C0C53CDC4509F0A0CFF80182819E
:100AC000882309F4EBC00E94450CE8C0F80182813C
:100AD000C83CFCE5DF0731F4882309F4DFC00E943D
:100AE000700CDCC0C93CDC4530F4882309F4D6C066
:100AF0000E94610CD3C0882309F4D0C00E947F0CEF
:100B0000CDC0C13DECE5DE0791F4F8018281882378
:100B100009F4C4C00E94C00A8F3028F00E94C00AA5
:100B2000843108F405CF8FE00E94BC0EB7C0C23DEF
:100B3000FCE5DF0708F05AC0CD3C8CE5D80739F456
:100B4000F8018281882309F4A9C081E0EDCFCE3C71
:100B50009CE5D907C0F4CB3CECE5DE0741F4F80195
:100B60008281882309F49AC00E94C80A97C0CC3CAD
:100B7000DC4509F043CFF8018281882309F48EC057
:100B80000E94D90A8BC0F8018281CF3CFCE5DF07C7
:100B900071F4882309F482C00E94C00A863028F0CC
:100BA0000E94C00A883008F4C3CE86E0BDCFC03DA5
:100BB000DC4570F4882309F471C00E94C00A8230B9
:100BC00028F00E94C00A853008F4B2CE82E0ACCF93
:100BD000882309F463C00E94C00A893028F00E946B
:100BE000C00A8E3008F4A4CE89E09ECFC53DECE566
:100BF000DE0739F4F8018281882309F44FC083E2CB
:100C000093CFC63DFCE5DF0740F5F8018281C33D87
:100C1000FCE5DF0729F4882309F440C088E184CF8C
:100C2000C43DDC4568F48823C9F10E94C00A8531BF
:100C300028F00E94C00A873108F47ACE85E174CF8B
:100C4000882361F10E94C00A893128F00E94C00AFD
:100C5000823208F46DCE89E167CFCD3DECE5DE0749
:100C600041F4F80182818823C9F082E00E94C0200B
:100C700015C0CE3DFCE5DF0739F4F80182818823F9
:100C800069F00E94BF1C0AC0CC3DDC4509F0B6CE1D
:100C9000F8018281882311F080E0E8CF80E0DF91C5
:100CA000CF911F910F9108950895E72FF0E095E0FF
:100CB000899FE00DF11D1124EE0FFF1FEE0FFF1FA6
:100CC000E60FF11DEE0FFF1FE65BFE4F859194913D
:100CD0000895880F991FFC01E653FC4F859194916C
:100CE0000895CF93DF930E9455060E942808EC01D7
:100CF000811520E59207F0F5811530E4930708F09F
:100D000024C1883E910500F5803E910508F09CC104
:100D1000883A910570F4853A910508F09FC08130BA
:100D2000910509F491C108F442C1049708F08CC1FF
:100D30003EC18F3B910508F49CC0803C910508F4AE
:100D400036C1805C9109F4C0811540E2940758F4E3
:100D5000C11581E0D80708F077C1C03FD10508F47C
:100D600026C1D06571C1811520E3920708F0E4C067
:100D70009F70DEC0811535E5930708F044C08115EA
:100D800044E5940708F0F8C0C11582E5D80708F5D6
:100D9000C11521E5D20708F0DBC08C2F837021E05C
:100DA00030E002C0220F331F8A95E2F73C68CE0183
:100DB00074E0969587957A95E1F78370382BCF701C
:100DC000C695C69580E2C89FE0011124C22BD32BA3
:100DD0003BC12C2F26952695CE0183709927C115EE
:100DE000D34508F0BAC040E2249F90011124C1E02D
:100DF000D0E002C0CC0FDD1F8A95E2F72C2B3D2BF3
:100E0000E901DC6821C1811549E59407A0F4C11509
:100E100088E5D80708F0B5C0C11526E5D20708F067
:100E2000C6C08C2F0E94A5088F71C82FD0E0DC2F80
:100E3000CC27D06209C181153AE5930708F4A6C012
:100E400090568115904208F0B2C08D2F8F710E948C
:100E5000A508DD27D0628F71D82BF6C0853A9105A1
:100E600009F4A8C0863A910509F0A7C0C2E8D0E409
:100E7000EBC0883A910509F4A3C0893A910509F4B9
:100E8000A2C08A3A910509F4A1C08B3A910509F4F0
:100E9000A0C08C3A910509F49FC08B3B910509F4E1
:100EA0009EC08C3B910509F49DC08D3A910509F4D3
:100EB0009CC0803B910509F49BC08E3A910509F4D2
:100EC0009AC08F3A910509F499C0813B910509F4C4
:100ED00098C0823B910509F497C0833B910509F4C2
:100EE00096C0843B910509F495C0853B910509F4B2
:100EF00094C0863B910509F493C0873B910509F4A2
:100F000092C0883B910509F491C0893B910509F491
:100F100090C08D3B910509F48FC08E3B910509F47B
:100F20008EC08A3B910509F48DC0C0E0D4E48CC02A
:100F30000E946906EC0188C09927D3FF03C0EC0129
:100F4000D86C82C0EC01D06C7FC0DF70D06A7CC0EE
:100F5000DC2FCC27C16FD06A77C040E2249F90017C
:100F60001124C1E0D0E002C0CC0FDD1F8A95E2F76A
:100F7000C22BD32BDA6868C0D82FCC27C46FD06AB5
:100F800063C0DC2FCC27C06FD06A5EC08F700E9418
:100F9000A50894E0D695C7959A95E1F7CF70D0E073
:100FA000DC2FCC27D06A8F70806EC82B4DC0C0E07C
:100FB000D0E04AC0C1E8D0E447C0C3E8D0E444C0B0
:100FC000C2EED4E441C0C9EED4E43EC0CAEED4E4DB
:100FD0003BC0C5EBD4E438C0C6EBD4E435C0C3EBAA
:100FE000D4E432C0C4EBD4E42FC0C7EBD4E42CC0AB
:100FF000CCECD4E429C0CDECD4E426C0C3E8D5E4DD
:1010000023C0CAE8D5E420C0C2E9D5E41DC0C4E9C4
:10101000D5E41AC0C1E2D6E417C0C3E2D6E414C0D6
:10102000C4E2D6E411C0C5E2D6E40EC0C6E2D6E4FE
:101030000BC0C7E2D6E408C0CFE6D4E405C0C0E7E1
:10104000D4E402C0CAE2D6E4CE01DF91CF91089584
:101050008238910549F1B0F48133910509F458C003
:1010600048F48932910509F44EC08A32910509F499
:1010700054C008958533910509F440C08933910522
:1010800099F00895833E910529F138F4803E910549
:1010900091F0823E9105A1F00895863E9105F9F008
:1010A000873E910531F108952091250220FD3AC037
:1010B00021FD38C008958091250280FD35C032C0E1
:1010C0008091250282FF32C08091250284FD30C0CC
:1010D00083EE39C08091250282FD28C0F5CF809132
:1010E000250283FF27C08091250284FD21C087EE61
:1010F0002AC08091250283FD1DC0F5CF8091250275
:1011000085FD1AC01BC08091250285FD17C014C043
:101110008091250286FD14C015C08091250286FDB0
:1011200011C00EC080EE0FC089E30DC082EE0BC06F
:1011300080E009C086EE07C089E205C085E303C0F0
:101140008AE201C081E390E008959091250292FF28
:101150000DC0282F2871283019F4877F846006C0BD
:10116000282F2471243011F48B7F886093FF0DC0E9
:10117000282F2871283119F4877E846106C0282F12
:101180002471243111F48B7E886194FD877E08954B
:10119000E82FF0E0E35BFE4F808108950895A1E21F
:1011A000B1E041E050E025E02A0F8D91E82FE29573
:1011B000EF70F0E031A18F70BA0102C0660F771FA7
:1011C0008A95E2F7CB01962F9095932391A392A154
:1011D000892B82A32A13E9CFADE1B1E041E050E0D1
:1011E00024E02A0F8D91E82FE295EF70F0E031A115
:1011F0008F70BA0102C0660F771F8A95E2F7CB01A4
:10120000962F9095932391A392A1892B82A32A13C1
:10121000E9CFADE4B1E0E2E5F1E085E08E0F1192B7
:101220001D928E13FCCF85E00E949F090C94290427
:101230006F927F928F929F92AF92BF92CF92DF92E6
:10124000EF92FF920F931F93CF93DF9361E271E0D0
:10125000A2E5B1E0712C01E010E0D5E06D2E6A0E40
:101260007D019C901C92EB018991BE01E82FE295D3
:10127000EF70F0E091A18F70A80101C0440F8A9532
:10128000EAF7892F842B81A392A1842F809598233C
:1012900092A3D0EADA95F1F7CDE1CC2EC1E0DC2EB5
:1012A00020E030E0E60199916E01A92EA2945FE062
:1012B000A522B12CE501A8A08C90B12C9F7002C092
:1012C000B594A7949A95E2F7A0FC07C0902F022E40
:1012D00001C0990F0A94EAF701C090E098299C9305
:1012E0002F5F3F4F24303105E9F691A1892381A377
:1012F00082A1482B42A3119681E0F70190819912B7
:1013000001C080E0782A6A12ABCF272D45E06DE45A
:1013100071E082E591E00E94A0090E943304872DCC
:10132000DF91CF911F910F91FF90EF90DF90CF90C1
:10133000BF90AF909F908F907F906F900895089589
:10134000FF920F931F93CF93DF938C01F62ED72F2D
:10135000C42F222349F081E0809359010E94EE1DA1
:101360009093580180935701809159018823C1F0CF
:1013700080915701909158010E94FA1D069780F0C4
:10138000EF2DFD2FD8014C2F50E0CD01801B910B8C
:10139000841795071CF48D918193F7CF1092590112
:1013A000DF91CF911F910F91FF900895CF92DF921F
:1013B000EF92FF920F931F93CF93DF937B01282F20
:1013C000382FE82FF0E0F11006C0EF51FB4F649189
:1013D000762F862F7BC00F2D10E046E0649FC00162
:1013E0001124CFEFD0E0BE010E948925AB016BEA4A
:1013F0006403C001659F900D11248E0D911D8E0D0B
:10140000911D982F990F890FBE01601B710B6E9F64
:10141000D0016F9FB00D7E9FB00D11249B2F8F9D2B
:10142000B0011124672F77277E01E61AF70AEE9E96
:10143000B001EF9E700DFE9E700D11246E01C81A52
:10144000D108C09E7001C19EF00CD09EF00C1124FA
:101450000F2D1127C01BD10BCE9F8001CF9F100DE8
:10146000DE9F100D1124812F4230510591F04CF474
:1014700041155105E1F041305105B9F4822F272F74
:1014800016C04430510569F044F04630510579F0FA
:101490000CC0822F2B2F912F0AC02B2F932F872F19
:1014A00006C08B2F922F212F02C08B2F972FE22F58
:1014B000F0E0EF51FB4F7491E82FF0E0EF51FB4F5C
:1014C0006491E92FF0E0EF51FB4F8491DF91CF91D0
:1014D0001F910F91FF90EF90DF90CF9008950895A6
:1014E000CF93DF93762FE901682F842F0E94D609CE
:1014F000798368838A83DF91CF9108958091130265
:10150000282F269530E02115310519F4817082606D
:1015100005C02532310524F0817088648093130260
:10152000089588E090E00C94CC25CF93DF9300D011
:1015300000D0CDB7DEB7AB01BC0149835A836B83C2
:101540007C830E947E0A49815A816B817C8188E07C
:1015500090E00F900F900F900F90DF91CF910C942F
:10156000EA25E3E1F2E083E0808311828FEF82835A
:101570008383148260817181828193810C94950AA6
:101580008091130280FF02C08695089580E008953F
:1015900080911702833018F48F5F80931702609157
:1015A00013027091140280911502909116020C940E
:1015B000950A80911702882319F0815080931702B1
:1015C000609113027091140280911502909116029D
:1015D0000C94950A6091040170E08091130280FFE1
:1015E0000AC080915E0123E0829FC0011124885EC1
:1015F0009D4F0C94E00F80915D019091030189173C
:1016000080F7E82FF0E09F01220F331FE20FF31F56
:10161000E85EFD4F1182108212828F5FF0CF9091B1
:10162000130290FF16C090915D0120910301921763
:1016300070F4E92FF0E0DF01AA0FBB1FEA0FFB1FD8
:10164000E85EFD4F8183608342839F5FF0CF0C94FF
:10165000EA0A0895CF93DF9300D01F92CDB7DEB78B
:101660009091130290FF0AC09E012F5F3F4F0E948E
:10167000700A4B8169818A810E940F0B0F900F9035
:101680000F90DF91CF910895CF93DF93EC01EC8120
:10169000F0E0E452FC4F4491E3E1F2E062818181A9
:1016A0000E942A0B8C818F5F8C83DF91CF910895EC
:1016B000CF93DF93EC01E3E1F2E0438162818C811F
:1016C0000E942A0B8C818F5F8C83DF91CF910895CC
:1016D0000F931F93CF93DF9300D01F92CDB7DEB748
:1016E0008C0180915A0181110AC09E012F5F3F4FEA
:1016F0004FEF6FEF0E94700A8A8180935A01F801C0
:101700008481813051F028F0823061F440915A0197
:101710000AC080915A0140E007C060915A0140E040
:1017200080E003C040E080E060E00E940F0BF80121
:10173000248130E0C901019663E070E00E949D259C
:1017400084830F900F900F90DF91CF911F910F9195
:101750000895AF92BF92CF92DF92EF92FF920F93D4
:101760001F93CF93DF9300D01F92CDB7DEB7182F12
:10177000F62E042FE22E9091130290FF6EC0E92FF7
:10178000E695AE2FB0E0AA5DBE4F8C9180936601C6
:101790009E7F923061F49E012F5F3F4F812F0E9408
:1017A000700A4B8169818A810E940F0B44C082308C
:1017B00019F4009116023FC0863019F410911402FA
:1017C0003AC08930D9F38931B1F5E9518E2F817052
:1017D000D82EE695F0E0E452FB4FA590B490C12CD2
:1017E000BB2460910201C61620F5EC2DF0E0EA9DC5
:1017F000C001EB9D900DFA9D900D112470E00E94A8
:101800008925812FD11002C0860F01C0861B9091BF
:101810005D01E90FF11D9F01220F331FE20FF31F3E
:101820009F01285E3D4F402F6F2D0E94700AC39488
:10183000D8CF0E94EA0A10931402F0921502009386
:101840001602EE2051F06091130270911402809103
:101850001502909116020E94950A0F900F900F901A
:10186000DF91CF911F910F91FF90EF90DF90CF907C
:10187000BF90AF900895E3E1F2E09181282F43817A
:10188000628188E0890F0C94A90B81E00C943B0CD9
:10189000E3E1F2E09181282F4381628188EF890F93
:1018A0000C94A90B81E00C94480CE3E1F2E0628116
:1018B00028E0620F08F46FEF282F438181810C9498
:1018C000A90B81E00C94550CE3E1F2E0628128E081
:1018D000621B08F460E0282F438181810C94A90BDE
:1018E00081E00C94640CE3E1F2E0438128E0420FD4
:1018F00008F44FEF282F628181810C94A90B81E0BD
:101900000C94730CE3E1F2E0438128E0421B08F4FD
:1019100040E0282F628181810C94A90B81E00C9416
:10192000820C20E00C94A90BFF920F931F93CF938E
:10193000DF93EC01F12C0FEF10E060910201F6163D
:10194000E8F420915D0130E02F0D311DC901880FB1
:10195000991F280F391F285E3D4F70E0C8010E9473
:101960009D25962F8C814091160260911502F99E5B
:10197000800D11240E94700AF394DFCF0E94EA0ABE
:101980009A818C8190FF02C08F5F01C081508C834F
:10199000DF91CF911F910F91FF900895BF92CF9249
:1019A000DF92EF92FF920F931F93CF93DF93FC018F
:1019B000828180FF02C00FEF01C001E010E0809142
:1019C00002011817E0F5C12ED12C80915D01E601CE
:1019D000C80FD11DCE01880F991FC80FD91FC85E2F
:1019E000DD4F198218821A8234E0E32EF12CB12CDB
:1019F00080915C018B0D87FF03C090910201890FDC
:101A0000082E000C990BC816D90691F48091160285
:101A10008E9DA0018F9D500D11245595479555958C
:101A200047959E0160911502809114020E94700AF0
:101A3000B00EF1E0EF1AF108D9F61F5FC0CF0E9497
:101A4000EA0A80915C01013031F4811102C0809179
:101A50000201815007C090E001966091020170E0A0
:101A60000E949D2580935C01DF91CF911F910F9182
:101A7000FF90EF90DF90CF90BF900895CF9380912B
:101A80005D0190910301891770F4E82FF0E09F0148
:101A9000220F331FE20FF31FE85EFD4F1182108209
:101AA00012828F5FF0CFC0E060910201C617B8F5D7
:101AB000EC2FF0E070E0CF010E949D2540915D0188
:101AC000480F80915B01082E000C990B50E0E8173D
:101AD000F907C4F020910101022E000C330B2E17E0
:101AE0003F0784F09A01220F331F240F351F285E11
:101AF0003D4F4091160260911502809114020E94A0
:101B0000700A0BC0FA01EE0FFF1F4E0F5F1FFA01A4
:101B1000E85EFD4F118210821282CF5FC5CF0E9416
:101B2000EA0A2091000180915B01820F80935B01A2
:101B300090910101920F9093010119165CF4082E07
:101B4000000C990B4091020150E04150510984175B
:101B500095071CF0219520930001CF9108950F93D4
:101B60001F93CF93DF938C01FC01848195810196B3
:101B70008170992795838483C0E0D5E58091020127
:101B8000C817F8F420915D0130E02C0F311DC90118
:101B9000880F991F280F391F285E3D4F4C2F4695FF
:101BA000F80184819581840F911D81704091160206
:101BB000609115028D9F802D11240E94700ACF5FC5
:101BC000DDCFDF91CF911F910F910C94EA0A0F9313
:101BD0001F93CF93DF93EC0100E010E080910201AE
:101BE000282F30E00217130724F590915D0198012A
:101BF000290F311DA901440F551F240F351F285EE1
:101C00003D4F869590E04C81081719071CF444233A
:101C100031F002C0411103C04091160201C040E002
:101C200060911502809114020E94700A0F5F1F4F8D
:101C3000D5CF0E94EA0A2C8130E02F5F3F4F217000
:101C400033272C83DF91CF911F910F910895E3E10A
:101C5000F2E080818E7F80836081718182819381B7
:101C60000E94950A109267012FEF80E792E02150C1
:101C700080409040E1F700C000000C94EA0AE3E1E4
:101C8000F2E080818E7F8083109267012FEF80E7E2
:101C900092E0215080409040E1F700C000000C9499
:101CA000EA0A60911302669570E04BE050E085E02F
:101CB00091E00E94B725892B19F481E08093670198
:101CC0000E94EE1D9093600180935F0108959091B2
:101CD000130290FF35C09170811102C0926006C05E
:101CE000853210F0986402C0880F982B90931302ED
:101CF000662351F0609113027091140280911502D5
:101D0000909116020E94950A60911302669570E008
:101D10004BE050E085E091E00E94B725892B19F057
:101D20001092670102C00E94510E81E0809362010F
:101D30004091160260911502809114020C94910C4E
:101D40000895682F90911302969581E0890F85324E
:101D500008F081E00C94670E81E00C94A10E682FCE
:101D60009091130296958FEF890F09F484E20C94F9
:101D7000670E81E00C94AF0E61E00C94670EE3E116
:101D8000F2E080818160808386950C94BC0E809106
:101D9000130280FD0C94270E0C94BF0E60E00C948F
:101DA000670E80916501811133C08091EC018160E3
:101DB0008093EC010E94451C811104C00E94BF1C4D
:101DC0000E94B10A0E94910A609313027093140258
:101DD00080931502909316026E7F61F40E94B10AFF
:101DE0000E94910A6093130270931402809315026B
:101DF000909316020E947E0A10926701809113024E
:101E000080FF03C086950E94CE0E81E0809365011D
:101E10000895E3E1F2E080818160808386950C94EF
:101E2000CE0E1092670108950F931F93CF93DF9307
:101E300080916701882309F48CC080916601E0914C
:101E40001302E695E81BE0936101823049F4F0E06B
:101E5000E852FC4FE491CE2FD0E004E41BE049C0EF
:101E6000863049F4F0E0EB52FC4FE491CE2FD0E005
:101E700008E51BE03EC0893051F4E695F0E0EE52F3
:101E8000FC4FE491CE2FD0E004E91CE032C08F304B
:101E900051F4E695F0E0E153FC4FE491CE2FD0E011
:101EA0000EEC1CE026C0853149F4F0E0E453FC4F11
:101EB000E491CE2FD0E00EE31DE01BC0883181F00D
:101EC000833239F4EAECF3E0C591D49108E61BE0E3
:101ED00010C0843251F4C4EFD1E007EE1DE009C018
:101EE000C8EED3E00FEA1DE004C0C0EDD7E00FE676
:101EF0001AE080916201882389F0109262010E94A9
:101F0000EE1D9E0120953095820F931F90936001E6
:101F100080935F01109264011092630180915F01D0
:101F2000909160010E94FA1D8C179D0790F0E0913E
:101F30005F01F0916001CE0FDF1FD0936001C0936D
:101F40005F018FE591E0F801DF91CF911F910F9133
:101F50000994DF91CF911F910F9108952BB1342FE8
:101F6000309523233BB1432B3FB7F894FC01680F16
:101F7000791FE617F70789F0819198E04BB90000C7
:101F800000C087FF2BB9880F000000C000C000C050
:101F90002BB900C09A9591F7ECCF3FBF08952AB1B5
:101FA000242B2AB99B01220F331F620F731F0E943B
:101FB000AE0F87EC90E00197F1F700C000000895A4
:101FC00042E00C94CF0F0F931F93CF93DF93C62F54
:101FD000D42F022FFC0182818823C9F060936A010B
:101FE0000E94EE1D909369018093680180E28C0F3E
:101FF000883008F050C0C77081E001C0880FCA95D2
:10200000EAF7DF91CF911F910F910C946B13109110
:102010006A01161330C080916801909169010E9495
:10202000FA1D883C910538F5C0E2CD0F1D17B9F0B7
:1020300080E2810F883040F4177081E001C0880F82
:102040001A95EAF70E947213C83048F481E09D2F78
:10205000977001C0880F9A95EAF70E946B13802F42
:102060000E945813C830B8F4D77081E001C0880FBF
:10207000DA95EAF70AC080E28C0F883060F4C77006
:1020800081E001C0880FCA95EAF7DF91CF911F91D7
:102090000F910C947213DF91CF911F910F910895BE
:1020A0009C01CB01203F4CE53407F9F078F4283D42
:1020B000FCE53F07B9F0293D4CE5340711F1273D18
:1020C0003C4531F526E241EE61EE1EC0223FFCE5C3
:1020D0003F0799F070F0233F3C45D1F427E245EEED
:1020E00066EE12C027E245EE0EC026E241EE60EE3B
:1020F0000BC027E245EE64EE07C026E241EE62EE39
:1021000003C028E241E065EE0E94E30F80E00895FD
:10211000FC018281882319F010926A01089581E000
:1021200008959093700180936F010895E0916F017D
:10213000F0917001309721F00190F081E02D099429
:1021400080E00895E0916F01F0917001309799F06F
:1021500020911C01222359F02091250227FF07C05E
:10216000DC012C9111962C93119725E02C93028081
:10217000F381E02D0994089520916D0130916E0155
:102180008217930771F090936E0180936D01E09137
:102190006F01F0917001309721F00680F781E02DFA
:1021A0000994089520916B0130916C018217930777
:1021B00071F090936C0180936B01E0916F01F0914D
:1021C0007001309721F00084F185E02D0994089585
:1021D00085B7806885BF85B7806885BF08950895F5
:1021E00008950C94F01008950C94F3100E94E810D8
:1021F0000E94EF100C94F11081E008950E94E51DFB
:102200000E94CF080E946E1E0E94D10E0C94F41002
:10221000CF92DF92EF92FF920F931F93CF93DF93B2
:10222000CDB7DEB72B970FB6F894DEBF0FBECDBF8C
:102230000E9418090E94FC10811111C08FEF898340
:102240008A831B820E94EE1D8160782F9D838C8380
:1022500049815A816B818D810E94AE1156C082E7FF
:10226000C82E81E0D82E00E010E0E02E802F0E94E2
:10227000C808F60141916F01F42EF82631F40F5F82
:102280001F4F0530110589F7D9CF9091EC0191FFCF
:1022900004C08B870E94CE088B8520E030E04F2D54
:1022A00050E0922FBA01022E02C0759567950A94EC
:1022B000E2F760FF24C02E83EF8221E030E0690165
:1022C00002C0CC0CDD1C9A95E2F790E08C219D2198
:1022D000892B09F420E028870E94EE1D8160782F69
:1022E0009A8789874E815F8168858A850E94AE11B1
:1022F000F801EE58FE4F8081C826C08206C02F5FCD
:102300003F4F2430310569F6BACF109171010E9418
:1023100096101817A1F00E949610809371012B96C9
:102320000FB6F894DEBF0FBECDBFDF91CF911F91E6
:102330000F91FF90EF90DF90CF900C9437042B9685
:102340000FB6F894DEBF0FBECDBFDF91CF911F91C6
:102350000F91FF90EF90DF90CF900895CF93DF9390
:10236000CDB7DEB72B970FB6F894DEBF0FBECDBF4B
:102370004F83588769877A878B87DE01119686E0BD
:10238000FD0111928A95E9F785E0FE0137960190EB
:102390000D928A95E1F749815A816B817C818D810B
:1023A0009E810E9486182B960FB6F894DEBF0FBE52
:1023B000CDBFDF91CF910895FC01808191810E9472
:1023C000501B0895882309F413C1682F8238C1F483
:1023D0000E94961081FD0CC169E3809110019091DB
:1023E00011010E94261D0E94DB1B2FEF81EE94E05D
:1023F000215080409040E1F700C0000069E319C01F
:102400008338F9F40E94961080FDF2C063E5809154
:102410001001909111010E94261D0E94DB1B2FEFDD
:1024200081EE94E0215080409040E1F700C0000030
:1024300063E580911001909111010E94311D0C946F
:10244000DB1B8438C1F40E94961082FDD1C067E482
:1024500080911001909111010E94261D0E94DB1BAA
:102460002FEF81EE94E0215080409040E1F700C0D2
:10247000000067E4DECF8CEF860F813A38F480915C
:102480001001909111010E94261DD9CF80E2860F84
:10249000883048F4677081E001C0880F6A95EAF7D8
:1024A0000E94921BCCCF8BE5860F833070F4653A87
:1024B00029F0663A31F083E890E005C081E890E0C9
:1024C00002C082E890E00C94BC1088E5860F87314A
:1024D00008F08EC0683A09F445C0693A09F445C06D
:1024E0006A3A09F445C06B3A09F445C06C3A09F4FC
:1024F00045C06B3B09F445C06C3B09F445C06D3ADF
:1025000009F445C0603B09F445C06E3A09F445C082
:102510006F3A09F445C0613B09F445C0623B09F4D8
:1025200045C0633B09F445C0643B09F445C0653BC5
:1025300009F445C0663B09F445C0673B09F445C052
:10254000683B09F445C0693B09F445C06D3B09F49B
:1025500045C06E3B09F445C06A3B09F445C080E0C4
:1025600090E044C082EE90E041C089EE90E03EC031
:102570008AEE90E03BC085EB90E038C086EB90E0BF
:1025800035C083EB90E032C084EB90E02FC087EB46
:1025900090E02CC08CEC90E029C08DEC90E026C03F
:1025A00083E891E023C08AE891E020C082E991E0CD
:1025B0001DC084E991E01AC081E292E017C083E275
:1025C00092E014C084E292E011C085E292E00EC075
:1025D00086E292E00BC087E292E008C08FE690E0CE
:1025E00005C080E790E002C08AE292E00C94D2102D
:1025F0000895882309F45BC0682F823879F40E941B
:10260000961081FF54C069E38091100190911101EF
:102610000E94261D0E94DB1B69E310C08338B1F4C1
:102620000E94961080FF43C063E580911001909155
:1026300011010E94261D0E94DB1B63E580911001A1
:10264000909111010E94311D0C94DB1B843879F4A8
:102650000E94961082FF2BC067E480911001909138
:1026600011010E94261D0E94DB1B67E4E7CF8CEF5F
:10267000860F813A18F380E2860F883048F467703D
:1026800081E001C0880F6A95EAF70E94981BDCCFB1
:102690008BE5860F833020F480E090E00C94BC1032
:1026A000685A673120F480E090E00C94D2100895CD
:1026B000CF93C82F0E94E211C93349F42FEF83EC66
:1026C00099E0215080409040E1F700C000008C2F3D
:1026D000CF910C94F912882321F00E94921B0C9444
:1026E000DB1B0895882321F00E94981B0C94DB1BB0
:1026F00008954F925F926F927F92BF92CF92DF9236
:10270000EF92FF920F931F93CF93DF937C01062FDD
:10271000C72FFC01158112951F70D281D1110E9423
:10272000AF1B0E94881B882379F0DD2369F080E2CB
:10273000800F883048F082E00E94261C0E94881B8F
:1027400091E0B82EB92601C0B12CCC2EC2948FE0F6
:10275000C822D12CF601E859FF4F0C94B1258C2FDB
:10276000807FCF70882311F0C295C07FDD2399F060
:10277000CC2309F481C180E2800F883010F0011170
:1027800004C08C2F0E94921B03C08C2F0E94A21B9E
:102790000E94DB1B71C1802F0E94F912CC2309F427
:1027A00090C180E2800F883010F0011104C08C2F9E
:1027B0000E94981B03C08C2F0E94A81B0E94DB1B49
:1027C00080C18C2F807FCF70803211F0C295C07F86
:1027D000002319F00130C9F022C0DD2371F011236C
:1027E00041F0113031F40E94C21B8C2B0E94C81B97
:1027F00068C10E94C21B8C2BF8C0112319F0113044
:1028000009F45FC10E94D11B18C0DD2321F01630EE
:1028100008F057C10EC0153008F053C10EC0DD23BB
:1028200051F0112331F0F701858180FF25C18F70B0
:1028300085838C2FDAC0111130C18C2FDCC08C2F16
:1028400086958695837090E0009719F0019761F066
:1028500038C1DD2321F0802F9C2F937002C080E0CF
:1028600090E00E94BC103DC1DD2321F0802F9C2F01
:10287000937002C080E090E00E94D21032C18C2F91
:10288000837009F04BC0D11128C1202F22952695C5
:102890002770220F220F602F6F70862F90E0A0E02C
:1028A000B0E02C013D01022E04C0440C551C661CF6
:1028B000771C0A94D2F704FF10C08FE090E0A0E0EC
:1028C000B0E004C0880F991FAA1FBB1F2A95D2F73A
:1028D00080959095A095B09503C080E090E0DC01D4
:1028E000C695C695C370D0E0BC01CD016429752999
:1028F00086299729C230D10559F0C330D10559F046
:10290000219719F00E94CB19E8C00E94B919E5C0BF
:102910000E94DD19E2C00E94B719DFC0DD2319F063
:102920008C2F817001C08695882309F4D6C0202F92
:10293000229526952770220F220F602F6F70862F09
:1029400090E0A0E0B0E02C013D01022E04C0440C58
:10295000551C661C771C0A94D2F704FF10C08FE048
:1029600090E0A0E0B0E004C0880F991FAA1FBB1F31
:102970002A95D2F780959095A095B09503C080E0F8
:1029800090E0DC01C695C695C370D0E0BC01CD01D6
:102990006429752986299729C230D10559F0C33099
:1029A000D10559F0219719F00E94911A96C00E9402
:1029B0007F1A93C00E94A31A90C00E94F2198DC082
:1029C000802F90E0FC01E05EF109E531F10508F0AF
:1029D0004FC0E858FF4F0C94B1250F708C2F8F71AA
:1029E000DD2331F00E94181A802F0E946B1369C0FA
:1029F0000E94391A802F0E94721363C0DD2341F0B8
:102A0000153008F05EC08C2F8F710E945E1A59C07D
:102A1000163008F056C0F7CFDD2339F08C2F8F71B8
:102A20000E94181A4EC0DD23C9F38C2F8F710E94AB
:102A3000391A47C0DD2329F08C2F8F710E94031AA9
:102A400040C00E94FE193DC0DD2349F0CF718C2F9C
:102A50000E94181A63E08C2F0E94111C32C081E082
:102A60000E94261C123068F182E00E94261C29C0B8
:102A7000DD2331F0112391F2802F0E94E21121C059
:102A8000112399F2093349F4FFEF23EC89E0F15067
:102A900020408040E1F700C00000802F0E94F91222
:102AA00010C04C2F4F70602FC7010E94D1030E94AD
:102AB0002A1917C04C2F4F70602FC7010E9454066F
:102AC00010C098E0C916D10441F05CF0FAE0CF1ACA
:102AD000D10822E0C216D10420F40E9496100E9470
:102AE0003704BB20F1F00E94841B80FD1AC0F7015F
:102AF00012820E947E1B0E94181AC7010E949F1515
:102B00000E947E1BDF91CF911F910F91FF90EF905C
:102B1000DF90CF90BF907F906F905F904F900C941C
:102B2000391ADF91CF911F910F91FF90EF90DF90B5
:102B3000CF90BF907F906F905F904F9008950F93CC
:102B40001F93CF93DF93EC01888199812B813C8186
:102B5000232BB9F09F3F11F48F3F99F0CE010E94D3
:102B60004904882371F0688179818A810E945B1B06
:102B70008C010E94B51A0E94B619B801CE010E94BC
:102B80007913DF91CF911F910F9108950E94AF1B90
:102B90000E94BF1B0E94DB1B80E090E00E94BC10E3
:102BA00080E090E00C94D21080911001909111017E
:102BB0000E943C1D0C94C6150E949F1B0C94D415BA
:102BC000E92FE295EF70F0E03297EE30F105B0F4C6
:102BD000E357FF4F0C94B125803F91F018F4803EED
:102BE00068F40EC0843F51F40BC0803E48F0813F32
:102BF00029F406C093FB882780F9089580E00895A2
:102C000081E008950E94501B0E94E0150895CF9323
:102C1000DF9300D000D01F92CDB7DEB70F900F909A
:102C20000F900F900F90DF91CF910895CF93DF9386
:102C300000D000D000D0CDB7DEB726960FB6F894FE
:102C4000DEBF0FBECDBFDF91CF9108951F93CF930D
:102C5000DF93C091780116E080917901C81799F04F
:102C6000D0E01C9FF0011D9FF00D1124E658FE4F8F
:102C70004081518162817381848195810E94161601
:102C80002196C770E9CFDF91CF911F9108954091B0
:102C9000AA015091AB016091AC017091AD0180919E
:102CA000AE019091AF010C9416168091AF01829500
:102CB0008F7009F054C08091AC01882309F44FC093
:102CC00080917801A09179016091AA017091AB0186
:102CD0004091AD015091AE01B6E08A1709F43FC0B2
:102CE00090E041155105C1F17F3F11F46F3FA1F113
:102CF000B89FF001B99FF00D1124E658FE4F2181D5
:102D000072132AC02081621327C02281211124C09E
:102D1000238134812417350710F421503109241BF5
:102D2000350B283C3105C0F42091AF012F70206194
:102D30002093AF0126E0289FF001299FF00D112478
:102D4000E158FE4F80818F70806180838AEA91E034
:102D50000E949F150C94261601968770BECF089589
:102D6000CF92DF92EF92FF920F931F93CF93DF9357
:102D7000CDB7DEB762970FB6F894DEBF0FBECDBFFA
:102D80008C0185E0F801DE011D9601900D928A9577
:102D9000E1F7D8014C9111965C91119712966C91C4
:102DA00012971396CD90DC9014973091AA017091F0
:102DB000AB018091AD019091AE01009709F46BC118
:102DC0007F3F19F43F3F09F466C1E090AC01EE206B
:102DD00009F4C0C02091AF01C816D90628F0F60149
:102DE000E81BF90BCF0104C0809590958C0D9D1DBB
:102DF000FF24F394883C910578F0F12C207F09F0B2
:102E0000C6C07C2DD98AC88A89890E9407168AEA99
:102E100091E00E949F15B1C0822F807F09F046C0CB
:102E2000751314C0341312C0611110C02F702061CB
:102E30002093AF010E9447168AEA91E00E949F15F5
:102E40008091AF01D80115968C932EC0CD2819F131
:102E50005F3F11F44F3FF9F0F62E61111CC08091D5
:102E600078012091790136E0821709F45AC090E088
:102E7000389FF001399FF00D1124E658FE4F718103
:102E8000571306C07081471303C07281711103C0CC
:102E900001968770E9CFF62E662309F427C1809149
:102EA000AF0181608093AF01F12C20C1751308C080
:102EB000341306C0611104C08091AF01D801C3C0B2
:102EC0004D875E878D859E856A8B0E9402166A8972
:102ED0008823E1F16623D1F12091AF01822F829501
:102EE0008F7090E0029774F08091AA019091AB01ED
:102EF00098878F831986DB86CA862C87CE01079632
:102F00000E949F1586E0F801AAEAB1E001900D92B7
:102F10008A95E1F70E9455160E944716FF24F39404
:102F2000E5C04D875E878D859E850E94501B292FA9
:102F300022952F7030E0223031050CF0CBC09F700D
:102F400009F0C5C0805E883008F4D0C0C8010E9476
:102F50009F15E4CFC816D90608F453C0F601E81B44
:102F6000F90BCF01883C910508F450C0F12C7C2D61
:102F7000D98AC88A89890E940716EAEAF1E086E0C0
:102F8000DF011D928A95E9F70E944716AFC07513BD
:102F900014C0341312C0611110C08091AF01F80148
:102FA0008583C8010E949F1586E0EAEAF1E0DF010F
:102FB0001D928A95E9F7FE2C99C04D875E878D8515
:102FC0009E856A8B0E9402166A89882309F4BECF07
:102FD000662309F4BBCF2091AF01822F82958F70B9
:102FE00090E002970CF48ECF8091AA019091AB01F2
:102FF0009A8389831B82DD82CC822E83CE01019647
:103000007FCF809590958C0D9D1DACCFF62E6623BD
:1030100009F49CCF75132EC034132CC02091AF013E
:1030200020FD1FC0822F82958F70D9F0D801159690
:103030002C9315978F3049F08F5F982F9295907F42
:10304000822F8F70892B15968C93C8010E949F1533
:1030500086E0F801AAEAB1E001900D928A95E1F7C5
:1030600093CF86E0F801AAEAB1E001900D928A952B
:10307000E1F73CC04D875E878D859E850E940216D4
:10308000811140CF8091AF0181608093AF01C80171
:103090000E949F152BC0662309F458CF4D875E8789
:1030A0008D859E850E940216F82E882309F44ECF46
:1030B00086E0F801AAEAB1E001900D928A95E1F765
:1030C0008AEA91E00E94DC110E9455165DCF8111C1
:1030D00039CF0CC0243031050CF038CF9F7009F483
:1030E00031CFF8019581907F09F02CCF8F2D62961A
:1030F0000FB6F894DEBF0FBECDBFDF91CF911F9109
:103100000F91FF90EF90DF90CF9008951F93CF9392
:10311000DF93CDB7DEB72C970FB6F894DEBF0FBEA6
:10312000CDBF4F83588769877A878B879C87CE016D
:1031300007960E94B016882369F08F8198852A85AA
:103140003B85232BF1F19F3F09F063C08F3F09F0CE
:1031500060C037C086E0FE013796DE01119601900F
:103160000D928A95E1F76F817885EA85FB85309726
:1031700041F17F3F11F46F3F21F12091790130E05F
:10318000C9010196877099274091780150E0841712
:10319000950709F447C069837A83FD83EC8396E041
:1031A000929FD001939FB00D1124A658BE4FFE01EF
:1031B000319601900D929A95E1F7809379010E94E2
:1031C000261616E080917801909179018917C1F156
:1031D000189FC001112486589E4F0E94B016882364
:1031E00079F1E09178011E9FF0011124E658FE4F1D
:1031F0004081518162817381848195810E9416167C
:103200008091780190E001968770992780937801EA
:10321000D9CF4F81588569857A858B859C850E9499
:103220001616CFCF0E94DC1510927901109278010A
:10323000EAEAF1E086E0DF011D928A95E9F7C1CF65
:103240002C960FB6F894DEBF0FBECDBFDF91CF91A5
:103250001F910895EF92FF920F931F93CF93DF93E7
:103260008C01892B09F46CC0F12CEE24E394E80165
:103270002196F8018491843740F4843008F051C0DD
:10328000813081F0823019F15BC0853709F444C088
:10329000A8F19CE7980F903708F052C08F770E94F2
:1032A000F91241C00E5F1F4FFE01C49180E28C0FE6
:1032B000883048F4C7708E2D01C0880FCA95EAF790
:1032C0000E94B21B14C08C2F0E94E2112DC00E5F11
:1032D0001F4FFE01C49180E28C0F883058F4C770F4
:1032E0008E2D01C0880FCA95EAF70E94B81B0E9474
:1032F000DB1B1AC08C2F0E94F91216C00E5F1F4FE5
:10330000FE01C491CC2381F08FE99FE00197F1F792
:1033100000C00000C150F6CF0E5F1F4FFE01F490B9
:1033200003C00E94E2118E018F2D882309F49FCFE4
:10333000EFE9FFE03197F1F700C000008150F5CFD1
:10334000DF91CF911F910F91FF90EF900895089515
:103350000C94A7190E94A8196093C3017093C4012B
:103360008093C5019093C6010C94C61508950C94E2
:10337000AA190F931F930091C3011091C4012091CA
:10338000C5013091C601602B712B822B932B1F91AD
:103390000F910C94AA190F931F930091C3011091E0
:1033A000C4012091C5013091C6016023712382239D
:1033B00093231F910F910C94AA190F931F930091BF
:1033C000C3011091C4012091C5013091C60160274D
:1033D0007127822793271F910F910C94AA190895A2
:1033E0000C94EF190E94F0196093BF017093C00113
:1033F0008093C1019093C2010C94C61560E070E007
:10340000CB010C94F2190F931F9341E050E060E060
:1034100070E08A019B0104C0000F111F221F331F9F
:103420008A95D2F7C901B8011F910F910C94F21936
:103430000F931F9341E050E060E070E004C0440F40
:10344000551F661F771F8A95D2F78091BF01909113
:10345000C001A091C101B091C2018A019B01082B5A
:10346000192B2A2B3B2BC901B8011F910F910C94EA
:10347000F2190F931F9341E050E060E070E004C048
:10348000440F551F661F771F8A95D2F740955095B8
:10349000609570958091BF019091C001A091C1018C
:1034A000B091C2018A019B01082319232A233B23DF
:1034B000C901B8011F910F910C94F2190F931F933A
:1034C00041E050E060E070E004C0440F551F661F0B
:1034D000771F8A95D2F78091BF019091C001A0918A
:1034E000C101B091C2018A019B01082719272A272F
:1034F0003B27C901B8011F910F910C94F2190F934A
:103500001F930091BF011091C0012091C101309122
:10351000C201602B712B822B932B1F910F910C9466
:10352000F2190F931F930091BF011091C0012091D8
:10353000C1013091C20160237123822393231F9123
:103540000F910C94F2190F931F930091BF011091EA
:10355000C0012091C1013091C201602771278227EB
:1035600093271F910F910C94F2190895990F990FB9
:10357000890FA82FA695A695A695877051E001C042
:10358000550F8A95EAF785E0A89FD001112420E025
:1035900030E070E0F901EA0FFB1FE055FE4F40817B
:1035A000CB01022E02C0969587950A94E2F78170AE
:1035B0009927819584278523842780832F5F3F4F18
:1035C0002530310539F70895990F990F890F682F24
:1035D000669566956695982F977085E0689FB0010F
:1035E000112440E050E080E0FA01E60FF71FE055BB
:1035F000FE4F208130E0092E02C0369527950A94AF
:10360000E2F721703327042E01C0220F0A94EAF753
:10361000822B4F5F5F4F4530510531F70895BF92C0
:10362000CF92DF92EF92FF920F931F93CF93DF938E
:103630008C01C090C301D090C401E090C501F0900E
:10364000C6018091BF019091C001A091C101B091CC
:10365000C201C82AD92AEA2AFB2ACFE1D0E0D70141
:10366000C6010C2E04C0B695A795979587950A9428
:10367000D2F780FF07C0BC2EB8018C2F0E947106C4
:10368000019719F4219758F7B12C8B2DDF91CF9129
:103690001F910F91FF90EF90DF90CF90BF90089512
:1036A000CF93DF93EC010E940F1BBE010E947106B5
:1036B000DF91CF9108951F93CF93DF93EB0190910A
:1036C0007701992321F0CB010E94501B13C088235E
:1036D00049F0CB010E940F1B182F682FCE010E94CA
:1036E000B61A04C0CB010E94E41A182FBE01812F24
:1036F0000E947106DF91CF911F9108958091C701BB
:1037000085958595859508958091C7018770089561
:103710009091C701977081E009F480E0089580914D
:10372000EB0108959091EB01892B8093EB010895B3
:1037300080959091EB0189238093EB01089510927D
:10374000EB0108959091EA01892B8093EA01089595
:1037500080959091EA0189238093EA01089510925F
:10376000EA0108959091E901892B8093E901089578
:1037700080959091E90189238093E9010895109241
:10378000E90108958091C801089508950C94C51B1E
:103790009091C801981721F08093C8010C94C61B22
:1037A00008958091C801882329F01092C80180E013
:1037B0000C94C61B0895E0911001F09111018091C5
:1037C000EB018083E0911001F091110190818091D3
:1037D000EA01892B8083E0911001F0911101908121
:1037E0008091E901892B80838091C801882381F031
:1037F000E0911001F09111019081892B80838091DB
:103800001001909111010E94C11C81110E94D11BD5
:1038100080911001909111010C94A21008950C94C4
:103820000E1C98E0899F90011124262B2093C7013C
:103830000E94181A8091C7018595859585950C94ED
:103840000F1C1092C70180E00C940F1C2091C7013F
:10385000809582238093C701982F977079F430E088
:10386000482F082E000C550B2417350739F0859585
:10387000859585950E94391A0C94211C08956FEF47
:103880007FEF80E090E00C94F62580E090E00E94CD
:10389000D22521E08D3E9E4F09F020E0822F089531
:1038A00082E090E00C94C42583E090E00C94C42561
:1038B00084E090E00C94C425682F84E090E00C94A0
:1038C000D825AB01BC018FE090E00C94EA25AB0158
:1038D000BC0183E190E00C94EA2560E070E0CB014C
:1038E0000C94671C60E070E0CB010E94611C0C949A
:1038F0006D1C6DEE7EEF80E090E00E94F62560E0AA
:1039000082E090E00E94D82560E083E090E00E9491
:10391000D8251092C3011092C4011092C5011092D3
:10392000C60160E084E090E00E94D82560E085E078
:1039300090E00E94D82560E086E090E00E94D825C3
:103940006FEF87E090E00E94D82540E050E0BA0198
:1039500088E090E00E94EA2560E08DE090E00E941F
:10396000D82540E050E0BA0188E190E00E94EA25C5
:1039700060E087E190E00E94D8250C94721C0C94C2
:10398000791CFC01329680911C01882331F08091D2
:10399000250287FF02C09EE101C096E080E09150C1
:1039A00028F021912223D9F38F5FF9CF08959C014C
:1039B000FC0132969FEF80E04191461789F09F3FCE
:1039C00019F4411101C0982F8F5F8630A9F79F3FEE
:1039D00039F0F901E90FF11D97FDFA956283089519
:1039E0000895FC01329608962081261301C01082AA
:1039F0003196E817F907C1F70895262F26952695E1
:103A000026952E3168F4FC01E20FF11D677021E06C
:103A100030E001C0220F6A95EAF78281282B2283C9
:103A20000895262F2695269526952E3170F4FC01B3
:103A3000E20FF11D677021E030E001C0220F6A95AE
:103A4000EAF72095828128232283089520911C0182
:103A5000222329F02091250227FD0C94FD1C0C94B3
:103A6000D71C20911C01222329F02091250227FD3B
:103A70000C94111D0C94F11C20911C01FC01329638
:103A8000222331F08091250287FF02C08EE101C020
:103A900086E0DF011D928A95E9F7089508950C9458
:103AA0004E1D0E944F1D80912B02843009F439C0B5
:103AB0001092ED0120E488E190E00FB6F894A8950B
:103AC000809360000FBE2093600080E00E94370466
:103AD0000E94110F8091EE0181110AC081E0809354
:103AE000EE018091130281708093EF010E943F0EDE
:103AF0000E944F1D83B7817F846083BF83B781603D
:103B000083BF7894889583B78E7F83BF0FB6F89470
:103B1000A895809160008861809360001092600099
:103B20000FBE089508950895CF930E94921D0E949C
:103B300018090E94931DC0E08C2F0E94C8088111B3
:103B400004C0CF5FC530C1F701C081E0CF910895B7
:103B500008950C94A81D0E94DC150E9496100E94E6
:103B600037041092EE018091EF0181110E94090F3C
:103B70000E94510E0C94A91D1F920F920FB60F9226
:103B800011248F939F93AF93BF938091ED01811187
:103B900013C08091210290912202A0912302B09142
:103BA00024024196A11DB11D80932102909322020F
:103BB000A0932302B0932402BF91AF919F918F9164
:103BC0000F900FBE0F901F90189582E084BD93E078
:103BD00095BD9AEF97BD80936E0008952FB7F89426
:103BE0008091210290912202A0912302B09124029F
:103BF0002FBF0895CF92DF92EF92FF920F931F9302
:103C00002FB7F89440912102509122026091230233
:103C1000709124022FBF6A017B01EE24FF248C01E6
:103C200020E030E0C016D106E206F30610F4415061
:103C300051099A01281B390BC9011F910F91FF905F
:103C4000EF90DF90CF90089578941F920F920FB667
:103C50000F9211248F939F93AF93BF938091210272
:103C600090912202A0912302B09124020196A11DFD
:103C7000B11D8093210290932202A0932302B0935E
:103C80002402BF91AF919F918F910F900FBE0F9023
:103C90001F90189581E08093E00080E28093D80027
:103CA0001092C9008FE19EE40197F1F700C0000077
:103CB00087E090EBDC018093340290933502A0936F
:103CC0003602B09337029CE088E10FB6F894A895CD
:103CD000809360000FBE90936000FFCF0E94451C50
:103CE000811102C00E94BF1C0E94501C8093EC01F5
:103CF0000E94581C90E090932602809325020E9417
:103D0000541C682F70E080E090E00C94B71980910B
:103D10001002089508950F931F93CF93DF9300D05F
:103D20001F92CDB7DEB78C010E94D020823011F0F7
:103D3000843021F584E089831B830A8382E08093A9
:103D4000E9008FEF9091E800815095FD06C095ED58
:103D50009A95F1F700008111F5CF8091E80085FF79
:103D60000DC040E050E063E070E0CE0101960E949B
:103D7000ED208091E8008E778093E8000F900F90FF
:103D80000F90DF91CF911F910F910895CF93DF9303
:103D900000D01F92CDB7DEB720912B02243031F531
:103DA00023E02983805891099B838A8382E0809352
:103DB000E9008FEF9091E800815095FD06C095EDE8
:103DC0009A95F1F700008111F5CF8091E80085FF09
:103DD0000DC040E050E063E070E0CE0101960E942B
:103DE000ED208091E8008E778093E8000F900F908F
:103DF0000F90DF91CF910895CF93DF93EC010E9454
:103E0000D020823011F08430D9F580911C018823B4
:103E100039F08091250287FF03C060E282E002C092
:103E200068E081E08093E9008FEF9091E800815095
:103E300095FD06C095ED9A95F1F700008111F5CF3B
:103E40008091E80085FF1CC080911C01811105C094
:103E500040E050E068E070E003C070E040E050E017
:103E6000CE010E94ED208091E8008E778093E800DB
:103E700080E2FE01A0EFB1E001900D928A95E1F79A
:103E8000DF91CF91089580912A02811109C00E948B
:103E900082220E94DF228091E20084608093E2000F
:103EA000089510922A020895089508950C94AB1D68
:103EB00042E061EC81E00E94FC2142E261EC82E0A0
:103EC0000C94FC2180912D02833009F460C030F401
:103ED000813071F0823009F499C008958A3009F474
:103EE00085C08B3009F46BC0893009F0A7C020C0B1
:103EF00080912C02813A09F0A1C08091E800877F6F
:103F00008093E8008091300290913102892B21F456
:103F100060E280EF91E003C060E080E090E070E05C
:103F20000E9438218091E8008B778093E800089503
:103F300080912C02813209F081C0809130029091F1
:103F40003102029708F07AC08091E800877F809361
:103F5000E8008091E80082FD05C080912B0281116C
:103F6000F8CF6CC02091F3008091F20090E0922B8A
:103F7000029729F48091F1008B7F813021F48091A8
:103F8000F100809310028091E8008B7753C08091FC
:103F90002C02813A09F052C0809130029091310296
:103FA000892B09F04BC08091E800877F8093E8005F
:103FB0008091E80080FFFCCF80911C0136C0809189
:103FC0002C028132D9F58091300290913102892BF7
:103FD000A9F58091E800877F8093E8000E94312254
:103FE00080912E0280931C010C94DC1580912C0290
:103FF000813221F58091E800877F8093E8000E945C
:10400000312280912F0280931102089580912C0219
:10401000813AA1F48091E800877F8093E800809145
:10402000E80080FFFCCF809111028093F100809125
:10403000E8008E778093E8000C943122089584B7CD
:10404000877F84BF0FB6F894A8958091600088613F
:1040500080936000109260000FBE80E88093610042
:10406000109261000E94F6100E9482220E94DF22BC
:104070008091E20084608093E20078940E946E2533
:104080000E94FE1082E191E00E94911080912B022B
:10409000853069F40E94511D809129028823B1F373
:1040A0000E94941D882391F30E94D720EFCF0E9495
:1040B00008110E94140FEACF0C945E20292F332799
:1040C00023303105C9F064F42130310581F022300C
:1040D000310509F04CC08BE390E029E036E04BC09D
:1040E0002132310521F12232310589F140C082E1CE
:1040F00090E024E436E03FC099278130910571F0CB
:104100002CF4892BA1F5E5E0F6E00DC08230910595
:1041100041F0039761F5E1EEF5E005C0E5EFF5E06C
:1041200002C0E7EEF5E0849190E09F0124C06115A4
:10413000710541F061307105D1F489E090E024E32C
:1041400036E019C089E090E02BE136E014C061153B
:10415000710541F06130710551F481E790E026E589
:1041600036E009C080E490E027EC36E004C080E04F
:1041700090E020E030E0FA01318320830895089533
:10418000CF93C82F0E94BF20C0931202CF910895F1
:1041900080912B02843011F081E0089582E008952F
:1041A00080911202811102C00C94C820089580E110
:1041B00089BD82E189BD09B400FEFDCF8091D800A0
:1041C0008F7D8093D8008091E00082608093E00032
:1041D0008091E00081FDFCCF0895CF92DF92EF92B5
:1041E000FF920F931F93CF93DF93EC018B016A0132
:1041F0000E945022811133C0C114D10439F0F6015C
:1042000080819181081B190BC80FD91FE12CF12C5B
:104210000115110519F18091E80085FD16C0809106
:10422000E8008E778093E800C114D10449F0F601CC
:1042300080819181E80EF91EF182E08285E00FC055
:104240000E945022882321F30AC089918093F100B3
:1042500001501109FFEFEF1AFF0ADACF80E0DF917A
:10426000CF911F910F91FF90EF90DF90CF90089525
:1042700020913202309133022617370748F061153A
:10428000710539F42091E8002E772093E80001C0F1
:10429000B90140E061157105A9F120912B0222239B
:1042A00009F443C0253009F442C02091E80023FD01
:1042B00040C02091E80022FD32C02091E80020FF9C
:1042C000E9CF4091F3002091F20030E0342BFC0163
:1042D000CF016115710559F02830310540F4819105
:1042E0008093F100615071092F5F3F4FF1CF41E0A2
:1042F0002830310509F040E02091E8002E77209326
:10430000E800C8CF4111C9CF0AC080912B02882391
:1043100061F0853061F08091E80083FD0AC08091F2
:10432000E80082FFF2CF80E0089582E0089583E004
:10433000089581E0089520913202309133022617CA
:10434000370748F06115710539F42091E8002E77A0
:104350002093E80001C0B901FC0120E0611571055E
:1043600091F180912B02882309F440C0853009F433
:104370003FC08091E80083FD3DC08091E80082FD50
:104380002FC08091E80080FFE9CF2091F300809159
:10439000F20090E0922B6115710559F0883091057B
:1043A00040F424912093F1003196615071090196F7
:1043B000F2CF21E0089709F020E08091E8008E77A5
:1043C0008093E800CBCF2111CCCF0AC080912B0283
:1043D000882361F0853061F08091E80083FD0AC098
:1043E0008091E80082FFF2CF80E0089582E0089596
:1043F00083E0089581E00895982F973058F59093C1
:10440000E900981739F07091EC002091ED0050917F
:10441000F00003C0242F762F50E021FF19C0309107
:10442000EB003E7F3093EB003091ED003D7F309309
:10443000ED003091EB0031603093EB007093EC00B5
:104440002093ED005093F0002091EE0027FF07C06D
:104450009F5FD3CF8F708093E90081E0089580E063
:10446000089580912C0287FF11C08091E80082FDA1
:1044700005C080912B028111F8CF11C08091E80016
:104480008B770BC080912B02882349F08091E80044
:1044900080FFF8CF8091E8008E778093E800089540
:1044A0002091E4003091E50095E64091EC00842FE6
:1044B000817040FF22C08091E80080FD1CC0809187
:1044C0002B02882391F0853091F08091EB0085FDDF
:1044D00010C04091E4005091E5004217530729F3C2
:1044E0009A01915011F784E0089582E0089583E0E5
:1044F000089581E0089580E008954091E80042FF2A
:10450000DECF08950E94F0220E94F822E0EEF0E053
:10451000808181608083E8EDF0E080818F77808307
:1045200019BCA7EDB0E08C918E7F8C9380818F7E3B
:10453000808310922A0208950F931F93CF93DF93E5
:104540000E94F0220E94F822C8EDD0E088818F7787
:10455000888388818068888388818F7D888319BC5F
:1045600010922B0210922702109229021092280218
:1045700000EE10E0F80180818B7F8083888181606C
:10458000888342E060E080E00E94FC21E1EEF0E000
:1045900080818E7F8083E2EEF0E080818160808385
:1045A000808188608083F80180818E7F808388810C
:1045B00080618883DF91CF911F910F910895E8ED7D
:1045C000F0E080818F7E8083E7EDF0E08081816084
:1045D000808384E082BF81E080932A020C949C2235
:1045E000E8EDF0E080818E7F80831092E2000895F4
:1045F0001092DA001092E10008951F920F920FB608
:104600000F9211242F933F934F935F936F937F9358
:104610008F939F93AF93BF93EF93FF938091E100AC
:1046200082FF0BC08091E20082FF07C08091E10011
:104630008B7F8093E1000E946D258091DA0080FFDE
:104640001FC08091D80080FF1BC08091DA008E7F50
:104650008093DA008091D90080FF0DC080E189BD90
:1046600082E189BD09B400FEFDCF81E080932B0279
:104670000E94431F05C019BC10922B020E94511FBB
:104680008091E10080FF19C08091E20080FF15C099
:104690008091E2008E7F8093E2008091E200806151
:1046A0008093E2008091D80080628093D80019BC8A
:1046B00085E080932B020E94551F8091E10084FFCA
:1046C00030C08091E20084FF2CC080E189BD82E18E
:1046D00089BD09B400FEFDCF8091D8008F7D809305
:1046E000D8008091E1008F7E8093E1008091E2000C
:1046F0008F7E8093E2008091E20081608093E200EF
:1047000080912702882311F084E007C08091E300A4
:1047100087FD02C081E001C083E080932B020E94EC
:10472000561F8091E10083FF29C08091E20083FF42
:1047300025C08091E100877F8093E10082E0809333
:104740002B02109227028091E1008E7F8093E1007E
:104750008091E2008E7F8093E2008091E200806190
:104760008093E20042E060E080E00E94FC218091C2
:10477000F00088608093F0000E94541FFF91EF9139
:10478000BF91AF919F918F917F916F915F914F9169
:104790003F912F910F900FBE0F901F9018951F9271
:1047A0000F920FB60F9211242F933F934F935F9365
:1047B0006F937F938F939F93AF93BF93CF93DF9329
:1047C000EF93FF93C091E900CF708091EC00D82F58
:1047D000D17080FDD0E81092E9008091F000877FD1
:1047E0008093F00078940E9413241092E900809145
:1047F000F00088608093F000CD2BCF70C093E9006B
:10480000FF91EF91DF91CF91BF91AF919F918F91E8
:104810007F916F915F914F913F912F910F900FBEBC
:104820000F901F9018951F93CF93DF93CDB7DEB7EE
:10483000AA970FB6F894DEBF0FBECDBFECE2F2E050
:1048400088E08E0F9091F10091938E13FBCF0E9420
:10485000621F8091E80083FF28C180912C02909113
:104860002D02492F50E04A30510508F01EC1FA01CF
:10487000E556FF4F0C94B125803821F0823809F0BD
:1048800014C108C08091280290912902992389F0CF
:1048900082600FC0809130028F70873008F005C1B0
:1048A0008093E9008091EB0085FB882780F91092C6
:1048B000E9009091E800977F9093E8008093F100E1
:1048C0001092F100D0C0282F2D7F09F0EEC0882370
:1048D00019F0823061F0E9C080912E02813009F038
:1048E000E4C0933009F080E0809329022EC08091CB
:1048F0002E0281112AC0809130028F702FEF280F75
:10490000263008F0D2C08093E9002091EB0020FF10
:104910001CC0933021F48091EB00806214C0909110
:10492000EB0090619093EB0021E030E0A90102C020
:10493000440F551F8A95E2F74093EA001092EA006F
:104940008091EB0088608093EB001092E9008091E9
:10495000E800877F8093E8000E943122A6C0811181
:10496000A4C010912E021F778091E3008078812BE4
:104970008093E3008091E800877F8093E8000E94A5
:1049800031228091E80080FFFCCF8091E3008068B5
:104990008093E300111102C082E001C083E08093A4
:1049A0002B0283C08058823008F07FC080912E0295
:1049B00090912F028C3D53E0950779F583E08A832F
:1049C0008AE289834FB7F894DE01139620E03EE037
:1049D00051E2E32FF0E050935700E49120FF03C031
:1049E000E295EF703F5FEF708E2F90E0EA3010F0AD
:1049F000C79601C0C0968D939D932F5F243149F7D0
:104A00004FBF8091E800877F8093E8006AE270E002
:104A1000CE0101960E94382115C06091300270913C
:104A20003102AE014F5F5F4F0E945C20BC01892BB9
:104A3000E1F19091E800977F9093E80089819A8155
:104A40000E949B218091E8008B778093E8002DC025
:104A5000803859F58091E800877F8093E800809145
:104A600027028093F1008091E8008E7773CF811147
:104A70001CC090912E029230C0F48091E800877F94
:104A80008093E800909327020E94312280912702B0
:104A9000811106C08091E30087FD02C081E001C062
:104AA00084E080932B020E94581F8091E80083FFCE
:104AB0000AC08091E800877F8093E8008091EB0036
:104AC00080628093EB00AA960FB6F894DEBF0FBE0B
:104AD000CDBFDF91CF911F9108950895CF9380911D
:104AE0002B028823A1F0C091E900CF709091EC00D7
:104AF000892F817090FD80E8C82B1092E900809189
:104B0000E80083FD0E941324CF70C093E900CF9189
:104B10000895AA1BBB1B51E107C0AA1FBB1FA61704
:104B2000B70710F0A61BB70B881F991F5A95A9F756
:104B300080959095BC01CD01089597FB072E16F442
:104B4000009407D077FD09D00E94892507FC05D085
:104B50003EF4909581959F4F0895709561957F4F94
:104B60000895EE0FFF1F0590F491E02D0994FC01CC
:104B70004150504030F001900616D1F73197CF01E7
:104B80000895882799270895F999FECF92BD81BD90
:104B9000F89A992780B50895A6E1B0E044E050E086
:104BA0000C94FE25A8E1B0E042E050E00C94FE2514
:104BB000262FF999FECF92BD81BDF89A019700B4D6
:104BC000021639F01FBA20BD0FB6F894FA9AF99A76
:104BD0000FBE08950396272F0E94D9250E94D8253D
:104BE000252F0E94D925242F0C94D9250196272FF3
:104BF0000E94D9250C94D825DC01CB01FC01F99940
:104C0000FECF06C0F2BDE1BDF89A319600B40D9218
:0C4C100041505040B8F70895F894FFCFD1
:104C1C00010203030301191A1B1C1D1E1F20212254
:104C2C00C901871EFC1E8A1EC61E8B1E01F4F5943C
:104C3C00903134F6363200010202020206060609F1
:104C4C0009090909090F0F0F0F0F0F151515181961
:0C4C5C0019191919191919191923240024
:00000001FF
