:100000000C9426030C946D030C946D030C946D03F7
:100010000C946D030C946D030C946D030C946D03A0
:100020000C946D030C946D030C94351D0C94711C91
:100030000C9400210C946D030C946D030C946D03CF
:100040000C946D030C946D030C946D030C946D0370
:100050000C946D030C94A9200C946D030C946D0307
:100060000C946D030C946D030C946D030C946D0350
:100070000C946D030C946D030C946D030C946D0340
:100080000C946D030C946D030C946D030C946D0330
:100090000C946D030C946D030C946D030C946D0320
:1000A0000C946D030C946D030C946D03FB0FFE0F09
:1000B00025103210391059105C109E10BF105811C5
:1000C0006211CA10CC10D110F410141117111A11AA
:1000D0003B11CF1406150B15101515151A151F1504
:1000E000241529152E1533154C154F155215551578
:1000F00058155B155E1561157815FC15FC1536163F
:1001000036168916A5166E186E18E716C517D61777
:10011000D617791AA01A531CA01A531CEC1A0F1BDD
:10012000531C101C201CE323E323F623F623EC23AB
:10013000F623F623F623E323E323F123F623F62322
:10014000F12300010101010101010101020202028A
:100150000202020202030303030303030304040471
:10016000040404040505050505060606060607073A
:1001700007070708080808090909090A0A0A0B0BF2
:100180000B0C0C0C0D0D0D0E0E0E0F0F0F10101191
:100190001111121213131414151516161717181817
:1001A00019191A1A1B1B1C1D1D1E1E1F202021227F
:1001B00022232424252626272829292A2B2C2D2DC5
:1001C0002E2F30313232333435363738393A3B3CE2
:1001D0003D3E3F404142434445464748494A4C4DD5
:1001E0004E4F50515354555658595A5B5D5E5F619E
:1001F0006264656668696B6C6D6F70727375777831
:100200007A7B7D7E8082838587888A8C8E8F91938E
:100210009596989A9C9EA0A2A3A5A7A9ABADAFB1B5
:10022000B3B5B7BABCBEC0C2C4C6C9CBCDCFD1D49A
:10023000D6D8DBDDDFE2E4E7E9EBEEF0F3F5F8FA40
:10024000FDFFFFAA7F55402223252628292A2C2D91
:100250002F3032333536383A3B3D3E4042434547F6
:10026000494A4C4E5051535557595A5C5E6062642E
:100270006668696B6D6F71737577797B7D7F81833C
:100280008587898A8C8E90929496989A9C9E9FA13D
:10029000A3A5A7A8AAACAEAFB1B3B4B6B8B9BBBC5E
:1002A000BEBFC1C2C3C5C6C7C9CACBCCCDCED0D1D3
:1002B000D2D2D3D4D5D6D7D7D8D9D9DADADBDBDBCB
:1002C000DCDCDCDCDCDDDDDDDDDCDCDCDCDCDBDB6C
:1002D000DBDADAD9D9D8D7D7D6D5D4D3D2D2D1D0C0
:1002E000CECDCCCBCAC9C7C6C5C3C2C1BFBEBCBBBD
:1002F000B9B8B6B4B3B1AFAEACAAA8A7A5A3A19F35
:100300009E9C9A98969492908E8C8A8987858381F8
:100310007F7D7B79777573716F6D6B6968666462D9
:10032000605E5C5A5957555351504E4C4A494745A7
:100330004342403E3D3B3A3836353332302F2D2C48
:100340002A29282625232253005400550056005FF1
:10035000006000610057005C005D005E002A0059EB
:10036000005A005B006700620046006341580001CC
:1003700000C55CC65CCA5C0100A900C25CC95CAC7B
:1003800000A800AB0001000100AA0001000100006C
:100390005C01000100C35C010001000100010001DB
:1003A0000001000100010001000100010001000145
:1003B0000001000100010001000100010001000135
:1003C0000001000100010001000100010001000125
:1003D0000001000100010001000100010001000115
:1003E0000001000100010000047F3F1F643214641B
:1003F0003214783C1E1E140A0500000000000000A4
:10040000000000000000000000000000007E0F005F
:10041000D4FFFFFFC70000007800000000000000CC
:10042000002A2B280000000000000000000000004F
:100430000000000029000000002C1E34202122248E
:10044000342627252E362D3738271E1F202122231C
:100450002425263333362E37381F040506070809AE
:100460000A0B0C0D0E0F1011121314151617181974
:100470001A1B1C1D2F3130232D35040506070809D2
:100480000A0B0C0D0E0F1011121314151617181954
:100490001A1B1C1D2F3130354C05010902A10185A5
:1004A000020901A100050919012905150025019579
:1004B0000575018102950175038101050109300966
:1004C000311581257F95027508810609381581252A
:1004D0007F950175088106050C0A38021581257F74
:1004E000950175088106C0C005010980A101850339
:1004F00019012AB700150126B70095017510810072
:10050000C0050C0901A101850419012AA0021501E9
:1005100026A002950175108100C005010906A10100
:100520008505050719E029E71500250195087501DE
:1005300081020507190029EF1500250195F07501C5
:10054000810205081901290595057501910295019A
:1005500075039101C00660FF0961A10109621500E0
:1005600026FF009520750881020963150026FF000B
:10057000952075089102C005010906A1010507191A
:10058000E029E7150025019508750181029501759F
:100590000881010507190029FF150026FF009506AF
:1005A0007508810005081901290595057501910255
:1005B000950175039101C009025B00030100A0FAD7
:1005C00009040000010301010009211101000122B9
:1005D00040000705810308000A0904010002030026
:1005E00000000921110100012222000705820320D9
:1005F00000010705030320000109040200010300B4
:10060000000009211101000122BC0007058403201C
:10061000000A120110010000000858504554011052
:10062000010203010403300000000C0354004500E4
:100630004E004B00490000000E0350006900780096
:100640006C007500700000000403090411241FBE33
:10065000CFEFDAE0DEBFCDBF04B603FE27C0809146
:100660007A0290917B02A0917C02B0917D0287304A
:10067000904BA740B04BD1F410927A0210927B02BB
:1006800010927C0210927D0214BE84B7877F84BFD3
:100690000FB6F894A89580916000886180936000FF
:1006A000109260000FBEE0E0F8E3099511E0A0E0D1
:1006B000B1E0E4EAFFE402C005900D92A638B1076C
:1006C000D9F722E0A6E8B1E001C01D92AA37B2072F
:1006D000E1F70E943F0C0C94D0270C940000089581
:1006E000BF92CF92DF92EF92FF920F931F93CF931F
:1006F000DF93E82EF62EE901E42FF0E0611106C049
:10070000EE5BFE4F8491B82EE82F71C0262F30E0AB
:10071000EE5BFE4FE491FE2FCE2ED12C46E0849F5F
:10072000C00111240FEF10E0B8010E9482274BEAAC
:100730004603C001479F900D11248E0D911D8E0D13
:10074000911D982F990F890FD801A21BB30BAC9D57
:10075000A001AD9D500DBC9D500D1124B52EF89EED
:10076000D0011124AB2FBB277801EA1AFB0AEC9CBD
:10077000D001ED9CB00DFC9CB00D11247801E81A5D
:10078000F108E29EC001E39E900DF29E900D1124AF
:10079000892F9927081B190B0C9D90010D9D300D79
:1007A0001C9D300D1124832F6230710591F048F4A7
:1007B00061157105E1F061307105B9F48E2FEB2FF1
:1007C00016C06430710569F040F06630710579F04B
:1007D0000CC08E2FE52FB32E0AC0E52FBF2E8B2F16
:1007E00006C0852FBE2EE32F02C0852FBB2EE983C6
:1007F0008883BA82DF91CF911F910F91FF90EF9084
:10080000DF90CF90BF9008959091A00192FF0DC00E
:10081000282F2871283019F4877F846006C0282F7C
:100820002471243011F48B7F886093FF0DC0282F32
:100830002871283119F4877E846106C0282F24711D
:10084000243111F48B7E88612091A10120FF0DC01D
:10085000382F3871383019F4877F816006C0382FFF
:100860003171313011F48E7F886021FF0DC0282F47
:100870002871283119F4877E816106C0282F2171E3
:10088000213111F48E7E886194FD877E08951F9337
:10089000CF93DF93CDB7DEB767970FB6F894DEBF7F
:1008A0000FBECDBF4B8B5C8B6D8B7E8B8F8B86E0B1
:1008B0009E01235F3F4FD901E82F1D92EA95E9F78A
:1008C00095E0FE017396D90101900D929A95E1F79A
:1008D000F901DE01179601900D928A95E1F7CE019C
:1008E00007960E94FA2381113EC086E0FE013796EA
:1008F000DE01119601900D928A95E1F7FF81E8855E
:100900006A857B856115710531F0EF3F31F481E037
:10091000FF3F19F403C081E001C080E080FD23C0E7
:1009200020912F0230E0C9010196877099274091EC
:10093000600250E08417950779F1F983EA837D839B
:100940006C8396E0929FD001939FB00D1124A05D1F
:10095000BD4FFE01319601900D929A95E1F780937B
:100960002F020E945B2316E08091600290912F027B
:100970008917F9F0189FC0011124805D9D4F0E94D6
:10098000FA238823B1F08091600290E0019687708D
:10099000992780936002E8CF0E94C42510922F020D
:1009A00010926002E9E2F2E086E0DF011D928A9592
:1009B000E9F767960FB6F894DEBF0FBECDBFDF91A3
:1009C000CF911F9108952091990130919A01281794
:1009D000390771F090939A0180939901E091A301F6
:1009E000F091A401309721F00084F185E02D099465
:1009F000089520919701309198012817390771F0D7
:100A00009093980180939701E091A301F091A40144
:100A1000309721F00680F781E02D09940895E09148
:100A2000A301F091A401309721F00190F081E02D15
:100A3000099480E008950F931F93CF93DF93C62FFF
:100A4000D42F122FFC0182818823C9F06093CB013F
:100A50000E94DE20909396018093950180E28C0F96
:100A6000883008F057C0C77081E001C0880FCA9570
:100A7000EAF7DF91CF911F910F910C94E4258091BB
:100A8000CB01681330C080919501909196010E942E
:100A9000CF20883C910538F500E20D0FCD17B9F055
:100AA00080E28C0F883040F4C77081E001C0880F6D
:100AB000CA95EAF70E94D925083028F581E09D2FD4
:100AC000977001C0880F9A95EAF70E94E425812F5C
:100AD0000E9419270830F0F4D77081E001C0880F18
:100AE000DA95EAF70AC080E28C0F883098F4C77074
:100AF00081E001C0880FCA95EAF7DF91CF911F917D
:100B00000F910C94D925812FDF91CF911F910F91D7
:100B10000C941927DF91CF911F910F910895CF93D6
:100B2000DF93C6ECD0E060E0CE010E944027219622
:100B3000C11584E0D807B9F7DF91CF910895CF921E
:100B4000DF92EF92FF920F931F93CF93DF93C0E05A
:100B5000D0E08E01085D1F4F6E0188E0C80ED11CE9
:100B6000FE01E95BFC4FE590F4906F2DCE01869677
:100B70000E9440276E2DCE0187960E944027229624
:100B8000CC15DD0569F70C171D0731F7E801003AB0
:100B90001105F9F6DF91CF911F910F91FF90EF9022
:100BA000DF90CF9008950F931F93CF93DF93C42FBF
:100BB000D0E0CC0FDD1F28E0629FC00DD11D1124B5
:100BC00038E2839FC00DD11D1124CE0186960E946C
:100BD0002C27082F10E0102F0027CE0187960E94A7
:100BE0002C279801282BC901DF91CF911F910F91DC
:100BF0000895462F843038F4753028F4643018F4A2
:100C0000672F0C94D30580E090E00895CF93C82F10
:100C1000811102C06FEF01C060E282E290E00E94A9
:100C20004027C11102C06FEF01C065E083E290E090
:100C30000E944027C11102C06FEF01C063E184E24E
:100C400090E0CF910C944027882311F0FA0101C065
:100C5000FB0109946091D001669570E04BE050E093
:100C600080E091E00E94C327892B19F481E08093F2
:100C7000C1010E94DE209093A7018093A6010895F0
:100C80008091D00180FF0AC0519A8BB18D7F9BB1BA
:100C900092602FB7F894ECE8F1E013C010928D0148
:100CA00010928C0110928E011092900110928F017F
:100CB000109291011092930110929201109294015E
:100CC000E3CF31E0E539F30789F0319148E09BB992
:100CD000000000C037FF8BB9330F000000C000C018
:100CE00000C08BB900C04A9591F7EBCF2FBF87ECBE
:100CF00090E00197F1F700C000000895EF92FF9295
:100D00000F931F93CF93DF938C01CCE8D1E0E12CBC
:100D1000F12CF8018481E114F10419F4882339F0ED
:100D200002C0811104C09E014091D30102C09E0106
:100D300040E06091D2018091D1010E947003FFEFE9
:100D4000EF1AFF0A239683E0E816F10411F70E94D8
:100D50004006F801848190E0019681709927848390
:100D6000DF91CF911F910F91FF90EF900895EF9237
:100D7000FF920F931F93CF93DF93EC018C819D81A2
:100D80000196817099279D838C838CE8E82E81E001
:100D9000F82E10E005E5212F26958C819D81820F8C
:100DA000911D817097014091D3016091D201809F84
:100DB000802D11240E9470031F5F83E0E80EF11C58
:100DC000133049F7DF91CF911F910F91FF90EF9072
:100DD0000C9440060F931F93CF93DF9310928D01D5
:100DE00010928C0110928E011092900110928F013E
:100DF000109291011092930110929201109294011D
:100E0000CCE8D1E000E010E080918A01082E000CCF
:100E1000990B0817190794F080910C01082E000C0B
:100E2000990B8017910754F09E014091D301609176
:100E3000D2018091D1010E94700303C019821882EF
:100E40001A820F5F1F4F239603301105E9F60E94A7
:100E5000400680910B0190918A01980F90938A012E
:100E600020910C01280F20930C01121614F49230DB
:100E70001CF0819580930B01DF91CF911F910F9111
:100E80000895BF92CF92DF92EF92FF920F931F933C
:100E9000CF93DF93FC01828180FF03C0DD24DA94CD
:100EA00002C0DD24D3940CE811E0C0E0D0E023E0E0
:100EB000B22EF80111821082128294E0E92EF12CF8
:100EC000C12C809189018C0D84302CF06B2D0E94F7
:100ED0007427892F02C087FD8D5F082E000C990BA7
:100EE000C817D90791F48091D3018E9DA0018F9DE1
:100EF000500D11245595479555954795980160914A
:100F0000D2018091D1010E947003CD0CF1E0EF1A63
:100F1000F108B9F621960D5F1F4FC330D10549F690
:100F20000E9440068091890191E0D91206C081118A
:100F300002C082E007C0815005C090E00196BE016A
:100F40000E94962780938901DF91CF911F910F9185
:100F5000FF90EF90DF90CF90BF900895EF92FF92B7
:100F60001F93CF93DF93EC018CE8E82E81E0F82EFD
:100F700010E08C8197014091D3016091D201810FE3
:100F80000E9470031B5A83E0E80EF11C1F3F89F793
:100F90000E9440069A818C8190FF02C08F5F01C041
:100FA00081508C83DF91CF911F91FF90EF90089536
:100FB0009091D00190FF14C080938D0160938C01BB
:100FC00040938E018093900160938F014093910133
:100FD0008093930160939201409394010C94400696
:100FE00008950F931F93CF93DF9300D01F92CDB737
:100FF000DEB78C0180918B0181110AC09E012F5FA9
:101000003F4F4FEF6FEF0E9470038A8180938B01F7
:10101000F8018481813051F028F0823061F44091F0
:101020008B010AC080918B0140E007C060918B0169
:1010300040E080E003C040E080E060E00E94D8072C
:10104000F801848190E0019663E070E00E949627A9
:1010500084830F900F900F90DF91CF911F910F918C
:101060000895CF93DF9300D01F92CDB7DEB7909154
:10107000D00190FF0AC09E012F5F3F4F0E94700376
:101080004B8169818A810E94D8070F900F900F9041
:10109000DF91CF910895CF93DF93EC01E0EDF1E084
:1010A000438162818C810E9431088C818F5F8C83A7
:1010B000DF91CF910895CF93DF93EC01EC81F0E0C5
:1010C000E95BFD4F4491E0EDF1E0628181810E9496
:1010D00031088C818F5F8C83DF91CF91089580914F
:1010E000D001282F269530E02115310519F48170A3
:1010F000826005C02532310524F0817088648093B8
:10110000D0010895CF92DF92EF92FF926B017C01A4
:101110000E946F08B701A60188E090E0FF90EF9071
:10112000DF90CF900C9452275F926F927F928F92B4
:101130009F92AF92BF92CF92DF92EF92FF920F9366
:101140001F93CF93DF9300D01F92CDB7DEB7182F38
:10115000762E042F622E9091D00190FF6DC0E92F62
:10116000E695AE2FB0E0A85EBE4F8C918093C00193
:101170009E7F923061F49E012F5F3F4F812F0E942E
:1011800070034B8169818A810E94D80743C08230F5
:1011900019F40091D3013EC0863019F41091D101A9
:1011A00039C08930D9F38931A9F5E9518E2F817081
:1011B000582EE695F0E0EE5BFD4FA590B4908CE8DC
:1011C000C82E81E0D82EE12CF12CBB2493E0892E8F
:1011D000912CAE9CC001AF9C900DBE9C900D112433
:1011E000B4010E948227812F511002C0860F01C0D6
:1011F000861B9601402F672D0E9470038FEFE81A1F
:10120000F80A83E0C80ED11C83E0E816F10409F760
:101210000E9440061093D1017092D2010093D30135
:10122000662051F06091D0017091D1018091D2017E
:101230009091D3010E9482080F900F900F90DF9140
:10124000CF911F910F91FF90EF90DF90CF90BF90C3
:10125000AF909F908F907F906F905F900895E0ED9A
:10126000F1E043812AE0421B08F440E021E0628182
:1012700081810C949408E0EDF1E043812AE0420F73
:1012800008F44FEF21E0628181810C949408E0ED35
:10129000F1E062812AE0621B08F460E021E0438112
:1012A00081810C949408E0EDF1E062812AE0620F04
:1012B00008F46FEF21E0438181810C949408E0ED04
:1012C000F1E0818121E0438162818A500C9494088D
:1012D000E0EDF1E0818121E043816281865F0C9441
:1012E00094088091D401882319F081508093D4010F
:1012F0006091D0017091D1018091D2019091D30180
:101300000C9482088091D401833018F48F5F80930D
:10131000D4016091D0017091D1018091D20190915E
:10132000D3010C9482089091D00190FF36C0917047
:10133000811102C0926006C0853210F0986402C02C
:10134000880F982B9093D001662351F06091D001C3
:101350007091D1018091D2019091D3010E948208B5
:101360006091D001669570E04BE050E080E091E044
:101370000E94C327892B19F01092C10102C00E945C
:101380002A0681E08093A90120E04091D301609179
:10139000D2018091D1010C94940808958091D001DC
:1013A0008695815009F484E261E00C949309809160
:1013B000D00186958F5F853208F081E061E00C9462
:1013C00093099091D00190FF04C09695981740F032
:1013D00003C0811105C090E0961710F40C94D70952
:1013E00061E00C949309E0EDF1E083E080831182E9
:1013F0008FEF8283838314826081718182819381E4
:101400000C9482085F926F927F928F929F92AF921C
:10141000BF92CF92DF92EF92FF920F931F93CF93E1
:10142000DF936DE371E0ABE9B1E0612C01E010E026
:101430006D019C901C92EB018991BE01E82FE29511
:10144000EF70F0E091A18F70980101C0220F8A9592
:10145000EAF7892F822B81A382A1522E50948521F5
:1014600082A3D0EADA95F1F782E4E82E81E0F82E43
:1014700040E050E0E70189907E01882D82958F70D1
:1014800090E0EC01A8A07C90B12C982D9F7002C038
:10149000B594A7949A95E2F7A0FC08C0902F042E6B
:1014A00001C0990F0A94EAF7892F01C080E08729CB
:1014B0008C934F5F5F4F44305105E1F681A1D52DEC
:1014C000D823D1A382A1282B22A3119681E0F60173
:1014D0009081991101C080E0682AF1E0A03ABF072D
:1014E00009F0A6CF662049F081E0809388010E9430
:1014F000DE20909387018093860180918801882364
:10150000F1F080918601909187010E94CF2006978B
:10151000B0F080919B018093C20180919C018093E7
:10152000C30180919D018093C40180919E018093AD
:10153000C50180919F018093C60110928801862D7C
:10154000DF91CF911F910F91FF90EF90DF90CF909F
:10155000BF90AF909F908F907F906F905F90089515
:10156000CF93DF930E94F905EC018238910559F180
:10157000A0F48133910509F473C040F489329105D8
:1015800009F467C08A9709F472C084C08533910555
:1015900009F458C0C997B9F07DC0833E910571F137
:1015A00038F4803E9105B1F0823E910511F172C090
:1015B000863E9105B9F1873E9105C9F1843E9105BA
:1015C00009F068C024C08091A00180FD5DC081FD4C
:1015D0005BC060C08091A00180FD50C08091A101DE
:1015E00080FF49C18091A00184FD43C1C3EED0E0DA
:1015F00042C18091A00182FF3EC1F4CF8091A00141
:1016000082FD3FC08091A10180FD3EC0EBCF809163
:10161000A10181FF30C18091A00184FD2AC1C7EEE4
:10162000D0E029C18091A00183FF25C1F4CF809132
:10163000A00183FD2CC08091A10181FFECCFC4EEFD
:10164000D0E019C18091A00185FF15C1C9E2D0E0A9
:1016500012C18091A00185FF0EC1C5E3D0E00BC18E
:101660008091A00186FF07C1CAE2D0E004C1809149
:10167000A00186FF00C1C1E3D0E0FDC0C9E3D0E016
:10168000FAC0C2EED0E0F7C0C0EED0E0F4C0C6EEC3
:10169000D0E0F1C0C11581E5D80708F066C0C115DA
:1016A00020E5D207E0F0CE0174E0969587957A9513
:1016B000E1F783709C2F937021E030E002C0220F8D
:1016C000331F9A95E2F73C68382BCF70C695C695C4
:1016D00040E2C49FE0011124C22BD32BCCC0C83EF2
:1016E000D10560F5C03ED10508F0C5C0C83AD105A6
:1016F000B0F4C53AD10540F0C55AD0E0CB5ADE4F20
:10170000C881D0E0D064B7C0C130D10509F4B3C0FE
:1017100008F4AFC0C430D10508F4ABC0ACC0CF3BB7
:10172000D10508F0A6C0C85AD0E0CC0FDD1FC85ABA
:10173000DE4F0990D881C02DD4649DC0C11540E210
:10174000D40758F4C11581E0D80708F094C0C03F11
:10175000D10508F48EC0D0658EC0C11520E4D20733
:1017600008F487C0DF70D06A86C0C11545E5D4078C
:1017700008F042C0C11584E5D80728F0DC2FCC273B
:10178000C46FD06A78C0C11523E5D207B0F0CE018E
:101790008370992721E030E002C0220F331F8A9521
:1017A000E2F78C2F8695869540E2849FC001112434
:1017B000E901C82BD92BDA685EC0C11542E5D40710
:1017C00028F4DC2FCC27C16FD06A55C0CE018370BE
:1017D000992721E030E002C0220F331F8A95E2F7FB
:1017E0008C2F8695869540E2849FC0011124E901E3
:1017F000C82BD92BDC683FC0C11589E5D807B8F4E0
:10180000C11528E5D20728F0DC2FCC27C06FD06A9D
:1018100032C0C11546E5D40760F58C2F0E94040440
:101820008F71C82FD0E0DC2FCC27D06224C0C11527
:101830008AE5D80780F48C2F8F700E94040494E00E
:10184000D695C7959A95E1F7CF70D0E0DC2FCC27DD
:10185000D069C82B10C0CE0190568115904248F433
:101860008D2F8F710E940404DD27D0628F71D82BD9
:1018700002C0C0E0D0E0CE01DF91CF910895CF93B8
:10188000DF93CDB7DEB7AA970FB6F894DEBF0FBED1
:10189000CDBF84B7877F84BF0FB6F894A895809199
:1018A0006000886180936000109260000FBE90E03D
:1018B00080E80FB6F89480936100909361000FBEAA
:1018C00085B7806885BF85B7806885BF0E94B51CD5
:1018D0000E94D41C8091E20084608093E20078949E
:1018E000809104028823A1F01091E9001F7090916B
:1018F000EC00892F817090FD80E8182B1092E90090
:101900008091E80083FD0E9493191F701093E900F5
:1019100082E084BD93E095BD9AEF97BD80936E0001
:10192000ADE3B1E042E451E061E070E08D91E82F79
:10193000E295EF70F0E021A18F708B0102C0000FE3
:10194000111F8A95E2F7C801902F9095922391A3D9
:1019500092A1892B82A34A175B0741F7A2E4B1E069
:1019600046E451E061E070E08D91E82FE295EF7080
:10197000F0E021A18F708B0102C0000F111F8A952A
:10198000E2F7C801902F9095922391A392A1892B01
:1019900082A34A175B0741F7EBE9F1E0A2ECB1E063
:1019A00011921D9211E0E03AF107D1F70E94020A6C
:1019B0008FE39CE90197F1F700C000000E94020A42
:1019C0008091C20180FF0AC080E00E9406066FEF8E
:1019D0007FEF80E090E00E945E2780C480E090E08E
:1019E0000E943A278C3E9E4F11F00E94972182E27E
:1019F00090E00E942C27803281F483E290E00E94E4
:101A00002C27853051F484E290E00E942C2791E04D
:101A1000833109F090E0892F01C080E080FF85C408
:101A200080E090E00E943A278C3E9E4F11F00E9489
:101A3000972182E090E00E942C278093BA010E94B7
:101A400086219093A1018093A00183E090E00E9401
:101A50002C27682F70E080E090E00E945123809155
:101A6000A201811136C080E090E00E943A278C3EAE
:101A70009E4F21F00E9497210E94F30988E090E098
:101A80000E9434276093D0017093D1018093D201DA
:101A90009093D3016E7F71F40E94F30988E090E087
:101AA0000E9434276093D0017093D1018093D201BA
:101AB0009093D3010E946F081092C1018091D001D0
:101AC00080FF04C060E086950E94930981E08093C6
:101AD000A2018DE091E09093A4018093A3019E0167
:101AE0002F5F3F4F7901F7EECF2EF3E0DF2E80918D
:101AF0000402853009F058C080910402843009F452
:101B000041C01092A50120E488E190E00FB6F8945E
:101B1000A895809360000FBE209360001092C101D1
:101B20008091D601811117C081E08093D601809108
:101B3000D001982F91709093D5018E7F8093D00122
:101B40003FEF40E782E0315040408040E1F700C085
:101B500000000E94400683B7817F846083BF83B703
:101B6000816083BF7894889583B78E7F83BF0FB6DB
:101B7000F894A8958091600088618093600010922D
:101B800060000FBE8091FA01882309F4B0CF0E9453
:101B9000020A87EC91E0E2ECF1E021912111A6C369
:101BA0008E179F07D1F7A3CF0E94020AABEBB1E0DB
:101BB000E2ECF1E000E010E0302F21919D919227BE
:101BC00021F180E0BB24B394492F4B21D1F089A3AC
:101BD0003AA32B2181E009F480E08BA30E94DE2050
:101BE0008160782F9DA38CA349A15AA16BA18DA1DF
:101BF0000E944704F801E554FE4F8081B826B08268
:101C000019C08F5FBB0C8430F9F60F5F1F4F053092
:101C1000110591F68FEF8EA38FA318A60E94DE20E8
:101C20008160782F9AA789A74EA15FA168A58AA590
:101C30000E9447048091C101882309F499C08091D2
:101C4000C001E091D001E695E81BE093A801823045
:101C500059F4F0E0EB50FC4FE4910E2F10E0EBE56F
:101C6000AE2EE8E0BE2E58C0863059F4F0E0EE50BB
:101C7000FC4FE4910E2F10E07BE4A72E78E0B72E06
:101C80004BC0893061F4E695F0E0E151FC4FE491FE
:101C90000E2F10E06EEAA62E67E0B62E3DC08F3004
:101CA00061F4E695F0E0E451FC4FE4910E2F10E072
:101CB00051E4A52E57E0B52E2FC0853159F4F0E040
:101CC000E751FC4FE4910E2F10E04AEEA42E46E0BF
:101CD000B42E22C0883199F0833241F4F601059187
:101CE000149131EFA32E37E0B32E16C0843271F079
:101CF00000ED17E02FE6A22E23E0B22E0DC008EE75
:101D000013E097EBA92E96E0B92E06C004EF11E080
:101D10008EE7A82E86E0B82E8091A901882389F04D
:101D20001092A9010E94DE20980120953095820F23
:101D3000931F9093A7018093A6011092AB0110927C
:101D4000AA018091A6019091A7010E94CF2080173F
:101D5000910770F0E091A601F091A7010E0F1F1FEF
:101D60001093A7010093A60186EA91E0F501099579
:101D700086E0E3EBF1E0D70101900D928A95E1F75F
:101D80008091B501811105C08091B601882309F4C5
:101D90006DC08091B1019091B2010E94CF209C0151
:101DA0009091B001992309F4CDC22333310508F491
:101DB0005DC09F3F19F09F5F9093B0011092B701F3
:101DC0001092B8018091B501181624F40E941020D9
:101DD0008093B5018091B50187FF05C00E94102056
:101DE00081958093B5018091B601181624F40E9464
:101DF00010208093B6018091B60187FF05C00E9434
:101E0000102081958093B6013091B5013323E1F024
:101E10002091B6012223C1F005EB3003C00111244B
:101E2000992319F09093B50103C081E08093B50127
:101E300015EB2103C0011124992319F09093B601E9
:101E400003C081E08093B6010E94EA208091AE0138
:101E50009091AF019093B2018093B10186E0F701B8
:101E6000A3EBB1E001900D928A95E1F78091B70163
:101E7000811105C08091B801882309F46DC080915B
:101E8000AC019091AD010E94CF209C019091B001D6
:101E9000992309F45CC22536310508F45DC09F3FE3
:101EA00019F09F5F9093B0011092B5011092B601A6
:101EB0008091B701181624F40E94EE1F8093B70199
:101EC0008091B70187FF05C00E94EE1F8195809326
:101ED000B7018091B801181624F40E94EE1F809378
:101EE000B8018091B80187FF05C00E94EE1F81955F
:101EF0008093B8013091B7013323E1F02091B8010C
:101F00002223C1F045EB3403C0011124992319F0B9
:101F10009093B70103C081E08093B70105EB2003E4
:101F2000C0011124992319F09093B80103C081E0F6
:101F30008093B8010E94EA208091AE019091AF0198
:101F40009093AD018093AC0186E0F701A3EBB1E083
:101F500001900D928A95E1F70E940F059091B901C9
:101F6000891721F00E940F058093B9018091040226
:101F7000843009F0BCCD83E08093E9008091E800D3
:101F800082FFB5CD8091E80085FF1FC00E941F1E13
:101F9000811119C000E210E0570108C08091F100E2
:101FA000F50181935F010150110969F08091E8000A
:101FB00085FDF4CF8091E8008B778093E8000E9444
:101FC0001F1E882399F391E001C090E08091E80002
:101FD0008B778093E800992309F489CDE9818E2FCE
:101FE00090E0FC013197E331F10508F079C1EA5A3C
:101FF000FF4F0C94AA271A8289E0D1C08A818230CF
:1020000009F48AC1833089F0813009F069C12FB7A2
:10201000F8948091C7019091C801A091C901B09135
:10202000CA012FBFBB83AC8322C08091C2018B83C6
:102030008091C3018C838091C4018D838091C501FF
:102040008E838091C6018F834DC18A81823009F0D1
:1020500047C16B817C818D819E810E94B02785E282
:1020600090E024C04C816B818A810E94D3059D83BE
:102070005AC1AD80BE80BA24AB24BA248C810B81B6
:102080009A81F8E00F9F8001112428E2929F000DB1
:10209000111D1124080F111D080F111D6B2DC801F2
:1020A00086960E9440276A2DC80187960E94402785
:1020B00019C10E949F0516C18A818138B1F050F480
:1020C000803809F00FC120E04B816091D2018091EE
:1020D000D10131C0823859F1833809F003C120E0C1
:1020E0004091D3016C818B8126C060E08B810E947E
:1020F00093099B818091D001911111C08E7F8093B3
:10210000D0011092C1013FEF40E782E031504040E2
:102110008040E1F700C000000E944006E3C08160FB
:102120008093D00160E086950E949309DBC08B818B
:102130008093D401D7C00E949408D4C08A8181388A
:1021400099F030F4803809F0CDC08091D30127C0D8
:10215000823891F0833809F0C5C08091D1018B831A
:102160008091D2018C83BEC08091D00180FF02C0DB
:10217000869515C080E013C08091D40110C0609195
:10218000D0017091D1018091D2019091D3010E9430
:102190008208A8C080E14CC083E08A838AE38B83F5
:1021A000A1C00A811B811027012710278C80912C48
:1021B0005701C8018A539F4F95012E193F092815D1
:1021C000390508F08FC00A33E3E01E0728F40E94A7
:1021D0002C27F501848302C0F50114820F5F1F4F85
:1021E000FFEFAF1ABF0AE5CF0A811B811027012735
:1021F00010278C80912C5701C8018A539F4F95015D
:102200002E193F092815390508F06CC00A3323E060
:10221000120720F4F50164810E9440270F5F1F4FD1
:10222000FFEFAF1ABF0AE8CF0E948F055BC084E0C2
:102230008A8358C00A811B811027012710278C80B0
:10224000912C5701C801869695012E193F09281532
:10225000390508F047C0003A110528F40E942C27E0
:10226000F501848302C0F50114820F5F1F4FFFEF59
:10227000AF1ABF0AE7CF0A811B8110270127102759
:102280008C80912C5701C801869695012E193F0923
:102290002815390538F5003A110520F4F501648157
:1022A0000E9440270F5F1F4FFFEFAF1ABF0AEBCF0F
:1022B00080E00E9406066FEF7FEF80E090E00E94D2
:1022C0005E2710C0C7010E947E1E0FEF11EE24E0B2
:1022D000015010402040E1F700C000000E9498200B
:1022E0008FEF8983C7010E947E1E01CC80E189BDEA
:1022F00082E189BD09B400FEFDCF8091D8008F7DB9
:102300008093D8008091E00082608093E00080910B
:10231000E00081FDFCCFEBCB85E290E00E942C2712
:102320001B821C821D828E83DDCF60E085E290E0FF
:102330000E9440270E949F050E948F0581E00E9415
:1023400006066ECB2D32314008F035CD8FCD2D32C3
:10235000314008F0A6CD00CE7F928F929F92AF922F
:10236000BF92CF92DF92EF92FF920F931F93CF9382
:10237000DF93CDB7DEB729970FB6F894DEBF0FBE57
:10238000CDBFFC018081918123813481232B31F0E9
:102390009F3F31F491E08F3F19F403C091E001C0F9
:1023A00090E090FDDCC67F0185E0DE011196019092
:1023B0000D928A95E1F7F701228189819A81222382
:1023C00049F00E944622182F682F89819A810E9425
:1023D000BE2203C00E949322182F69817A81812F27
:1023E0000E94F9058C01F7019281992309F4A6C690
:1023F000980122513F452031310508F0D9C08FEFB7
:1024000093E00E942C278111AAC6025136ECA32E1C
:10241000B12C002379F0A114F4E0BF0609F49FC6A3
:10242000C5010E942C27811101C001501FEFA11A84
:10243000B10AEFCF1E821F821886198688248394E2
:102440002AE0722E85010F5F1F4FC5010E942C27C5
:102450008E831F82882309F482C69FEF980F9330E2
:1024600060F48F838E8222E0A20EB11CC8010E940C
:102470002C278887811102C072C658018E010A5F1D
:102480001F4FF80120812223E9F2213009F04EC0CC
:102490008181813059F47801F2E0EF0EF11CF801EE
:1024A0001281812F0E945526812F14C0823051F451
:1024B0007801F2E0EF0EF11CF80182810E945526AE
:1024C000870173C0833049F47801F2E0EF0EF11C0C
:1024D000F80182810E94EE25F3CF843019F00F5F5E
:1024E0001F4F63C0F80122810E5F1F4F80E090E014
:1024F00030E0205331092A30310568F4789EA0017C
:10250000799E500D1124C901840F951F0F5F1F4F35
:10251000F8012081EDCF009709F447C0EFE9FFE013
:102520003197F1F700C000000197F5CFE22FF0E0FE
:10253000E75EFB4F9490822F86958695869590E076
:10254000FC01E75FFB4FC4902770D12C022E02C024
:10255000D594C7940A94E2F7F1E0CF22DD24FC0180
:10256000E750FC4FE490F12C02C0F594E7942A95D3
:10257000E2F721E0E222FF24C114D10419F081EE38
:102580000E945526E114F10419F086EE0E945526AA
:10259000892D0E941927EF2819F086EE0E94EE255A
:1025A000CD2819F081EE0E94EE250F5F1F4F69CFF5
:1025B0000031FFE51F0711F481E005C001312FE56F
:1025C0001207C1F482E00E94302329960FB6F894D6
:1025D000DEBF0FBECDBFDF91CF911F910F91FF9056
:1025E000EF90DF90CF90BF90AF909F908F907F90B3
:1025F0000C947519033FFCE51F07C9F426E241EE70
:1026000060EEC70129960FB6F894DEBF0FBECDBFAE
:10261000DF91CF911F910F91FF90EF90DF90CF90BE
:10262000BF90AF909F908F907F900C941B05043FBC
:102630002CE5120708F055C1083D3CE5130721F4CD
:1026400027E245EE65EEDDCF093D8CE5180719F46C
:1026500028E241E0F7CF073DECE51E0721F426E232
:1026600041EE61EECECF992309F46AC11092CB01FD
:1026700002303CE5130708F44DC106318CE518071C
:1026800038F098012A5F3C452930310508F042C1F5
:102690000E9486219093A1018093A00100319CE5C6
:1026A000190709F4C3C008F041C00830FCE51F0752
:1026B00009F49AC0F0F404303CE5130709F487C02C
:1026C00068F402309CE5190709F477C003301C4513
:1026D00009F0E5C08091A001826076C00630FCE57B
:1026E0001F0709F46EC008F07BC08091A0018860CC
:1026F0006BC00C303CE5130709F485C068F40A3060
:102700009CE5190709F474C008F079C00E94C4253B
:102710008091A001806858C00E30FCE51F0709F4C5
:1027200076C008F07FC08091A0018BC00B3F3CE5D4
:10273000130709F44FC018F503319CE5190709F494
:102740007DC078F40131FCE51F0709F473C0023144
:102750001C4509F0A4C00E94C4258091A0018F7778
:1027600033C005313CE5130709F472C008F486C094
:102770000A3F1C4509F093C08091A1013EC00F3F64
:10278000ECE51E0709F45FC058F40D3F2CE5120775
:1027900009F444C008F43FC08091A10182602DC0BB
:1027A00001308DE5180709F475C008F45DC00230EA
:1027B0001D4509F074C060E06EC08091A001816089
:1027C00003C08091A00180618093A00168C08091C6
:1027D000A00111C08091A10182608093A1015FC01E
:1027E0008091A0018062F0CF8091A0018064ECCF45
:1027F0008091A00188608460E7CF8160EECF8091F6
:10280000A0018E7FE1CF8091A0018D7FDDCF8091EF
:10281000A001877FD9CF8091A10118C08091A1012B
:102820008D7FDBCF8091A0018F7ECECF8091A001E4
:102830008F7DCACF8091A0018F7BC6CF8091A001F0
:10284000877F8B7FC1CF8091A1018D7F8E7FC5CF88
:102850008091A00182FB222720F991E0922790FB32
:1028600082F990FB83F9B0CF8091A101982F9095C8
:1028700091708E7F892B90FB81F9AFCF0E94C42588
:102880008091A00187FB222720F991E0922790FBFD
:1028900087F99ACF61E08EE090E00E944027609136
:1028A000A0011091A10184E090E00E944027612FD7
:1028B00081E290E00E94402729960FB6F894DEBF8F
:1028C0000FBECDBFDF91CF911F910F91FF90EF9081
:1028D000DF90CF90BF90AF909F908F907F900C949F
:1028E000C425053FFCE51F0721F426E241EE62EE18
:1028F00088CE053F2CE5120720F427E245EE64EE72
:1029000080CE063F3CE5130709F0ADCE27E245EE49
:1029100066EE77CE809173020631ECE51E0799F5DD
:102920008A7A91E009F490E09093CC01882311F029
:1029300065E301C069E289E092E00E9451210EC086
:1029400006311C4509F014C18091CC01882309F49B
:1029500004C465E389E092E00E94292129960FB61C
:10296000F894DEBF0FBECDBFDF91CF911F910F91C5
:10297000FF90EF90DF90CF90BF90AF909F908F909F
:102980007F900C9400228272F801E25CFC45E431F5
:10299000F10508F0C4C0E759FF4F0C94AA278091B5
:1029A000D00180FF2DC08E7F8093D0016091D00137
:1029B0007091D1018091D2019091D3010E9482083F
:1029C0001092C101FFEF00E712E0F150004010400B
:1029D000E1F700C0000029960FB6F894DEBF0FBEE5
:1029E000CDBFDF91CF911F910F91FF90EF90DF90BE
:1029F000CF90BF90AF909F908F907F900C944006A7
:102A000081608093D00161E0869574C04EEC59E0FE
:102A100067ED79E02CC047ED59E06EEC79E027C016
:102A20004FE559E068E679E022C048E659E06FE5F5
:102A300079E01DC047E459E063E579E018C043E55B
:102A400059E067E479E013C04FE259E06BE379E0C5
:102A50000EC04BE359E06FE279E009C041E759E06D
:102A600062E879E004C042E859E061E779E029963C
:102A70000FB6F894DEBF0FBECDBFDF91CF911F918F
:102A80000F91FF90EF90DF90CF90BF90AF909F900D
:102A90008F907F900C94240661E081E02BC065E06C
:102AA00082E011C068E086E00EC06EE089E00BC0F5
:102AB00064E18FE008C067E185E105C061E088E17D
:102AC00019C062E289E129960FB6F894DEBF0FBE05
:102AD000CDBFDF91CF911F910F91FF90EF90DF90CD
:102AE000CF90BF90AF909F908F907F900C94E10912
:102AF00061E083E229960FB6F894DEBF0FBECDBF2A
:102B0000DF91CF911F910F91FF90EF90DF90CF90C9
:102B1000BF90AF909F908F907F900C949309011578
:102B20002CE51207C1F00E3D1C4511F529960FB694
:102B3000F894DEBF0FBECDBFDF91CF911F910F91F3
:102B4000FF90EF90DF90CF90BF90AF909F908F90CD
:102B50007F900C9497210E94C4258FEF94E3ECE0C2
:102B600081509040E040E1F700C000000E949820B2
:102B7000F70100811181992349F0C8010E94462282
:102B8000D82E682FC8010E94BE2204C0C8010E942E
:102B90009322D82EB8018D2D0E94B00A8C01982E58
:102BA000F701A580A2949FE0A922D280D1101092B3
:102BB000720280917002877079F0DD2069F080E206
:102BC000800F883048F082E00E94172380917002C5
:102BD0008770CC24C3948111C12CB12EB2948FE0A4
:102BE000B8228B2D90E08C30910508F077C2FC0163
:102BF000E358FF4F0C94AA27812F807F1F708823F2
:102C000011F01295107FDD20B9F0112309F451C2A3
:102C100080E2800F883010F0911006C0809173021E
:102C2000182B1093730205C080917202182B109319
:102C300072020E9400223DC2802F0E94EE251123C5
:102C400009F44CC2005E1095083010F0911006C0D7
:102C50008091730218231093730205C08091720251
:102C60001823109372020E94002238C2812F807FA5
:102C70001F70803211F01295107F992021F0F1E041
:102C80009F16E1F02AC0DD2081F080917402AA2015
:102C900051F001E0A01207C0182B181709F41EC24A
:102CA000109374021BC2812B10C0AA2021F021E0D6
:102CB000A21609F413C20E94FA2127C0DD2041F0B8
:102CC00035E03A1508F40AC2812F0E94E42506C2B5
:102CD00084E08A1508F402C218C0DD2049F0AA2059
:102CE00099F3F701858180FFE4C18F708583ECCF74
:102CF000AA2059F0093309F0EEC1FFEF17EE23E0E7
:102D0000F15010402040E1F7E4C1812F0E94D92505
:102D1000E5C1812F86958695837019F0813059F031
:102D2000DDC1DD2019F0C801937002C080E090E0A1
:102D30000E94F904D9C1DD2019F0C801937002C0C6
:102D400080E090E00E94E304CFC1DD20F9F0053F70
:102D500051F0063F71F0043FA9F48091CD019091AC
:102D6000CE0181600BC08091CD019091CE01826037
:102D700005C08091CD019091CE0184609093CE01E9
:102D80008093CD01802F0E9430201EC0053F51F05E
:102D9000063F71F0043FA9F48091CD019091CE01DE
:102DA0008E7F0BC08091CD019091CE018D7F05C0AB
:102DB0008091CD019091CE018B7F9093CE01809335
:102DC000CD01802F0E94691F0E94EA208DC1812FB2
:102DD000837009F069C0D11085C1902F92959695A6
:102DE0009770990F990F802F8F70882E912CA12C9E
:102DF000B12C092E04C0880C991CAA1CBB1C0A9477
:102E0000D2F704FF12C04FE050E060E070E004C071
:102E1000440F551F661F771F9A95D2F7DB01CA0131
:102E200080959095A095B09503C080E090E0DC017E
:102E300016951695412F4370423019F1C8F4009150
:102E4000750210917602209177023091780241301C
:102E500059F088299929AA29BB29BC01CD016023F1
:102E60007123822393230AC0802A912AA22AB32A9B
:102E7000BC01CD01682979298A299B290E94512307
:102E800031C188299929AA29BB290091750210917D
:102E900076022091770230917802BC01CD01602743
:102EA000712782279327EACFDD2019F0812F8170C7
:102EB00001C08695882309F415C1902F92959695A7
:102EC0009770990F990F802F8F70882E912CA12CBD
:102ED000B12C092E04C0880C991CAA1CBB1C0A9496
:102EE000D2F704FF12C04FE050E060E070E004C091
:102EF000440F551F661F771F9A95D2F7DB01CA0151
:102F000080959095A095B09503C080E090E0DC019D
:102F100016951695412F43704230D9F068F500910F
:102F200005021091060220910702309108024130FB
:102F300059F088299929AA29BB29BC01CD01602310
:102F40007123822393231EC0802A912AA22AB32AA6
:102F500013C088299929AA29BB290091050210913B
:102F600006022091070230910802BC01CD016027C2
:102F700071278227932706C0BC01CD0168297929D2
:102F80008A299B290E94E822ADC01F70DD2039F0FC
:102F9000812F0E943023802F0E94E425A3C0802F20
:102FA0000E94D925812F0E94F2229CC0802F32EFEF
:102FB000931609F440C0391538F090EF991661F076
:102FC000E1EF9E1699F170C0F3EF9F16D9F124EF4F
:102FD000921609F44EC068C0DD2019F134E03A15AC
:102FE00008F47CC01F7181E090E0A0E0B0E0AC018B
:102FF000BD0104C0440F551F661F771F1A95D2F7F5
:103000008091050290910602A0910702B0910802FA
:103010008A019B01082719272A273B27C901B801E4
:1030200025C025E02A1508F459C0DCCFDD2029F0A1
:10303000812F8F712CC0DD20D9F3812F8F710E94D9
:10304000F2224CC0DD2079F01F7181E090E0A0E019
:10305000B0E0BC01CD0104C0660F771F881F991F27
:103060001A95D2F703C060E070E0CB010E94E8221D
:1030700035C0DD2079F01F71812F0E94302338E0A8
:10308000139FC0011124836080937002812F0E94DE
:10309000302324C081E00E94172381E08A15F0F4D8
:1030A00082E00E9417231AC0DD2039F0AA2009F41B
:1030B000BFCF802F0E94552611C0AA2009F4BDCF92
:1030C000893349F49FEFE7EEF3E09150E040F040A0
:1030D000E1F700C00000802F0E94EE2588EF8B0DE5
:1030E000843010F40E940F05CC20C9F18091700249
:1030F00080FD35C0F70112828595859585950E94E2
:103100003023C7010E94AC1180917002859585958E
:10311000859529960FB6F894DEBF0FBECDBFDF911F
:10312000CF911F910F91FF90EF90DF90CF90BF90C4
:10313000AF909F908F907F900C94F22200313FE5EA
:10314000130721F481E00E94F2223FCA01318FE58A
:10315000180709F04FCA82E0F6CF69E2FBCB299647
:103160000FB6F894DEBF0FBECDBFDF91CF911F9198
:103170000F91FF90EF90DF90CF90BF90AF909F9016
:103180008F907F9008958091FC0187FF11C08091FE
:10319000E80082FD05C0809104028111F8CF11C0C2
:1031A0008091E8008B770BC080910402882349F05E
:1031B0008091E80080FFF8CF8091E8008E778093BF
:1031C000E8000895982F973068F59093E9009817D4
:1031D00039F07091EC002091ED005091F00003C0A7
:1031E000242F762F50E021FD02C09F5FECCF30915D
:1031F000EB003E7F3093EB003091ED003D7F30934C
:10320000ED003091EB0031603093EB007093EC00F7
:103210002093ED005093F0002091EE0027FDE5CFC4
:1032200080E008958F708093E90081E008952091F7
:103230000202309103022617370748F06115710525
:1032400039F42091E8002E772093E80001C0B901FD
:10325000FC0120E06115710579F180910402882359
:10326000F1F18530F1F18091E80083FD3CC080915F
:10327000E80082FD2EC08091E80080FFEBCF209116
:10328000F3008091F20090E0922B6115710551F0EE
:103290008830910538F421912093F1006150710933
:1032A0000196F3CF21E0089709F020E08091E80033
:1032B0008E778093E800CECF2111CFCF0AC08091C6
:1032C0000402882361F0853061F08091E80083FD7D
:1032D0000AC08091E80082FFF2CF80E0089582E08A
:1032E000089583E0089581E008950F931F938091DE
:1032F000050290910602A0910702B09108028C018C
:103300009D010670112722273327BC01CD0106300D
:1033100011052105310511F4686001C0677F1F9117
:103320000F910C94E8221F93CF93DF93CDB7DEB7B4
:10333000AA970FB6F894DEBF0FBECDBFECEFF1E059
:103340008091F100819342E0E430F407C9F7809165
:10335000FD01833009F462C030F4813071F08230B5
:1033600009F49CC0B3C08A3009F488C08B3009F4DA
:103370006DC0893009F0AAC020C08091FC01813A5B
:1033800009F0A4C08091E800877F8093E8008091D5
:10339000000290910102892B21F460E289ED91E015
:1033A00003C060E080E090E070E00E941719809117
:1033B000E8008B778093E80089C08091FC0181321E
:1033C00009F084C08091000290910102009719F0E9
:1033D000029709F07BC08091E800877F8093E80026
:1033E0008091E80082FD05C0809104028111F8CF30
:1033F0006DC02091F3008091F20090E0922B029733
:1034000029F48091F1008B7F813021F48091F100CB
:103410008093D8018091E8008B7754C08091FC01A3
:10342000813A09F053C08091000290910102892BEA
:1034300009F04CC08091E800877F8093E80080917C
:10344000E80080FFFCCF8091170137C08091FC011C
:103450008132E1F58091000290910102892BB1F552
:103460008091E800877F8093E8000E94C3188091D4
:10347000FE01809317010E94C42528C08091FC01A1
:10348000813221F58091E800877F8093E8000E94D7
:10349000C3188091FF018093D70118C08091FC016F
:1034A000813AA1F48091E800877F8093E8008091C1
:1034B000E80080FFFCCF8091D7018093F1008091DC
:1034C000E8008E778093E8000E94C3188091E8009E
:1034D00083FFE9C18091FC019091FD01492F50E0EB
:1034E0004A30510508F0DFC1FA01E757FF4F0C944D
:1034F000AA27803821F0823809F0D5C108C0809110
:10350000F9019091FA01992389F082600FC08091AE
:1035100000028F70873008F0C6C18093E900809167
:10352000EB0085FB882780F91092E9009091E80074
:10353000977F9093E8008093F1001092F1007CC196
:10354000282F2D7F09F0AFC1882319F0823061F058
:10355000AAC18091FE01813009F0A5C1933009F024
:1035600080E08093FA012EC08091FE0181112AC073
:10357000809100028F702FEF280F263008F093C142
:103580008093E9002091EB0020FF1CC0933021F4D0
:103590008091EB00806214C09091EB009061909359
:1035A000EB0021E030E0A90102C0440F551F8A95CD
:1035B000E2F74093EA001092EA008091EB00886005
:1035C0008093EB001092E9008091E800877F809360
:1035D000E8000E94C31867C1811165C11091FE0106
:1035E0001F778091E3008078812B8093E3008091A6
:1035F000E800877F8093E8000E94C3188091E8006C
:1036000080FFFCCF8091E30080688093E30011117C
:1036100002C082E001C083E08093040244C180586C
:10362000823008F040C12091FE013091FF012C3D15
:1036300053E0350779F583E08A838AE289834FB7BF
:10364000F894DE01139620E03EE051E2E32FF0E033
:1036500050935700E49120FF03C0E295EF703F5F65
:10366000EF708E2F90E0EA3010F0C79601C0C09640
:103670008D939D932F5F243149F74FBF8091E800D0
:10368000877F8093E8006AE270E0CE0101960E9495
:103690001719C0C08091000290910102432F552755
:1036A00043305105B1F068F44130510509F40AC1C5
:1036B0004230510509F0F7C08BE590E0E7EBF5E00B
:1036C00057C04132510589F14232510509F43CC0DD
:1036D000EAC0C901992781309105B9F070F08230B4
:1036E0009105D9F0039709F0DEC0E4E2F6E0E49139
:1036F0008E2F90E0E4E2F6E038C0E8E4F6E0E491F2
:103700008E2F90E0E8E4F6E030C0E8E3F6E0E491E4
:103710008E2F90E0E8E3F6E028C0EAE2F6E0E491DC
:103720008E2F90E0EAE2F6E020C08330910508F0A9
:10373000BAC0880F991FFC01E15BFE4F0190F08138
:10374000E02D89E090E014C08330910508F0ABC013
:10375000FC01EE0FFF1FE75BFE4F0190F081E02DB3
:10376000DC01AA5BBE4F8C9190E0009709F49BC0EE
:103770002091E800277F2093E800209102023091F9
:1037800003022817390708F4C90140E0009789F1BE
:1037900020910402222309F43DC02530D9F1209163
:1037A000E80023FD37C02091E80022FD2FC02091C2
:1037B000E80020FFEBCF4091F3002091F20030E0D1
:1037C000342B009759F02830310540F44491409350
:1037D000F100319601972F5F3F4FF3CF41E0283042
:1037E000310509F040E02091E8002E772093E800B1
:1037F000CDCF4111CDCF0AC080910402882351F072
:10380000853041F08091E80083FD04C08091E8009C
:1038100082FFF2CF8091E8008B778093E80043C06D
:10382000803809F040C08091E800877F8093E800ED
:103830008091FB018093F1008091E8008E77C7CEE4
:10384000811131C08091FE019091FF01992702976B
:1038500054F58091E800877F8093E8001091FE0185
:103860001093FB010E94C318111106C08091E30060
:1038700087FD02C081E001C084E08093040242E041
:1038800061EC81E00E94E21842E261EC84E00E9477
:10389000E21842E261EC82E00E94E21842E260EC4F
:1038A00083E00E94E2188091E80083FF10C08091BD
:1038B000E800877F8093E8008091EB00806280932E
:1038C000EB0005C082E190E0E2E1F6E051CFAA967C
:1038D0000FB6F894DEBF0FBECDBFDF91CF911F9121
:1038E00008951F920F920FB60F9211242F933F93BA
:1038F0004F935F936F937F938F939F93AF93BF93F8
:10390000CF93DF93EF93FF93C091E900CF70809145
:10391000EC00D82FD17080FDD0E81092E9008091A2
:10392000F000877F8093F00078940E9493191092A2
:10393000E9008091F00088608093F000CD2BCF707B
:10394000C093E900FF91EF91DF91CF91BF91AF91CB
:103950009F918F917F916F915F914F913F912F91A7
:103960000F900FBE0F901F901895E8EDF0E080814A
:103970008E7F80831092E2001092DA001092E100B4
:10398000A0EEB0E08C9181608C9380818F778083F2
:1039900019BCA7EDB0E08C918E7F8C9380818F7ED7
:1039A00080831092CF010895CF92DF92EF92FF9221
:1039B0000F931F93CF93DF93C8EDD0E088818F7E64
:1039C0008883E7EDF0E080818160808384E082BFBE
:1039D00081E08093CF0188818E7F888302EE10E0A2
:1039E000F80110821092DA0081EEC82ED12CF60177
:1039F000108288818F778883888180688883888116
:103A00008F7D888319BC109204021092FB011092E2
:103A1000FA011092F90190EEE92EF12CF701808164
:103A20008B7F808388818160888342E060E080E0D2
:103A30000E94E218F60180818E7F8083F8018081E8
:103A400081608083808188608083F70180818E7FA0
:103A50008083888180618883DF91CF911F910F914E
:103A6000FF90EF90DF90CF9008951F920F920FB6C6
:103A70000F9211242F933F934F935F936F937F93F4
:103A80008F939F93AF93BF93EF93FF938091E10048
:103A900082FF09C08091E20082FF05C08091E100B1
:103AA0008B7F8093E1008091DA0080FF2AC08091B3
:103AB000D80080FF26C08091DA008E7F8093DA00E4
:103AC0008091D90080FF18C080E189BD82E189BD65
:103AD00009B400FEFDCF81E0809304028091CF0104
:103AE00081110FC00E94B51C0E94D41C8091E2007D
:103AF00084608093E20005C019BC10920402109209
:103B0000CF018091E10080FF17C08091E20080FF2B
:103B100013C08091E2008E7F8093E2008091E200EA
:103B200080618093E2008091D80080628093D80009
:103B300019BC85E0809304028091E10084FF43C0BA
:103B40008091E20084FF3FC080E189BD82E189BDB0
:103B500009B400FEFDCF8091D8008F7D8093D800FE
:103B60008091E1008F7E8093E1008091E2008F7E62
:103B70008093E2008091E20081608093E200809176
:103B8000FB01882311F084E007C08091E30087FDEA
:103B900002C081E001C083E0809304020E94C4253A
:103BA0000E940F051092D6018091D501882349F01B
:103BB0008091D00181608093D00160E086950E9461
:103BC00093090E942A068091E10083FF27C080911B
:103BD000E20083FF23C08091E100877F8093E100B2
:103BE00082E0809304021092FB018091E1008E7FBD
:103BF0008093E1008091E2008E7F8093E2008091CB
:103C0000E20080618093E20042E060E080E00E9498
:103C1000E2188091F00088608093F000FF91EF91AE
:103C2000BF91AF919F918F917F916F915F914F91D4
:103C30003F912F910F900FBE0F901F9018952091DC
:103C4000E4003091E50095E64091EC00842F81700E
:103C500040FF23C08091E80080FD1DC080910402D8
:103C6000882399F0853099F08091EB0085FD11C093
:103C70004091E4005091E5002417350729F3915055
:103C800011F09A01E1CF84E0089582E0089583E085
:103C9000089581E0089580E008954091E80042FF92
:103CA000DDCF0895EF92FF920F931F93CF93DF9391
:103CB0007C018B010E941F1E811119C0E7010115B3
:103CC0001105A1F08091E80085FD0AC08091E8000F
:103CD0008E778093E8000E941F1E882381F307C01F
:103CE00089918093F10001501109E9CF80E0DF91C3
:103CF000CF911F910F91FF90EF900895CF93209156
:103D000004022430F9F4C091E900CF703091EC0046
:103D1000232F217030FD20E8C22B22E02093E90000
:103D20002091E80020FF0BC040E050E060E270E02E
:103D30000E94521E8091E8008E778093E800CF7039
:103D4000C093E900CF91089580910402843011F06E
:103D500081E0089582E008958091D8010895CF937D
:103D6000DF9300D01F92CDB7DEB79091040294305C
:103D700011F589837B836A839093E9008FEF90919B
:103D8000E800815095FD06C095ED9A95F1F7000089
:103D90008111F5CF8091E80085FF0DC040E050E033
:103DA00063E070E0CE0101960E94521E8091E8000F
:103DB0008E778093E8000F900F900F90DF91CF9156
:103DC0000895CF93DF93EC010E94A41E823011F07E
:103DD000843031F4BE0184E0DF91CF910C94AF1EAA
:103DE000DF91CF910895BC0183E00C94AF1ECF9377
:103DF000DF93EC010E94A41E823011F08430F9F4AC
:103E000084E08093E9008FEF9091E800815095FD68
:103E100006C095ED9A95F1F700008111F5CF8091DC
:103E2000E80085FF0CC040E050E066E070E0CE01A5
:103E30000E94521E8091E8008E778093E800DF9107
:103E4000CF910895CF93DF93EC010E94A41E82309E
:103E500011F08430D9F580911701882339F08091D1
:103E6000A00187FF03C060E284E002C068E081E057
:103E70008093E9008FEF9091E800815095FD06C096
:103E800095ED9A95F1F700008111F5CF8091E8004A
:103E900085FF1CC080911701811105C040E050E0F2
:103EA00068E070E003C070E040E050E0CE010E94A6
:103EB000521E8091E8008E778093E80080E2FE0138
:103EC000A9EDB1E001900D928A95E1F7DF91CF91D4
:103ED0000895803F39F48091B60187FF6CC010923D
:103EE000B60169C0813F29F48091B6011816BCF370
:103EF00062C09091B501823F29F497FF5CC0109297
:103F0000B50159C0833F19F41916CCF354C0893F49
:103F100041F48091B70118160CF04DC01092B70112
:103F20004AC08A3F29F48091B70187FF44C0F6CF89
:103F30008B3F39F48091B80187FF3DC01092B801E2
:103F40003AC08C3F29F48091B8011816BCF333C0F5
:103F5000843F21F48091B4018E7F17C0853F21F406
:103F60008091B4018D7F11C0863F21F48091B4010E
:103F70008B7F0BC0873F21F48091B401877F05C000
:103F8000883F31F48091B4018F7E8093B40113C0D7
:103F90008D3F21F4809179028E7F0BC08E3F21F4FA
:103FA000809179028D7F05C08F3F29F4809179023D
:103FB0008B7F809379028091B50181110EC0809131
:103FC000B60181110AC08091B701811106C08091AC
:103FD000B801811102C01092B00108958091790258
:103FE00080FD16C081FD16C082FD18C08091B00111
:103FF000882391F0883290F428E0829FC001112438
:1040000068E270E00E949627862F672B29F007C090
:1040100082E0089584E0089581E0089588E008959D
:104020008091790280FD14C081FD14C082FD16C00C
:104030008091B001882381F0843180F422E3829F53
:10404000C001112464E170E00E949627862F089534
:104050008CE0089589E1089585E0089582E308954C
:10406000803F21F40E941020819504C0813F29F4F3
:104070000E9410208093B6010895823F21F40E948F
:104080001020819504C0833F29F40E941020809362
:10409000B5010895893F19F40E94EE1F05C08A3FBB
:1040A00031F40E94EE1F81958093B70108958B3FF4
:1040B00021F40E94EE1F819504C08C3F29F40E94D8
:1040C000EE1F8093B8010895843F21F48091B401DC
:1040D000816017C0853F21F48091B401826011C0D6
:1040E000863F21F48091B40184600BC0873F21F4A6
:1040F0008091B401886005C0883F31F48091B4019B
:1041000080618093B40108958D3F21F480917902FC
:1041100081600BC08E3F21F480917902826005C0DE
:104120008F3F29F480917902846080937902089509
:1041300087E797E790930108809300089AE088E169
:104140000FB6F894A895809360000FBE909360001E
:10415000FFCF78941F920F920FB60F9211248F9376
:104160009F93AF93BF938091C7019091C801A09195
:10417000C901B091CA010196A11DB11D8093C7016B
:104180009093C801A093C901B093CA01BF91AF91A8
:104190009F918F910F900FBE0F901F9018959C01CB
:1041A0004FB7F8948091C7019091C801A091C901BF
:1041B000B091CA014FBF821B930B08952FB7F8949B
:1041C0008091C7019091C801A091C901B091CA0125
:1041D0002FBF0895E091A301F091A401309749F019
:1041E00082E08093B3010480F581E02D83EB91E0C0
:1041F00009950E94DE209093AF018093AE0108954F
:104200001F920F920FB60F9211248F939F93AF932B
:10421000BF938091A501811113C08091C701909136
:10422000C801A091C901B091CA014196A11DB11D5B
:104230008093C7019093C801A093C901B093CA01AC
:10424000BF91AF919F918F910F900FBE0F901F90D4
:104250001895209117012223C9F02091A00127FF72
:1042600015C0262F2695269526952E31C8F4FC01DB
:10427000E20FF11D677081E090E001C0880F6A9540
:10428000EAF780959281892382830895FC0106963E
:104290002281621301C012823196E817F907C1F733
:1042A0000895209117012223C1F02091A00127FF3A
:1042B00014C0262F2695269526952E3130F5FC0123
:1042C000E20FF11D677081E090E001C0880F6A95F0
:1042D000EAF79281892B82830895FC0132962FEFB1
:1042E00030E04191641789F02F3F19F4411101C06A
:1042F000232F3F5F3630A9F72F3F39F0FC01E20F43
:10430000F11D27FDFA95628308950895CF9384E007
:1043100090E00E942C27C82F81E290E00E942C2779
:104320002C2F30E0A901582BCA01CF9108956CEED3
:104330007EEF80E090E00E945E2760E082E090E007
:104340000E94402760E083E090E00E9440271092A6
:10435000750210927602109277021092780260E055
:1043600084E090E00E94402760E081E290E00E94BB
:10437000402760E085E090E00E94402760E086E012
:1043800090E00E9440276FEF87E090E00E94402776
:1043900040E050E0BA0188E090E00E94522760E0DF
:1043A0008DE090E00E94402740E050E0BA0188E1B3
:1043B00090E00E94522760E087E190E00E94402751
:1043C00040E050E0BA018CE190E00E94522760E0AA
:1043D00080E290E00E94402740E050E0BA018FE088
:1043E00090E00E94522740E050E0BA0183E190E063
:1043F0000C945227809174028111109274020895D6
:104400009091730280917202892B20917102982FF2
:10441000922B90930902809174028823D9F0892B02
:104420008093090280911701882331F08091A001C7
:1044300087FF02C08EE101C086E0EBE0F2E090E091
:10444000815028F021912223D9F39F5FF9CF911158
:104450000E94FA21E091A301F091A4013097A9F004
:1044600080911701882359F08091A00187FF07C030
:104470008091090280930A0285E0809309020280FC
:10448000F381E02D89E092E009940895BF92CF92E4
:10449000DF92EF92FF920F931F93CF93DF938C01E4
:1044A000C0900502D0900602E0900702F09008024A
:1044B0008091750290917602A0917702B091780276
:1044C000C82AD92AEA2AFB2ACFE1D0E0D701C601BF
:1044D0000C2E04C0B695A795979587950A94D2F7A8
:1044E00080FD04C0219790F7B12C07C0BC2EB80105
:1044F0008C2F0E94B00A0197A9F38B2DDF91CF91E9
:104500001F910F91FF90EF90DF90CF90BF90089593
:10451000CF93DF93EC010E944622BE010E94B00AB5
:10452000DF91CF910895990F990F890F682F6695A4
:1045300066956695982F977085E0689FB001112465
:1045400040E050E080E0FB01E40FF51FEF59FD4F24
:10455000208130E0092E02C0369527950A94E2F7B3
:1045600021703327042E01C0220F0A94EAF7822B10
:104570004F5F5F4F4530510531F70895990F990FFF
:10458000890FE82FE695E695E695877051E001C022
:10459000550F8A95EAF785E0E89FF0011124EF595D
:1045A000FD4F20E030E070E04081CB01022E02C0E0
:1045B000969587950A94E2F78170819584278523E3
:1045C000842781932F5F3F4F2530310569F7089588
:1045D000609305027093060280930702909308028D
:1045E0000C94A9250F931F9341E050E060E070E028
:1045F00004C0440F551F661F771F8A95D2F7409558
:104600005095609570958091050290910602A09159
:104610000702B09108028A019B01082319232A236B
:104620003B23C901B8011F910F910C94E8222091FE
:1046300070028095822380937002982F977079F48E
:1046400030E0482F082E000C550B2417350739F0A1
:104650008595859585950E94F222109270020895A5
:104660000F931F9341E050E060E070E004C0440FFE
:10467000551F661F771F8A95D2F78091050290918A
:104680000602A0910702B09108028A019B01082B43
:10469000192B2A2B3B2BC901B8011F910F910C94A8
:1046A000E82260937502709376028093770290936C
:1046B00078020C94A9258091600290912F028917AD
:1046C00019F08F5F8770FBCF08950F931F93CF93DF
:1046D000DF9380912E0282958F7009F05DC08091EA
:1046E0002B02882309F458C08091600210912F0298
:1046F0006091290270912A02C0912C02D0912D0262
:1047000091E06F3F09F090E0292F06E0811709F44E
:1047100043C0209721F07F3F21F030E003C031E01B
:1047200001C0322F90E030FD34C0089FF001099F96
:10473000F00D1124DF01A05DBD4F11963C91119742
:10474000371327C03C91361324C012963C91129720
:1047500031111FC013964D915C9114974C1B5D0B4A
:10476000483C5105B0F480912E028F708061809397
:104770002E02EB5CFD4F80818F708061808389E227
:1047800092E00E94AC11DF91CF911F910F910C9498
:104790005B2301968770BACFDF91CF911F910F9164
:1047A00008950E948822292F2F70E92FE295EF703B
:1047B0004E2F50E0FA013297EE30F105B8F4ED5685
:1047C000FF4F0C94AA27803F99F018F4883E70F4AC
:1047D0000FC0843F59F40CC0883E50F0813F31F443
:1047E00007C0822F869586958695089580E0089566
:1047F00081E008959F92AF92BF92CF92DF92EF92A5
:10480000FF920F931F93CF93DF93CDB7DEB76197DE
:104810000FB6F894DEBF0FBECDBF8C0185E0F80166
:10482000DE011D9601900D928A95E1F7F8019081C5
:104830008181E2803091290260912A0240912C020C
:1048400050912D024115510531F06F3F31F421E0B7
:104850003F3F19F403C021E001C020E0F22FF170C6
:104860009F2E20FD23C1F801C380D48029E2A22E0F
:1048700022E0B22EF0902B02F601E41BF50BFF2094
:1048800009F4CEC020912E02E83CF10508F099C051
:10489000422F407F09F051C0681311C039130FC077
:1048A000FE2CE1100CC02F70206120932E02C50158
:1048B0000E94AC1180912E02F801858337C1CD286A
:1048C00031F08F3F31F421E09F3F19F403C021E024
:1048D00001C020E020FD03C021E02E2502C020E021
:1048E00030E0F22FF170FF2E20FF1DC020916002FA
:1048F00040912F0256E0241709F4F6C030E0529F91
:10490000F001539FF00D1124E05DFD4F618186138E
:1049100006C06081961303C06281E61204C02F5F57
:104920003F4F2770E8CFFE2CEE2009F4FFC08091A6
:104930002E02816080932E0250C0681307C0391385
:1049400005C0E11003C0F80125838DC09D878E87C7
:104950008D859E850E94D123882369F1EE2059F12F
:1049600020912E02822F82958F7090E0029774F032
:104970008091290290912A0298878F831986DB867D
:10498000CA862C87CE0107960E94AC1186E0F801FA
:10499000A9E2B2E001900D928A95E1F70E946523A9
:1049A0000DC06817E1F09D878E878D859E850E94DA
:1049B000D12381111EC0C8010E94AC11FF24F394C1
:1049C000B5C0422F407F69F789E292E00E94AC11A6
:1049D00086E0F50111928A95E9F7F12CA7C0391309
:1049E000E2CFE110E0CFF8012583C8010E94AC11AD
:1049F00057C0EE2001F320912E02822F82958F70F6
:104A000090E002971CF28091290290912A029A83E9
:104A100089831B82DD82CC822E83CE010196B4CFA6
:104A2000E83CF105E8F5FE2CEE2029F2681327C0DA
:104A3000391325C020912E0220FD18C0822F8295A7
:104A40008F70482F50E04115510581F0F801258302
:104A50004F30510541F08F5F982F9295907F822FB4
:104A60008F70892B8583C8010E94AC1186E0F80104
:104A7000A9E2B2E001900D928A95E1F757C09D87B7
:104A80008E878D859E850E94D12381117FCF809155
:104A90002E02816080932E02C8010E94AC1146C094
:104AA00086E0F50111928A95E9F740C0EE2009F4FD
:104AB00082CF9D878E878D859E850E94D123F82E7B
:104AC000882309F478CF86E0F801A9E2B2E00190EA
:104AD0000D928A95E1F78091290290912A020E9415
:104AE00088220E94652322C09D878E878D859E85A2
:104AF0000E948822292F22952F70223028F49F703F
:104B000039F0811105C00BC0243028F49F7049F49E
:104B1000805E883020F0C8010E94AC119F2CF92CD7
:104B200005C0F8019581907F99F7F9CF8F2D619697
:104B30000FB6F894DEBF0FBECDBFDF91CF911F91AE
:104B40000F91FF90EF90DF90CF90BF90AF909F902C
:104B5000089510927202109271020E940022E3EBFB
:104B6000F1E086E0DF011D928A95E9F71092B0012D
:104B7000109279020E94EA2080E090E00E94F904FD
:104B800080E090E00C94E30410927302809117018E
:104B9000882331F08091A00187FF02C08EE101C01F
:104BA00086E0EBE0F2E0DF011D928A95E9F70C94D4
:104BB000A925882341F080959091730289238093E1
:104BC00073020C9400220895882339F090917302A7
:104BD000892B809373020C9400220895882309F492
:104BE00063C0823869F40E940F0581FF5DC069E3EC
:104BF00089E092E00E9451210E94002269E30EC0E8
:104C0000833891F40E940F0580FF4EC063E589E070
:104C100092E00E9451210E94002263E589E092E027
:104C20000E9429210C940022843869F40E940F0507
:104C300082FF3AC067E489E092E00E9451210E941D
:104C4000002267E4EBCF9CEF980F913A10F4682FA5
:104C5000E5CF90E2980F983088F4877021E030E03B
:104C6000A90102C0440F551F8A95E2F7CA01809539
:104C700090917302892380937302D4CF9BE5980FA0
:104C8000933020F480E090E00C94F90498E5980FBC
:104C9000973120F480E090E00C94E304803F20F012
:104CA0000E94691F0C94EA200895CF93882309F489
:104CB000BEC0C82F8238B1F40E940F0581FDB7C075
:104CC00069E389E092E00E9451210E9400222FEFC7
:104CD00081EE94E0215080409040E1F700C0000058
:104CE00069E317C08338E1F40E940F0580FD9FC07F
:104CF00063E589E092E00E9451210E9400222FEF9B
:104D000081EE94E0215080409040E1F700C0000027
:104D100063E589E092E00E942921CF910C94002262
:104D20008438B1F40E940F0582FD81C067E489E0F8
:104D300092E00E9451210E9400222FEF81EE94E028
:104D4000215080409040E1F700C0000067E4E1CFCF
:104D50008CEF8C0F813AC0F5809117018823E1F028
:104D60008091A00187FF18C0EC2FE695E695E695A7
:104D7000F0E0E75FFD4F8281282F30E04C2F477035
:104D800081E090E002C0880F991F4A95E2F78223E4
:104D90009323892B61F412C0EBE0F2E081E192E011
:104DA0002191C21721F08E179F07D1F707C06C2FF2
:104DB00089E092E00E9429210E9400226C2F89E064
:104DC00092E00E945121A9CF80E28C0F883068F4D4
:104DD000C77081E090E001C0880FCA95EAF7909112
:104DE0007302892B8093730298CFEBE5EC0FE330CD
:104DF00040F4F0E0EB5AFE4F808190E0CF910C94AC
:104E0000F904E8E5EC0FE73150F4F0E0EE0FFF1F96
:104E1000E85AFE4F80819181CF910C94E304C03F0A
:104E200030F08C2F0E943020CF910C94EA20CF914B
:104E30000895CF93C82F0E945526C93349F42FEF08
:104E400087EE93E0215080409040E1F700C00000E1
:104E50008C2FCF910C94EE25F999FECF92BD81BD98
:104E6000F89A992780B50895A6E1B0E044E050E0B3
:104E70000C946627A8E1B0E042E050E00C9466276D
:104E8000262FF999FECF92BD81BDF89A019700B403
:104E9000021639F01FBA20BD0FB6F894FA9AF99AA3
:104EA0000FBE08950396272F0E9441270E94402796
:104EB000252F0E944127242F0C9441270196272F4C
:104EC0000E9441270C944027DC01CB01FC01F99999
:104ED000FECF06C0F2BDE1BDF89A319600B40D9246
:104EE00041505040B8F7089587FB082E062687FDED
:104EF000819567FD61950E94B7270EF4919507FC97
:104F000081950895AA1BBB1B51E107C0AA1FBB1FB7
:104F1000A617B70710F0A61BB70B881F991F5A9545
:104F2000A9F780959095BC01CD01089597FB072EB8
:104F300016F4009407D077FD09D00E94822707FC61
:104F400005D03EF4909581959F4F08957095619599
:104F50007F4F0895EE0FFF1F0590F491E02D099407
:104F60006927962769277827872778270895991B27
:104F700079E004C0991F961708F0961B881F7A9550
:104F8000C9F780950895FC014150504030F00190E0
:104F90000616D1F73197CF010895882799270895EC
:044FA000F894FFCFB3
:104FA40001191A1B1C1D1E1F2021220102AC1E22E6
:104FB4001FF71EF31EE11E01000102020202060693
:104FC400060909090909090F0F0F0F0F0F15151508
:104FD400181919191919191919191923243134F619
:104FE4003632F4F594904022BC770555059904C9EE
:104FF40005E2050206818283E200E900EA00B500C9
:10500400B600B700CD008301CC008A01920194015F
:105014002102230224022502260227022A02B300C7
:06502400B4006F007000F3
:00000001FF
